:04000000FFFF807707
:0CAFEA00787FE4F6D8FD75812F02B031AD
:02FFFE005AA502
:03000B0002030BE2
:03001300020313D2
:03001B0002031BC2
:03002300020323B2
:03002B0002032BA2
:0300330002033392
:03003B0002033B82
:0300430002034372
:03004B0002034B62
:0300530002035352
:03005B0002035B42
:0300630002036332
:03006B0002036B22
:0300730002037312
:10007B0075816075940075A8007B00740031FB7569
:10008B00378975386A51126036D537F9E53860050E
:10009B00D538F280F090FFFEE493B4FF1E74019309
:1000AB00B4FF1875940290FFFEE493B45A0D7401DB
:1000BB0093B4A5077B5A7594008006510B61000120
:1000CB000031F175360375390AD539028041853611
:1000DB0083758200510431CAE536C39480400E7596
:1000EB003202853630753500853633800F75320117
:1000FB0074802536F530753500853633313D70C942
:10010B00E536B4FF06740031FB80B4053680B78644
:10011B00408841858342858243740093F54475453D
:10012B00007546EE75471190FFF874085104319233
:10013B0080FE7D007E108530838D82853294316FF9
:10014B008533838D82853594510431958533838D29
:10015B0082853594317C7009ED2410FDDED8740056
:10016B002274FF2278407F10740093F6A308DFF807
:10017B002278407F10863A740093B53A07A308DFC4
:10018B00F474002274FF22FF8023740131FBE5839A
:10019B00C394034027E5BA54076002800AE5D8549C
:0A01AB0004700A800201C6745AC3F2
:1001B5009B70F87F107840E6B4FF028001F0A30839
:1001C500DFF5510B22740431FBE583C39403401919
:1001D500E5BA54076002800AE5D85404700A800223
:1001E50001C6745AC39B70F8F0510B2275EBAA75C2
:1001F500EB55759B102275EBAA75EB55F59A22E523
:1002050087D2E4F58722E587C2E4F5872290203876
:100215007490F090202B7425F0E020E0FC20E4059C
:0F022500512F740022512F7401227C19DCFE220C
:0303000002AFEA5F
:0BBF21000700060002030001100101F0
:10877A000B02010503021218031900000000000091
:10878A0000000000000000000000000000000000DF
:10879A00121109414D4943434F4D5F44656D6F5F67
:1087AA003331360000000000000000000000000025
:1087BA000000000128000200180002280305020335
:1087CA0000002A00032A0010414D4943434F4D5FE0
:1087DA0044656D6F5F3331360004280305020500D6
:1087EA00012A00052A0102000000062803050807DD
:1087FA0000032A00072A0306000000000000000800
:10880A00280305020900022A00092A020100000AB7
:10881A00280305020B00042A000B2A0408900170A1
:10882A000300009800000C2800020118000D28031C
:10883A0005220E00052A000E2A05040100FFFF008A
:10884A000F290202000000102800020A180011284D
:10885A000305021200252A00122A2504303030317D
:10886A00001329040719000000010000001428035E
:10887A0005021500292A00152A290D414D494343AD
:10888A004F4D20456C65632E001629040719000018
:10889A00000100000017280305021800232A001807
:1088AA002A230855AA55AA55AA55AA001928030524
:1088BA00021A00262A001A2A260456302E38001BCD
:1088CA0029040719000000190000001C28030502EA
:1088DA001D00242A001D2A24064D44383130370051
:1088EA001E29040719000000010000001F280305C3
:1088FA00022000272A00202A270355303300212985
:10890A0004071900000001000000222803050223C1
:10891A0000282A00232A2804303030300024290471
:10892A00071900000001000000252803050226009F
:10893A00502A00262A500701C00000000000002724
:10894A00280002BAFE002828030514290010FA009C
:10895A0029FA1014000000000000000000000000C6
:10896A000000000000000000002A290202000000A6
:10897A002B2901084F54415F44415441002C2803DC
:10898A0005282D0011FA002DFA1108000000000038
:10899A00000000002E2902020000002F2901074FC3
:1089AA0054415F434D44003028030510310013FA47
:1089BA000031FA130400000000003229020200000C
:1089CA000033290111444154415F4552524F525FCD
:1089DA0053544154555300342800020F18003528C7
:1089EA000305123600192A00362A190164003729AC
:1089FA00020200000038280002F0FF0039280305AF
:108A0A00103A00F1FF003AFFF114000000000000E4
:108A1A000000000000000000000000000000003B11
:108A2A002902020000003C280305083D00F2FF006D
:108A3A003DFFF214000000000000000000000000EA
:108A4A000000000000000000003E280305103F005F
:108A5A00F3FF003FFFF314000000000000000000D5
:108A6A00000000000000000000000000402902028F
:108A7A0000000041280305084200F4FF0042FFF409
:108A8A0014000000000000000000000000000000C8
:108A9A0000000000000043280305024400F5FF001F
:108AAA0044FFF514000102030405060708090A0B2E
:108ABA000C0D0E0F10111213000101010101010129
:108ACA000101020101010101010103010101010189
:108ADA00010101010101010101010101010102017B
:108AEA000301010102010301010100010301010166
:108AFA000101030101010301020101010301020154
:108B0A00010187BA87BC87C387CD87E287EC87F3E1
:108B1A0087FD8808881288188822882F8836884016
:108B2A008849885088578861886A887688808892B8
:108B3A00889E88A888B588BF88C888D488DE88E9CE
:108B4A0088F588FF89078913891D89268932893C16
:108B5A008948894F89598972897989868990899D35
:108B6A0089A489B089BA89C389CA89E089E789F160
:108B7A0089F789FE8A058A0F8A288A2F8A398A52B2
:108B8A008A5C8A758A7C8A868A9F8AA9FF87BFFF40
:108B9A0087C1FF87C801081FFF87E7FF87F1FF87A3
:108BAA00F80107BFFF880DFF8817FF881DFF882778
:108BBA00FF8834FF883B01082F010835FF8855FFDD
:108BCA00885CFF8866FF886FFF887BFF8885FF883F
:108BDA0097FF88A3FF88ADFF88BAFF88C4FF88CDB6
:108BEA00FF88D9FF88E3FF88EEFF88FAFF8904FF30
:108BFA00890CFF8918FF8922FF892BFF8937FF8992
:108C0A0041FF894DFF89540107A8010833FF897E76
:108C1A00FF898B0108150107A6FF89A9FF89B501FC
:108C2A00083B01081DFF89CFFF89E5FF89EC010791
:108C3A00BE0107BCFF8A03FF8A0A0107C50108377C
:108C4A00FF8A340107EDFF8A570107D9010839FF66
:108C5A008A81010801FF8AA4FF8AAE8AC28AC48A6D
:108C6A00C68AC88AC68ACA8AC68ACC8AC68ACE8A66
:108C7A00C68AD08AC48AC68AD28AD48AC48AC68A4A
:108C8A00D68AD88AC68ADA8AD88AC68ADC8AC68AFC
:108C9A00DE8AD88AC68AE08AD88AC68AE28AD88AC6
:108CAA00C68AE48AD88AC68AE68AC48AC68AE88ACA
:108CBA00EA8AEC8AC68AEE8AF08AF28AC68AF48A34
:108CCA00F68AF88AC48AC68AFA8AFC8AC48AC68A52
:108CDA00FE8B008AC68B028AC68B048B068AC68BD9
:0A8CEA00088AC68B0A89F70107BC4F
:109C520050081F414D4943434F4D5F44656D6F5F4F
:109C62003331364607BF00000000000044082F00D1
:109C720000000042083500005407A8000000000060
:109C82000000000000000000000000000000004290
:109C920008330000480815000000000000000042E0
:109CA20007A6000044083B0000000042081D000017
:109CB2004107BE644207BC00005407C50000000013
:109CC2000000000000000000000000000000000092
:109CD20042083700005407ED0000000000000000B9
:109CE2000000000000000000000000005407D9003E
:109CF2000000000000000000000000000000000062
:109D02000000004208390000540801000000000071
:0F9D120000000000000000000000000000000042
:10B4A3007580FFE4F5D1F5D275D3FF7590FFF5D91B
:10B4B300F5DA75DBFF75A0FFF5A1F5A275A3FF759E
:10B4C300B0FFF5E1F5E275E3FF781DF608F6781DA8
:10B4D300E6FE08E6FFC3EE9420500E8F828E83E4CF
:10B4E300F006E61870E80680E543B901E58754EFF6
:10B4F3004401F58775BA079005E1745AF0A374A562
:01B50300F057
:01B504002224
:08BF8200E4FF900AB712164714
:01BF8A002294
:10BE2900E4FF900A04121647900A0112163E900A7E
:04BE39000412164792
:01BE3D0022E2
:030313000231C0F4
:0231C0000032DB
:03031B000231C2EA
:1031C200C0E0C0F0C083C082C0D0E8C0E0E9C0E087
:1031D200EAC0E0EBC0E0ECC0E0EDC0E0EEC0E0EF42
:1031E200C0E0900A93E0600F90091AE0600414F0C6
:1031F200801E12BFE88019900A95E07002A3E06079
:103202000C900A9574FFF5F01213CB800312682517
:10321200D0E0FFD0E0FED0E0FDD0E0FCD0E0FBD07B
:10322200E0FAD0E0F9D0E0F8D0D0D082D083D0F06C
:03323200D0E032B7
:030323000232356E
:02323500003265
:03032B0002323764
:02323700003263
:03033B0002323952
:02323900003261
:0303430002323B48
:02323B0000325F
:03034B0002323D3E
:02323D0000325D
:0303530002323F34
:10323F00C0E0C0F0C083C082C0D0E8C0E0E9C0E009
:10324F00EAC0E0EBC0E0ECC0E0EDC0E0EEC0E0EFC4
:10325F00C0E0438701759108902062E030E50312CA
:10326F008FF6902028E030E70C900028E044809003
:10327F002028F0D23ED0E0FFD0E0FED0E0FDD0E03D
:10328F00FCD0E0FBD0E0FAD0E0F9D0E0F8D0D0D01D
:08329F0082D083D0F0D0E032B0
:03035B000232A7C4
:0232A7000032F3
:10BAFD005475C52AE1E2E3E4E5E6E7E8E9EAF1F2A7
:10BB0D00F3F4F5F6F7F8F9FA5475C52AE1E2E3E432
:10BB1D00E5E6E7E8E9EAF1F2F3F4F5F6F7F8F9FA14
:106CB700902000E05403640322740AF09008500205
:106CC700163E90200174D0F022F583EEF09008482C
:106CD700E004F0E022900848E0C394C822900A8FAD
:106CE7000215CD7D017BFF7E000212C47B017A086D
:036CF700796B2294
:0667CE00900ABA12164702
:1067D400E4FFEFC39D501D900ABA12163E8F8275D6
:1067E4008300121303FEE42FF582E43422F583EED2
:0467F400F00F80DE44
:0167F800227E
:0667F900900ABD121647D4
:1067FF00E4FFEFC39D501E74802FF582E43422F521
:10680F0083E0FE900ABD12163E8F82758300EE1252
:05681F0013420F80DDB3
:016824002251
:0A682500E4900A94F0C28EC2AB2288
:0B682F00900A947401F0D28ED2AB22CC
:10683A007E007C077DD01216F1900A8F1215F51290
:10684A006CE4EFF4FFEC8F8B126CE478081215936A
:10685A00EFF4FFEC8F8D126CE47810121593900A06
:09686A0095EEF0A3EFF002682F97
:1068730090084B7401F0E4A3F0A3F0FBFAF990083D
:106883005012164778537C087ABB79157F04126C33
:10689300EA78577C087ABB79197F14126CEA1203E1
:1068A3005612B4A3E4900848F0900848E0FF90BA69
:1068B300FD93FE74532FF582E43408126CD0B404B4
:1068C300E8E4900848F0900848E0FF90BB0193FE8D
:1068D30074572FF582E43408126CD0B414E8C23F25
:1068E300E4900A93F07F3212BD6712BC2812202F66
:1068F300120987128CF47F0612A62812BFE512BE76
:10690300DF7B017A08795390087F1216479008823B
:106913007401F0A3F0E4A3F0A374DCF0A37405F016
:106923007A087950900A691216477A08797F12A774
:10693300487E007F0A7D00126CF31218C8120AB257
:1069430090054FE060030269FD900A93E06009122D
:106953006C0212A26A0269CB126C6D126C5874D06D
:10696300F0902001E020E7F9126CB760F4126C8A12
:1069730074C0F0902001E020E7030080F6900A94B1
:10698300E0600A902001E030E7030080F0902001EE
:10699300E030E70574B0F08003126CAB126C4190E9
:1069A3000A94E06023126CC9902001E020E7F912F9
:1069B3006CB760F4E4900848F0126CDC50E100001E
:1069C300000000E004F080F1126CC312AAB1E4905D
:1069D3000841F0A3F0A37405F0A374DCF090083F22
:1069E3007401F0E4A3F0900845F0A304F0A3F0FBD6
:1069F3007A08793F12B102026BFC90054FE0640103
:106A03006003026AA8900A93E06009126C0212A262
:106A13006A026A99126C6DD39464EE940040771203
:106A23006C5874D0F0902001E020E7F9126CB76045
:106A3300F4126C8A74C0F0A280B39280902001E0BB
:106A430020E7030080F6900A94E0600A902001E0BA
:106A530030E7030080F0A280B39280902001E03001
:106A6300E70574B0F08003126CAB126C41900A948A
:106A7300E06023126CC9902001E020E7F9126CB7A3
:106A830060F4E4900848F0126CDC50E10000000070
:106A930000E004F080F1126CC312AAB190084974AB
:106AA30001F0026BFC90054FE064036003026BFC92
:106AB300900A93E06032126CC37D3212A3C5126C4C
:106AC300F39009A91216479009AC126CC0129A915F
:106AD3007B017A0879579009C51216479009C812A5
:106AE3006CC012A26A026B91126CC37D3212A3C5F1
:106AF30090200174B0F012B9E890084EEEF0A3EFC5
:106B0300F0D39464EE94005003026B91126C9912CB
:106B13006CC9902001E020E7F9126CB760F47F059F
:106B230012683A9020047413F090200174C0F0901E
:106B33002001E020E7030080F6900A94E0600A90C9
:106B43002001E030E7030080F0902001E030E7050A
:106B530074B0F08008126CF37D141267F97F05128C
:106B6300683A126C99900A94E06023126CC99020E1
:106B730001E020E7F9126CB760F4E4900848F012E2
:106B83006CDC50E10000000000E004F080F1126CC6
:106B9300C312AAB1900849E060151209A7900848EA
:106BA300EFF064016004E0B40205E4900849F030BA
:106BB3003647125D7ECFE9CF90084CEAF0A3EFF0A1
:106BC300125D8790084AEFF090084CE06407700468
:106BD300A3E064A870067E077FA8801290084CE0AB
:106BE30064087004A3E06415700F7E087F15900895
:0F6BF3004AE0FD120A7E120AB212BB2D0269405F
:106C020090085012163E7D3212A3C57B017A087994
:106C12006B9009A91216479009AC740AF0900850BB
:106C220012163E129A917B017A0879579009C51281
:106C320016479009C8740AF090085012163E227F37
:106C42000512683A7B017A0879577D141267CE9053
:106C520020047413F0227B017A0879577D1412679D
:106C6200CE9020047413F090200122900850121646
:106C72003E7D3212A3C590200174B0F012B9E890A3
:106C8200084EEEF0A3EFF0227F0512683A9020043E
:106C92007413F0902001227B017A0879577D141237
:106CA20067CE9020047413F0227B017A08796B7D01
:056CB200141267F92235
:0802F800FFFF187A938508014D
:0C7FF40000000000000000010000000080
:1021AD000000000000001000800000805F9B34FBE9
:1021BD000000000000000000000000000000000012
:1021CD0043730503E30B0F86C71041F0AEFD9D6908
:1021DD00E2485A7AD8D97C223057FA42DB598B25FE
:1021ED00DEAFBABE0213243546576879677547309E
:1021FD004AF6D91A28DDB5B7E148AC7E3B918AA6DF
:10220D00D71C4533E50BE58BE88D786175A7E34B5E
:10221D000180A0FBF9820000020002000002000212
:10222D000101010001000000000001010200010098
:10223D00000000280010D0002D121E4B0FA4994E47
:10224D00CEB531F405790000280313000000BD1D43
:10225D00A299E625588CD94201630D12BF9F00004B
:10226D00080000000000000000000029020200002C
:10227D000000280313000000D9D9AAFDBD9B2198A9
:10228D00A849E145F3D8D169000014000000000011
:10229D000000000000000000000000000000000031
:1022AD0000280313000000FB7B7CCE6AB344BEB54F
:1022BD004BD624E9C6EA22000014000000000000FD
:1022CD000000000000000000000000000000000001
:1022DD002902020000223C2253226B2276227D220B
:1022ED009522AC22C422DB01070001071E01074E17
:1022FD0001077001077701078F01073601075901A3
:10230D000717000003930000050200000A270000D4
:10231D000A9500000D93000010FA00001124000032
:10232D001451000016CB000017F2000019E3000055
:10233D001B6300001CB300001D4F00001E52000067
:10234D001EC200001F5B00001FF3000021E900000A
:10235D00224100002312000023320000236C0000F4
:10236D0023DF00002436000025000000254B00006F
:10237D0025BC000026080000264A000026B00000FB
:10238D0026BB0000306500003EE1000050E4000077
:10239D0056CD0000617100006D520000886500008F
:1023AD00A0400000B3620000C6100000CDFE00008A
:1023BD00DB700000F4B90000F76F00040CCE0004D0
:1023CD00155200041E64000426650004489A00049A
:1023DD004BED000452F300045453000469F800045B
:1023ED00D3CF0004DB560004E5360004F13E0004B3
:1023FD00F7E4000800070008669800086D41000822
:10240D007045000874020008F4AB000C1539000C7F
:10241D003021000C3E9F000C4DE9000C5101000CC9
:10242D0074C2000C771A000CBC9F000CD74600102C
:10243D001C0C001040F30010417F001093E90010B8
:10244D009ADD0010DDB10014109F00145A05001420
:10245D008FC6001499E20014BD61001820320018D7
:10246D0034510018659000189EFC0018AF610018DB
:10247D00AF8F0018E7F40018EE690018F643001C42
:10248D001AC0001C36BB001C5CF2001C9148001CDD
:10249D009E46001CABA7001CE62B00203CAE002086
:1024AD00768F002078F000207D7400209BCD0020D9
:1024BD00A2E40020AB370020C9D00020EE28002474
:1024CD001EEB0024240E00245BA70024A07400241E
:1024DD00A2E10024AB810024E3140024F094002435
:1024ED00F67700280B5C0028373700285AEB0028B8
:1024FD006AB800286ABA0028A02B0028CFDA002875
:10250D00CFE90028E02C0028E14C0028E7CF002877
:10251D00ED6A0028F076002C1F23002C200B002CD8
:10252D003361002CB43A002CBE08002CF0A2002C14
:10253D00F0EE003010E4003035AD0030636B00304C
:10254D0090AB0030F7C5003408BC0034129800344D
:10255D00159E0034363B003451C90034A395003428
:10256D00AB370034C0590034E2FD00380F4A003853
:10257D00484C003866F0003871DE0038B54D003833
:10258D00C9860038CADA003C0754003C15C2003C2D
:10259D002EF9003C2EFF003CAB8E003CD0F8003CE9
:1025AD00E072004030040040331A00403CFC004013
:1025BD004D7F00406C8F00409C280040A6D9004004
:1025CD00B3950040D32D0044001000442A60004410
:1025DD004C0C0044D8840044FB4200483B38004872
:1025ED00437C00484BAA004860BC0048746E00480C
:1025FD00A1950048BF6B0048D7050048E9F1004C94
:10260D003275004C57CA004C74BF004C7C5F004CB7
:10261D008D79004CB1990050323700507A550050E9
:10262D0082D50050EAD600542696005433CB005480
:10263D004E900054724F00549F130054AE27005417
:10264D00E43A0054EAA800581FAA0058404E00581A
:10265D0055CA00587F570058B0350058E28F005CBE
:10266D005948005C8D4E005C95AE005C969D005CFB
:10267D0097F3005CADCF005CF5DA005CF7E6005C2B
:10268D00F938006003080060334B00606944006056
:10269D00921700609AC10060A37D0060C54700607D
:1026AD00D9C70060F4450060F81D0060FACD0060E8
:1026BD00FB420060FEC50064200C006476BA006425
:1026CD009ABE0064A3CB0064A5C30064B0A60064E9
:1026DD00B9E80064E6820068092700685B35006888
:1026ED00644B0068967B00689C700068A86D00685C
:1026FD00AE200068D93C0068DBCA0068FB7E006C28
:10270D0019C0006C3E6D006C4008006C709F006C31
:10271D0072E7006C8DC1006C94F8006C96CF006C64
:10272D00AB31006CC26B00701124007014A60070E8
:10273D003EAC0070480F007056810070700D007037
:10274D0073CB007081EB0070A2B30070CD60007090
:10275D00DEE20070E72C0070ECE40070F08700748E
:10276D001BB20074811400748D080074E1B60074FE
:10277D00E2F5007831C100783A8400784F43007853
:10278D0067D700786C1C00787B8A00787E610078B2
:10279D00886D00789F700078A3E40078CA390078BE
:1027AD00D75F0078FD94007C0191007C04D0007C03
:1027BD0011BE007C5049007C6D62007C6DF8007C80
:1027CD00C3A1007CC537007CD1C3007CF05F007CC9
:1027DD00FADF0080006E008049710080929F0080BA
:1027ED00B03D0080BE050080D6050080E65000801B
:1027FD00EA960080ED2C00842999008438350084F8
:10280D0041670084788B00848506008489AD00843F
:10281D008E0C0084A1340084B1530084FCAC008480
:10282D00FCFE00881FA100885395008863DF008897
:10283D0066A500886B6E0088C6630088CB8700880C
:10284D00E87F008C006D008C2937008C2DAA008C40
:10285D005877008C7B9D008C7C92008C8590008C31
:10286D008EF2008C8FE9008CFABA009027E400906C
:10287D003C92009060F1009072400090840D0090A9
:10288D008D6C0090B0ED0090B21F0090B9310090AA
:10289D00C1C60090FD61009494260094E96A0094ED
:1028AD00F6A3009800C6009801A7009803D80098D9
:1028BD0010E800985AEB00989E630098B8E30098D2
:1028CD00D6BB0098E0D90098F0AB0098FE94009C20
:1028DD0004EB009C207B009C293F009C35EB009C69
:1028ED004FDA009C84BF009C8BA0009CE33F009CB2
:1028FD00F387009CF48E009CFC0100A0182800A01A
:10290D003BE300A04EA700A0999B00A0D79500A087
:10291D00EDCD00A4313500A45E6000A4670600A4CF
:10292D00B19700A4B80500A4C36100A4D18C00A484
:10293D00D1D200A4E97500A4F1E800A8206600A892
:10294D005B7800A85C2C00A860B600A8667F00A884
:10295D0086DD00A8880800A88E2400A8968A00A805
:10296D00BBCF00A8BE2700A8FAD800AC1F7400ACDE
:10297D00293A00AC3C0B00AC61EA00AC7F3E00ACE8
:10298D0087A300ACBC3200ACCF5C00ACE4B500ACAE
:10299D00FDEC00B019C600B0349500B0481A00B077
:1029AD0065BD00B0702D00B09FBA00B0CA6800B40C
:1029BD0018D100B44BD200B48B1900B49CDF00B415
:1029CD00F0AB00B4F61C00B8098A00B817C200B805
:1029DD0044D900B853AC00B8634D00B8782E00B898
:1029ED008D1200B8C11100B8C75D00B8E85600B827
:1029FD00F6B100B8FF6100BC3BAF00BC4CC400BCDD
:102A0D0052B700BC543600BC677800BC6C2100BCCA
:102A1D00926B00BC9FEF00BCA92000BCEC5D00C018
:102A2D001ADA00C0639400C0847A00C09F4200C0CF
:102A3D00A53E00C0CCF800C0CECD00C0D01200C065
:102A4D00F2FB00C42C0300C4B30100C81EE700C88C
:102A5D002A1400C8334B00C83C8500C869CD00C896
:102A6D006F1D00C8855000C8B5B700C8BCC800C8E8
:102A7D00E0EB00C8F65000CC088D00CC08E000CC8F
:102A8D0020E800CC25EF00CC29F500CC446300CC28
:102A9D00785F00CCC76000D0034B00D023DB00D0A3
:102AAD00259800D0331100D04F7E00D0A63700D02E
:102ABD00C5F300D0D2B000D0E14000D4619D00D468
:102ACD009A2000D4DCCD00D4F46F00D8004D00D88E
:102ADD001D7200D8306200D88F7600D8969500D838
:102AED009E3F00D8A25E00D8BB2C00D8CF9C00D84A
:102AFD00D1CB00DC0C5C00DC2B2A00DC2B6100DC74
:102B0D00371400DC415F00DC86D800DC9B9C00DCC8
:102B1D00A4CA00DCA90400E05F4500E0667800E08F
:102B2D00ACCB00E0B52D00E0B9BA00E0C76700E01E
:102B3D00C97A00E0F5C600E0F84700E425E700E4B7
:102B4D002B3400E48B7F00E498D600E49A7900E4FE
:102B5D009ADC00E4C63D00E4CE8F00E4E4AB00E86F
:102B6D00040B00E8068800E8802E00E88D2800E8B8
:102B7D00B2AC00EC358600EC852F00ECADB800F062
:102B8D00247500F0796000F0989D00F099BF00F079
:102B9D00B0E700F0B47900F0C1F100F0CBA100F086
:102BAD00D1A900F0DBE200F0DBF800F0DCE200F090
:102BBD00F61C00F40F2400F41BA100F431C300F443
:102BCD0037B700F45C8900F4F15A00F4F95100F8BC
:102BDD00037700F81EDF00F8279300F8621400FC5D
:0E2BED00253F00FCD84800FCE99800FCFC489D
:109D210057070000000000280010D0002D121E4B24
:109D31000FA4994ECEB531F4057958071E000028BD
:109D41000313000000BD1DA299E625588CD94201DC
:109D5100630D12BF9F4B074E00000800000000007A
:109D61000000004707700000290202000058077731
:109D71000000280313000000D9D9AAFDBD9B21983A
:109D8100A849E145F3D8D16957078F0000140000B5
:109D910000000000000000000000000000000000C2
:109DA10000005807360000280313000000FB7B7CED
:109DB100CE6AB344BEB54BD624E9C6EA2257075949
:109DC100000014000000000000000000000000007E
:109DD10000000000000000470717000029020200F0
:019DE1000081
:10604B009008E9E0FF908B0C75F002121632E49386
:10605B00FC740193F5828C8322F09008EAE004F043
:10606B00EF908B0C75F002121632E493FE740193D1
:10607B00F5828E8322F0A37403F0A37428F07407C7
:10608B009002A9F0E4A3F0A37404F0E4A3F07B0165
:10609B007A0279A922E0FF9022F475F003ED121633
:1060AB0032EC75F003A42583F58302165012163ECD
:1060BB0090000112130375F080A42400FFE5F03467
:1060CB007BFE7B017A037943900A3AE4F0A37402D6
:1060DB00F022A3E075F003908B9612163202165045
:1060EB00900A4B12163E900001021303EF2402FF9D
:1060FB00E433FEE075F002908B0C121632E493221F
:10610B00900A13E07F00FEEF2400F582747A3EF5CF
:10611B0083E5822DF582E5833CF583E49322EFFD45
:10612B007414C39DFDE49400FC74A92DF5827402D4
:10613B003CF583E0FE229002AD7404F090071FE063
:10614B00FE2402FDE433FCD3ED94FFEC64809480D9
:10615B0022F583E0FE74432FF582E43403F58322AA
:10616B003EF583E49304FD900A1002163EEE2402E2
:10617B00FE9002AEF090071EE0FD9002AFF0A3EE92
:10618B00F0A3EDF0229002AD7412F074059002A909
:10619B00F0E4A3F0A37404F0E4A3F02290071FE053
:1061AB002402FE9002AEF0EF04FFA3F0A3EEF0A3E7
:1061BB00EFF0227404939000051213427B017A03D3
:1061CB00790322E493FF9008EAE024A9F582E434F2
:1061DB0002F583229002ADE0FFA3E0FDA3E0FB906C
:1061EB0009B822900A13E0FFC374019FFFEF7F00F1
:1061FB00FEEF22900A14E475F0010213CB740290A7
:10620B0002A9F0E4A3F07406A3F0E4A3F0A3229098
:10621B000901E004F0E0FF90059BE0228D8275837D
:10622B0000121303900A45FFED2406FDE433FC1224
:10623B00163E8D828C83221313543FFD7F00FEEF9D
:10624B002402F582747A3EF583E493FF90000202F8
:10625B001303900A44E0FFA312163E900004EF12C2
:10626B00134275F002EF908CEF22740193FF9002B2
:10627B00AEE0FEEF227401F090205EE0FEA3E0FDA5
:10628B00ED2440FFE43E9005DFFEE0FCA3E0FDC300
:10629B0022FE740193FFF5828E8374029322900A7F
:1062AB00D1E075F003A424F4F582E43422F58302E3
:1062BB001650E493FE9002AFE0FDEE22FEE5822F36
:1062CB00F582E5833EF583E493FF223EF583E49369
:1062DB0004900001121342900A16E4F0A3222582C7
:1062EB00F582E43583F583E49322FC7401932FF557
:1062FB0082EC3EF583E493227401F09002B1E0FF4F
:10630B009002AFE0FE6F228D827583000213039023
:10631B00058FE0FEA3E0FFC32274432FF582E43424
:10632B0004F583EEF00FEF22ED7F00FEEF2442F534
:10633B0082747A3EF583E493227404F0900A49E068
:10634B0004F022121632E493FA740193F5828A83D5
:10635B0022900A49E0FFC3940222900A44E0FF75A1
:10636B00F002908CEF22C8ECC8C9EDC9CAEECACBBB
:10637B00EFCBE0FFE4FCFDFE12155190093A02153C
:10638B00F5FDE0FAA3E0FBEF2BFFEE3AC313FEEFB4
:10639B0013FF90093FEEF0A3EFF06D227C007D031D
:1063AB00121364EF2410FFE43EFEC39005E0E09F60
:1063BB00FF9005DFE09E22907C0075F08002163284
:1063CB00EF2402FFE433FE222403FFE433FE9002AA
:1063DB00A9E0D39FEE6480F8748098229009FDE0C9
:1063EB002402FDE433FC229002B2E02401FDE433ED
:1063FB00FC900703E0FEFBD3ED9B7480F86C9822B6
:10640B001313543F7F00FEEF2482F582747A22A48B
:10641B00FFE5F0F0A3EFF0A2AFE433228F828E837F
:10642B00740393FF22FA7401932DF582EA3CF583F2
:10643B00E49322900AD0E025E0FF900ACFE033FEF0
:10644B0074E22FF58274223EF5832275F002EF90F1
:10645B008C6522E0FF24B0F582E43402F583E0FE84
:10646B0022EEF0900A43E004F022900A17E0244059
:10647B00FF900A16E0340022E0FEE42400FFEE2237
:10648B00E4121330900A14F0A3F0229002A97406C0
:10649B00F09002AD7401F09002AF04F0E4A3F0A30E
:1064AB0022A3E0FD9002AEE0D39D22740193FF90F6
:1064BB0002B0E0FEEFD39E22EFF09008EAE004F08A
:1064CB009008E8E022E0FFFDD390059EE09D90054B
:1064DB009DE0940022900A13E0FFC322ED9000028E
:1064EB00021342D2369002A9E024FD22F583EEF08E
:1064FB00900945E004F022E493FE9002B1E0FDEE3A
:10650B00D39D22900574E0C3940122900343F0A322
:10651B00F0A2AFE433F510C2AF221213039002AE18
:10652B002402F00212EA900A43E0FFC394022224F1
:10653B000FF58274233EF5831215D990093A021593
:10654B00E9900A13E004F0227F00FEEF2400F582AD
:10655B00747A22EF90000102134290205EE0FEA3BA
:10656B00E0FDEDFF2440FDE43EFCD322E0FF900A6A
:10657B00CFE0FCA3E0FD9022F475F0032290051010
:10658B00F01212EA900511F0E49009FBF02290074B
:10659B0071E09002AEF0900770E09002AFF02290A5
:1065AB000718E09002AEF0900717E09002AFF022D0
:1065BB00EDF0900A6FE004F02290000302130390B9
:1065CB000A44E0FF90059DE02275F003EF908CF1FB
:1065DB002290093FE0FEA3E022900A14E4F0A322EC
:1065EB00E4FF900582E0FE2274B42FF582E43402BE
:1065FB00F5832290059CE024FFFF90059BE034FF80
:10660B00FE22E4121330900A16F0A3F0900A13F056
:10661B0022900582741EF0E490057EF0C23B22A20C
:10662B00AFE433F50EC2AF22FE7B017A03794390C0
:10663B000A3AE4F0A322900A13E07F00FEEF22EF68
:10664B002402F582747A22900A14E0FEA3E0FF2262
:10665B0090050FF09009F9E0240390050B2274B21A
:10666B002EF582E43402F583E0FE22EFF09009026E
:10667B00E004F0900900E0227401F0E4A3F0229012
:10668B0008D5E0FE9008D4E0FFD39E227B017A026E
:10669B0079B0900A0102164774F1F090005674D14C
:1066AB00F07591082275F002EE908B0C2274049316
:1066BB00FE900A43E0FDC39E22740493FE900A49A8
:1066CB00E0FDC39E2290093A1215CD78080215BA47
:1066DB00E475F0400213CB24C2F582747A3EF58345
:1066EB00E49322C374059FFFE49E222402F5827477
:1066FB007C3EF583E49322FF9002AFE024FE22EF71
:10670B0024C0F582747A22EF2480F582747A22EF0A
:10671B002440F582747A227401935403FF9009FD8F
:10672B00F022F09009FBE004F0229008FFE0FF90CC
:10673B000901E0229008FFE0FF9008FEE02290079D
:10674B0002E0F99002B3E022F582E43402F583EF24
:10675B00F022E004F0900572E014FF229002ADF0FD
:10676B009002A97401229008E9E004F022A2AFE4A0
:10677B0033F50D228F82758300EE021342900A448B
:10678B00E004F02212163E0212EA900A4AE004F0EC
:10679B0022FE74AE2FF582E4340222EEF090093122
:1067AB00E004F0E022EF9DFFEE9CFEC3E09F22A3EE
:1067BB00A3E0900343F0A3F0229009F9E0FF9009C6
:0367CB00FBE022CE
:1032A900EF1216CB32C60032C90132CC0232CF033B
:1032B90032D20432D50532D806000032DB0233E6B9
:1032C9000233E70233E80233E90233EA02340F1228
:0332D90034452257
:1032DC00EF1216CB338600334101334402334703DC
:1032EC00334A04334D0533500633530733560833F2
:1032FC005909335C0A335F0B33620C33650D336849
:10330C000E336B0F336E103371113374123377131A
:10331C00338614338615337A16337D17338018337E
:10332C00831933861A33881B33861C338E1D3391D5
:10333C001E0000339402345402348A0234A4023442
:10334C00A502362F02376F0238DB023933023C2DCF
:10335C00023E02023EE3023EE402404402404502C9
:10336C00404E02404F0243BA0243BB024751024750
:10337C005202475B02475C024765800302476602C4
:09338C0034530247E61247E72220
:10339500EF1216CB33C10033C40133C70233CA035E
:1033A50033CD0433D00533D30633D60733D90833A9
:1033B500DC0933DF0A33E20B000033E5024B7C0204
:1033C5004B7D024C4B024C4C024CCA024DB7024D90
:1033D500CB024DD7024E08024E1C024FD4124FE8C5
:0133E50022C5
:0133E60022C4
:0133E70022C3
:0133E80022C2
:0133E90022C1
:1033EA009002ADE0FF54E07009EFD3941E5015022D
:1033FA0032DC9002ADE0242E60072480700602477A
:05340A00EA124B7B22D9
:10340F009002ADE0FFD394135017EF14602724EE12
:10341F0070099002B1E0900571F022126496F0806D
:10342F00071264967402F0E41260979002A9E024E8
:05343F0004FD12035E14
:013444002265
:0D3445009002ADE0FFC3940C5003123395CC
:013452002257
:013453002256
:1034540090057EE0FFB401028028EFC3940A502552
:1034640090071EE0FF7004A3E0601712614150054D
:1034740012617880031261A7740512608B7D0902C2
:06348400035E12661C222B
:10348A009002AD7403F0900572E09002AE1260955E
:0A349A009002A9E02404FD02035E85
:0134A4002205
:1034A500D24212630670091264AC500BC242800707
:1034B500EEC39F5002C2429002AEE0FD7006A3E04B
:1034C5007002D2423042129002ADE0FF9002AFE0AE
:1034D500FB9009B8740102362AD242E4900A6FF0D3
:1034E500900A6F12604E1262BDC39D401612606B4A
:1034F500126275C39E400C900A6FE0900A6CF0C290
:1035050042800D900A6F12621D7003A3E06F70D0A8
:1035150020422B900A6F12604E12650250201260F5
:103525006B1264B65018900A6FE0900A6DF0126540
:10353500BD900A6F1262207003A3E06F70D5304210
:10354500030236259002AD7405F0900A6CE0908C6C
:103555006512606F74019354039002AEF0900A7087
:10356500F0900A6E7402F0A37406F0900A6CE0FF06
:10357500908C651260537401935403FE900A70E0B9
:103585006E6003023616900A6CE0FE1260507401FC
:1035950093FD900A6F1261D41265BB1266B012607A
:1035A50056E493FE900A6F1261D4EE1265BC125078
:1035B50005CCEFCC900A6FE02FFE900A6EE02F2429
:1035C50002F00C900A6FE0FFC39E501A900A6C122D
:1035D50060FE1263532C1262EBFD74A92F1261D7A2
:1035E5001265BB1C80DD900A6EE0FF900572E0C39A
:1035F5009FFF900A6FE014FEEFC39E4014900A6C83
:10360500E004F0A3E0FF900A6CE0D39F500302357D
:1036150070900A6EE0FF12608BEF2404FD02035EDA
:093625001261DF740AF012BB5AB5
:01362E002279
:10362F00D243E4FDFC126703C394FE401C1260A258
:10363F001260F11267026F702B1212EAFF9002B044
:10364F00E0146F701FC24380261260A21260F11245
:10365F0067026F700F1212EAFF9002B0E06F7004F2
:10366F00C243800B0DBD00010CED64094C70B630E8
:10367F00430302376E9022FA1260A51265C4FF90C1
:10368F0002B1E06F600302376E126257FF9002B211
:10369F00E06F600302376E9002AFE012655F900239
:1036AF00B0E0FF9022FA1260A5EF121330D243E47C
:1036BF00FCFD1260A21212EA70261260F170211244
:1036CF0062576429701A1265C4B402149022EE1264
:1036DF0060A51212EA70051260F16004C243800BFC
:1036EF000DBD00010CED64094C70C72043589002CA
:1036FF00AD7404F09022EE1260A51260F11263CC4B
:10370F00D3EF94FFEE648094809000015012126505
:10371F00259002AFF01260F19002B012652B801568
:10372F00126525049002AFF01260F124029002B0EE
:10373F00F01212EA049002B1F09002A9740512601F
:10374F008E7D0902035E900582741FF090057E74D2
:0F375F000AF0C23B900566E064036003124FE876
:01376E002238
:10376F00900A7112630370071264AC500C8005EE5F
:10377F00C39F5005E4900A71F09002AEE07009A368
:10378F00E07005900A7104F0900A71E0700E9002DB
:10379F00B3E064286006900A717406F0900A71E035
:1037AF00600302384A740AF09002A9E0900A74B4D8
:1037BF0017057410F080037402F0E4900A75F0900E
:1037CF000A751260FE12629CFD9002B3E0FCED6C74
:1037DF00705C1264279002B2E0FEEF6E7050FF90A3
:1037EF000A74E0FEEFC39E50131260DD8F821263E6
:1037FF0014FD1265F3E06D70030F80E3EF6E702E12
:10380F00900A7512604E1262BDC39D402112606B0B
:10381F00126275C39E4017900A75E0900A72F0A36A
:10382F00F0E4900A71F0900A75E004F0800D900AB0
:10383F007512621D7003A3E06F7084900A71E070BF
:10384F0034900A751260FE12629CFD9002B3E0FC88
:10385F00ED6C700C1264279002B2E0FEEF6E6015F3
:10386F00900A75E0900A73F0900A7512621E700349
:10387F00A3E06F70CC900A71E09002AD703A7407BC
:10388F00F0900A7212604E7401939002AE12606A49
:10389F00E4939002AFF0900A7312604E740193900C
:1038AF0002B012606AE4939002B1F09002A974051D
:1038BF0012608E7D0902035EE0FFA3E0FDA3E0FB33
:0B38CF00900A71E09009B8F012BB5A9B
:0138DA0022CB
:1038DB0090057EE06401704F9002AFE0900700F01E
:1038EB009002AEE0900701F09002B1E0900702F079
:1038FB009002B0E0FF900703F09002AD7408F090D7
:10390B000701E09002AEF0900700E09002AFF0A349
:10391B00EFF0900702E09002B11260807D0B120372
:08392B005E90057E7402F0229B
:103933009008EB12630370071264AC500C8005EE21
:10394300C39F5005E49008EBF09002AEE07009A32A
:10395300E070059008EB04F09008EBE07038740A0F
:10396300F0E4900901F090090112604E1262BDC3A8
:103973009D401912606B126275C39E400F9009013E
:10398300E09008ECF0E49008EBF0800A12621A7001
:1039930003A3E06F70D09008EBE0702D740AF090F1
:1039A300090112604E126502501F12606B1264B659
:1039B3005017900901E09008EDF0E49008EBF01245
:1039C300621A7003A3E06F70D69008EBE070229048
:1039D30002A9E0FFB407089008FF7402F08012EF19
:1039E300B415089008FF7410F080069008EB740477
:1039F300F09008EBE07074740AF09008EDE0FF902B
:103A030008ECE0D39F5064E4900901F09008FFE0D4
:103A1300900902F0126735FE6F603BA3E014F0904B
:103A230008ECE0126050C083C082900902E0FF12EC
:103A330063EBD082D08312611CFD1266696D600254
:103A4300801474EE2FF582E43408F583EEF09009C8
:103A530001E004F080BE1267356F70069008EBF04A
:103A630080099008ECE004F00239FD9008EBE06077
:103A730003023BCF9009007402F09009027406F030
:103A8300E4900901F09008EDE0FE9008ECE0FDD32E
:103A93009E4003023BCF9008FFE0049008FEF0CF66
:103AA300EDCF1250059008FFE06F70049008FEF010
:103AB30012673FFEC39F50259008ECE0126050EE62
:103AC3001263EB12611CFF74EE2EF582E43408F5E9
:103AD30083E06F70089008FEE004F080D312673F24
:103AE3006F6003023BC69008ECE0FF12501A900887
:103AF300EBEFF07018A3E0FF1260319008EBEFF0EA
:103B0300600B1260DD12BF829008EBEFF09008EBC0
:103B1300E06003023BCF9008ECE0FF125005EF1288
:103B230063EB9008ECE0FF1260FF1264302402FEA6
:103B3300FD125FE3CEEFCE900572E0FF2405FD900A
:103B43000902E0FCC3ED9CFDEEC39D50069008FE08
:103B5300EE800BEC64067074EF24FE9008FEF09088
:103B630008ECE0900901F0900901E060569008EC40
:103B730012604E740193FE9009021261D4EEF0902C
:103B83000902126068E493FF9009021261D412667D
:103B9300762402F09008FEE024FEF0E4FE9008FE96
:103BA300E060209008EC1260DE8E82126314FF90B6
:103BB30009021261D412667604F00E9008FEE01436
:103BC300F080DA9008ECE004F0023A889008EBE029
:103BD3007041900900E0126198A37409F090090103
:103BE300E0FF1250059009011260F71262F52402FA
:103BF300FF9002AEF0900572E024FEFEEFD39E40EC
:103C0300059002AEEEF0126099900900E02404FDE5
:103C130002035E9002ADE0FFA3E0FDA3E0FB90088A
:093C2300EBE09009B8F012BB5A65
:013C2C002275
:103C2D0090057EE0FF6402600DEF64036008EF64B1
:103C3D00046003023E01D244E4900ACFF0A3F012D7
:103C4D00643EE49312629C64287039740393640398
:103C5D007032FDFC12643E126075ED2408FFE43CE9
:103C6D001262C774B42D1265F6E0FEEF6E700B0D87
:103C7D00BD00010CED64104C70DAED64104C700455
:103C8D00C2448012900ACF126201900ACFE07004F4
:103C9D00A3E0640970A9304403023D839002AF1282
:103CAD0065771260A912655E9002B01260A0EF12E6
:103CBD0013309002B11265771260A9900005EF12D2
:103CCD0013429002B21260A0900007EF12134290BF
:103CDD0002B3E0FE1260A2900006EE121342902293
:103CED00F71260A512655E9002B3E0FF9022F71205
:103CFD0060A5EF12133090057EE004F0E0D394043C
:103D0D00504B1267499950271263F25003023D8FB1
:103D1D0090071EE0FF7007A3E07003023DFE1261E5
:103D2D00415006126178023DCB1261A7023DCB9046
:103D3D00071EE0FF7004A3E06010126141500512F0
:103D4D00617880031261A7023DCB023DFE90057E96
:103D5D00E064056003023E0190071EE0FF7007A3BB
:103D6D00E07003023E01126141500512617880033B
:103D7D001261A7023DCB126749D399504F1263F2DE
:103D8D0050249002AD7408F09002B2E0049002AE9F
:103D9D00F09002B3E09002AFF0A3EEF0A3E9126051
:103DAD00807D0B023DFB90071EE0FF7004A3E060D9
:103DBD0019126141500512617880031261A79002BA
:103DCD00A9740512608E7D098024802590071EE060
:103DDD00FF7004A3E0601A126141500512617880F2
:103DED00031261A79002A9740512608E7D0902036A
:043DFD005E12661CD0
:013E0100229E
:103E0200900A97126683900A9812604E1262BD6DF4
:103E1200700F12606B1262756E7006900A97F080D6
:103E22000D900A9812621D7003A3E06F70D8900A79
:103E320097E0700BA3E0FF12501A900A97EFF090F0
:103E42000A97E07018A3E0FF126031900A97EFF032
:103E5200600B1260DD12BF82900A97EFF0900A9712
:103E6200E0FE60081261DFEEF002BB5AE4900A99AC
:103E7200F0A304F0900A98E0FF125005EF1263EBF2
:103E8200900A98E0FF1260FF126430FE900A97F0E9
:103E9200FD125FE3900A97EFF0900A97E0FF900A15
:103EA20099E0FEC39F5024900A981260DE8E82121F
:103EB2006314FF74AE2E126753900A99E004F0A3C4
:103EC20012675D900A9AE0D39F40CE9002AD740BC8
:103ED200F0900A9AE0FF12608BEF2404FD12035E59
:013EE20022BD
:013EE30022BC
:103EE400C245900A3C126683900A3D12604E1262EB
:103EF400BD6D700F12606B1262756E7006900A3C95
:103F0400F0800D900A3D12621D7003A3E06F70D81B
:103F1400900A3CE0700BA3E0FF12501A900A3CEFA9
:103F2400F0900A3CE07018A3E0FF126031900A3C64
:103F3400EFF0600B1260DD12BF82900A3CEFF0904C
:103F44000A3CE0703BA3E0FF125005EF1263EB90D4
:103F54000A3DE0FF1260FF126430FE900A3FF0FD5C
:103F6400125FE3900A3FEFF0900572E024FDFEEF4C
:103F7400D39E500C9002B0E06006900A3C740BF0A3
:103F8400900A3CE07035900A3FE02401FFE433FEE0
:103F94009002B0E0FD7C001263DD4008900A3C749E
:103FA40007F08017ED6F7002EC6E700F740D1267DE
:103FB4006712608E7D0512035ED2453045030240D0
:103FC40043900A3CE0FE60081261DFEEF002BB5A47
:103FD400E4900A3EF0900A4004F09002B0E0900AA7
:103FE40041F0900A3EE0FF900A41E02FFFE433FEE7
:103FF400900A3FE0FDC3EF9D7480F86E98502B90BB
:104004000A3D1260DE8F828E83121303FF900A3EF4
:10401400E024AE126753900A3EE004F0900A401286
:10402400675D900A40E0D39F40B89002AD740DF0F4
:0F403400900A40E0FF12608BEF2404FD12035E40
:01404300225A
:014044002259
:094045001261DF7406F002BB5A9F
:01404E00224F
:10404F009008D212630370071264AC500C8005EE17
:10405F00C39F5005E49008D2F09002AEE07009A320
:10406F00E070059008D204F09008D2E0706A740AEC
:10407F00F0E49008E9F012604B1262BDC39D40144A
:10408F0012606B126275C39E400A9008E9E09008B7
:10409F00D4F0800D9008E912621D7003A3E06F70D9
:1040AF00D59008E91262207003A3E06F602A1260B6
:1040BF004B126502502212606B1264B6501A9008B0
:1040CF00E9E09008D5F0E49008D2F09008E9126288
:1040DF001D7003A3E06F70D69008D2E0702290029B
:1040EF00A9E0FFB407089008E77402F08012EFB45C
:1040FF0015089008E77410F080069008D27404F049
:10410F009008D2E060030241C67410F0E49008E911
:10411F00F09008E7E09008EAF09008E7E0FF9008D9
:10412F00E9E0FE6F601BA3E014F01266699008EAE5
:10413F00E024D6F582E43408F583EEF0126771803F
:10414F00D8EFB402169008D6E06428706AA3E0D3C3
:10415F0094015063E49008D2F0805C9008D8E0643A
:10416F00287054A3E0D39401504D9008D6E07047C7
:10417F00A3E070439008E97404F09008E9E0FFC3EE
:10418F009410501AE0FE9021AD93FD74D62EF58257
:10419F00E43408F583E06D700512677180DCEFB4CD
:1041AF001015E49008D2F09008D8E09008D6F0905F
:1041BF0008D9E09008D7F09008D2E07038740AF070
:1041CF0012668A5030125005EF640270209008D4A6
:1041DF001260FE12629CFD9008D6E06D700F1264A3
:1041EF00279008D7E06F70051243AC80089008D471
:1041FF00E004F080CB9008D2E0FE60081261DFEEA1
:10420F00F002BB5A9008E87402F09008EA7406F0C6
:10421F0012668A400302437F125005EF6402600367
:10422F000243769008D41260FE12629CFD9008D66D
:10423F00E0FCED6C60030243761264279008D7E030
:10424F00FEEF6E60030243761243AC600302437FBE
:10425F009008D4E0FF1250051263CB9008D4E0F918
:10426F001260FFFC740193FD1262F92404FF9008A1
:10427F00D3F0900572E02404C39FFF9008EAE0FE9C
:10428F00C39F400302437F9008D3E09008E6F0906D
:10429F0008D4E0FF8D828C83740193FD74A92E12D4
:1042AF0061D7ED1260641261CE1264C32402F01262
:1042BF0065FEE96F7001EE60449008D4E004900849
:1042CF00E9F01265FE9008E9E0FDC39FE49E5035CA
:1042DF0075F002ED12610212629CFD9008D6E0FCAF
:1042EF00ED6C70141264279008D7E0FEEF6E700823
:1042FF009008E9E014F0800D12677180C59008D422
:10430F00E09008E9F012604B740193FE1261D1EE58
:10431F001260641261CE1264C32402F09008E6E0CA
:10432F0024FCF0E49008D3F09008E6E060259008B4
:10433F00D41260DE9008D3E0F5821263141261D0BC
:10434F001264C304F09008D3E004F09008E6E01480
:10435F00F080D59008E9E0FF9008D3F0A3E0900833
:10436F00E9F09008D4EFF09008D4E004F002421F77
:10437F009002AD7411F09008E9E0FF12500590081B
:10438F00E91260F71262F524049002AEF09008E88B
:0C439F00E0FF12608BEF2404FD12035EAF
:0F43AB00229008D4E0FF12501A9008D2EFF022AF
:0143BA0022E0
:1043BB00126778900A42126683900A4312604E127B
:1043CB0062BD6D700F12606B1262756E7006900A93
:1043DB0042F0800D900A4312621D7003A3E06F70D0
:1043EB00D8900A42E0700BA3E0FF125068900A428B
:1043FB00EFF0900A42E0701DA3E0FF12500512632C
:10440B00CB900A431260FE1262F51263D340069002
:10441B000A42740DF0900A42E07051A312604E7480
:10442B00039364557046126456126072E493FF64F2
:10443B00206005EF64027034900A43E0FF75F002D0
:10444B00908B0E126056740393B4022075F003EF39
:10445B00908B991260E51212EA7008900A427481EF
:10446B00F08009300F06900A427480F0900A42E007
:10447B00702DA3E0FF126031900A42EFF060201222
:10448B0060DDEBC0E0EAC0E0E9C0E0126697D0E087
:10449B00F9D0E0FAD0E0FB12BE29900A42EFF0907F
:1044AB000A42E0FE60081261DFEEF002BB5AE490B4
:1044BB000A44F01264F0FF900A44E0C39F501112BB
:1044CB00645E900A431260DE12677F12678880E396
:1044DB00900A43E0FF75F002908C651260567401F0
:1044EB009330E232900A44E0FEEEC0E01250051227
:1044FB0063CB900A43E0FD1260FFFA7401932FF532
:10450B0082EA1262CF75F003ED1260E28F8275833F
:10451B0000D0E01213421264EE900573F0900A4340
:10452B001260DE90098712164774131267671260C8
:10453B008E7D0512035E12650E500302472CE4902C
:10454B000A44F0900A441264D04034900A43E0FECF
:10455B00126050E493FD12626D12634EE4936D7022
:10456B0018EE12606C740193FF900A44E012636AB8
:10457B001260567401936F600612678802454E12E3
:10458B0065CA7003A3E06F700302472C1261C71258
:10459B00472D1212EA600302472C1261C7124739EA
:1045AB001212EA70030246F11261C712472D126113
:1045BB00C77F081250B6900A451216471260F17069
:1045CB0050907E8293F470030246957F0212578BB4
:1045DB00E4900A43F0126531500A126160740412C0
:1045EB00646D80F1126778C2AF1260CD7F007E7E62
:1045FB00122111E4900A43F0126531500A126160E6
:10460B00740512646D80F11260CD7F807E7E024650
:10461B008C900A451260EEFF907B821263C5E49387
:10462B00F46067EF14FF30E061605FC313FF125754
:10463B008BE4900A43F01265315010900A451260DA
:10464B00EE24FE12615F12646C80EB126778C2AFCE
:10465B00900A451260B8122111E4900A43F01265DA
:10466B0031500F900A451260EE1412615F12646CA8
:10467B0080EC900A451260EE75F080A424801260E5
:10468B00C7122111E50D24FF92AF12AEC4900A455B
:10469B0012678F7051900A44F0900A44E0FFD39058
:1046AB00059EE09F1264D9403DE4900A43F01263EB
:1046BB00651260561266B850121265D41260E5127C
:1046CB006227EF12134212646E80E312625D126076
:1046DB00721261BE1247451261C712473912AEC43E
:1046EB001267880246A41265CA7003A3E06F60319B
:1046FB00E4900A43F01263651260561266B85012CA
:10470B001265D41260E5126227EF12134212646E27
:10471B0080E312625D1260721261BE12474512AEE7
:01472B00C4C9
:10472C00227F051250B6900A45121647227F0712B7
:10473C0050B6900A45121647227F091250B6900ABD
:05474C00451216472292
:014751002245
:094752001261DF7406F002BB5A8B
:01475B00223B
:09475C001261DF7480F002BB5A07
:014765002231
:10476600D246900AD17401F0900AD1E0FF1262ADF0
:104776001212EAFE9002AFE06E7013EF1262AD12F3
:1047860060F1FF9002AEE06F7004C246800A900AA4
:10479600D1E004F0E0B409D0204644E4900AD2F017
:1047A6001264F0FF900AD2E0C39F502112645E1299
:1047B60062A9E92403F9E43AFAEF7C0029F9EC3A14
:1047C600FAEE121330900AD2E004F080D3D21B1214
:0F47D60064F0900583F01262A9900994121647BF
:0147E50022B1
:0147E60022B0
:0347E700C20F22DC
:1047EA00A2AFE433F50E900A48126683900A491282
:1047FA00604E1262BD6D700F12606B1262756E7040
:10480A0006900A48F0800D900A4912621D7003A3AF
:10481A00E06F70D8900A48E0700BA3E0FF1250686E
:10482A00900A48EFF0900A48E0701DA3E0FF12508A
:10483A00051263CB900A491260FE1262F51263D325
:10484A004006900A48740DF0900A48E0702DA3E0E3
:10485A00FF126031900A48EFF060201260DDEBC071
:10486A00E0EAC0E0E9C0E0126697D0E0F9D0E0FAE9
:10487A00D0E0FB12BE29900A48EFF0900A48E060A7
:10488A0003024B34E4900A4AF01264F0FF900A4A99
:10489A00E0C39F501112645E900A491260DE1267EB
:1048AA007F12679580E3900A49E0FF75F002908CC9
:1048BA006512605674019330E232900A4AE0FEEEC5
:1048CA00C0E01250051263CB900A49E0FD1260FF66
:1048DA00FA7401932FF582EA1262CF75F003ED1292
:1048EA0060E28F82758300D0E01213421264EE9068
:1048FA000573F0900A491260DE9009871216471272
:10490A00650E5003024B34E4900A4AF0900A4A12A8
:10491A0064D04036900A49E0FE126050E493FD12DA
:10492A00626D12634EE4936D701A1266B012607271
:10493A00740193FF900A4AE012636A126056740186
:10494A00936F6006126795024916900A4A1265CD5E
:10495A007003A3E06F7003024B341261C7124B3528
:10496A001212EA6003024B341261C7124B4112124F
:10497A00EA7003024AE51261C7124B351261C77F1A
:10498A00081250B6900A4B1216471260F1703C900A
:10499A007E8293F47003024A3F124B6612635C50A4
:1049AA000812616012634480F312662A1260CD1203
:1049BA004B4D12635C500A126160740512634680A3
:1049CA00F11260CD7F807E7E024A3C1260EBFF7559
:1049DA00F080907B82121632E493F46058EF14FF51
:1049EA0030E0526050C313FF12578BE4900A49F02B
:1049FA0012635C500E1260EB24FE12615FEE1263CA
:104A0A004680ED12662A900A4B1260B8122111E410
:104A1A00900A49F012635C500D1260EB1412615F48
:104A2A00EE12634680EE1260EB75F080A4248012C9
:104A3A0060C7124B7112AEC41260EB7039907E825D
:104A4A0093F46032124B6612635C50081261601272
:104A5A00634480F312662A1260CD124B4D12635CD6
:104A6A00500A126160740512634680F11260CD7FAC
:104A7A00807E7E124B71900A4B12678F705D900A8E
:104A8A004AF0900A4AE0FFD390059EE09F1264D94B
:104A9A004049E4900A49F0900A4A12636812605643
:104AAA001266C450181265D41260E5126312900A95
:104ABA004B126232EF12134212634780DA900A4AAB
:104ACA001262601260721261BE124B5A1261C712F0
:104ADA004B4112AEC4126795024A8C900A4A12657B
:104AEA00CD7003A3E06F6042E4900A49F0900A4A4D
:104AFA001263681260561266C450201265D412609E
:104B0A00E5126312FFED2406FDE433FC900A4B1212
:104B1A00623AEF12134212634780D2900A4A126233
:0A4B2A00601260721261BE124B5A55
:104B3400227F051250B6900A4B121647227F0712A5
:104B440050B6900A4B121647227F007E7E12211126
:104B5400E4900A49F0227F091250B6900A4B1216CB
:104B640047227F0212578BE4900A49F02212211146
:074B7400E50E24FF92AF22C1
:014B7B002217
:014B7C002216
:104B7D00302206200A03024C369002AEE0900575F5
:104B8D00F09002AFE0900576F09002B0E090011643
:104B9D00F09002B1E0900113F09002B2E090057731
:104BAD00F09002B3E0900578F090BF28E493FF9069
:104BBD000116E04F20E203E4801D900575E0FF90A3
:104BCD00BF26E49375F005A42423F582E43422F581
:104BDD0083E5822F1262EB900115F0900113E0FF37
:104BED00D394064029EF941150247BFF7ABF79218D
:104BFD0090BF21E4932404FD12035E12BF63900164
:104C0D0015E060199005677428F0D233800F126299
:104C1D00087405F0A304126098FD12035E900566FA
:104C2D007401F0E4900579F02220390302032E126D
:0E4C3D0062087405F01260977D0612035E2275
:014C4B002246
:104C4C00E4FF900579E07019126129126324B41005
:104C5C00F79005797401F0900567E06005E4FF803A
:104C6C00010FEF60587BFF7A2179CD90088A1216DC
:104C7C00477B017A04795312A500E4FFEFFD740F12
:104C8C0012612D74672FF582E4340912632CB41071
:104C9C00EB741112620A7403F0E4FF74672FF5824F
:104CAC00E43409F583E012679C12632CB410EC1207
:0D4CBC0060997D1512035E9005667402F08C
:014CC90022C8
:104CCA00E4900945F0900945E0FF12612A74462FE5
:104CDA00F582E434091264F7E0B410E97B017A0939
:104CEA00794690088A1216477A04795312A50090D9
:104CFA000579E064016003024DB6900945F0900918
:104D0A0045E0FF6410601CE0FE2443F582E43404AD
:104D1A00F583E0FD74A92E1261D7E06D7005126467
:104D2A00FB80DBEF6410706D9002A9741112620DA2
:104D3A007404F0E4900945F0900945E0FFFDC3745E
:104D4A000F9DFDE49400FC74CD2DF58274213CF591
:104D5A0083E49312679C1264F7E0B410DB12609943
:104D6A007D1512035EE4900945F0900945E0FF24A1
:104D7A0046F582E43409F583E0FE74432FF582E4B4
:104D8A0034041264F7E0B410E19005797402F0E497
:104D9A00900114F022D21D1262087405F0A31412B5
:0C4DAA0060987D0612035EE4900579F02D
:014DB60022DA
:104DB700D21D900582E0B41F0A9002AEE0B408034A
:044DC700124FE8227D
:0B4DCB00E4FF126129126324B410F70A
:014DD60022BA
:104DD700E4FFEFFDC3740612612E74F52FF582E42C
:104DE700340212632CB402EAE4FFEFFDC3740D1220
:104DF700612E74ED2FF582E4340212632CB408EAB5
:014E07002288
:104E0800E4FF12612974632FF582E4340412632CE1
:034E1800B410EFE4
:014E1B002274
:104E1C009002AEE0600122E4900931F0900931E09B
:104E2C00FF24AFF582E43402F583E0FE74342FF5F1
:104E3C0082E43409F5831267A6B406E0D22F9009F8
:104E4C0039E0FFE4FCFDFEA31215F51266D09009C3
:104E5C00381263711266D090093712637190093F52
:104E6C007402F0A3743BF090093FE0C313F0A3E08D
:104E7C0013F0E4A3F0A3F0A37402F0A3743BF0E4EA
:104E8C0090093EF01265DC7802C333CE33CED8F9EC
:104E9C0012653AC3121582501C1265DCFF9009434F
:104EAC00EEF0FCA3EFF090094112638C7002EE6CF3
:104EBC007037024F101265DC7802C333CE33CED874
:104ECC00F912653AD312158240171265DCFFA3EE76
:104EDC00F0FCA3EFF0A312638C7002EE6C700A80EE
:104EEC002390093E7401F0801B90094112631D90C0
:104EFC000944E09FFF900943E09EFED3EF9400EE3F
:104F0C009400508090093EE07003024FD31261C7A9
:104F1C007F051250B61212EA6003024FD31261C71A
:104F2C007F061250B61212EA6003024FD31260F1E0
:104F3C00126242FCEF6C70089009327404F0802706
:104F4C001263336C70089009327444F0801912604B
:104F5C00F112640B126251FEEF6E900932700574FF
:104F6C0084F0800374C4F0E4900931F0900931E0CE
:104F7C00FF2463F582E4340412615C1267A6B4105A
:104F8C00EB1260F11313543F900933F07F011220A0
:104F9C003DA2AFE433F50FC2AF900933E0FE9009A8
:104FAC0032E07C002400FFEC3EFEEF242AFFEE34BE
:104FBC007A1266337410F0122111E50F24FF92AFB0
:074FCC00E4FF12203DD22C8E
:014FD30022BB
:104FD400E4FF12612974732FF582E4340412632C04
:034FE400B410EF17
:014FE70022A7
:104FE800900566E07016126208740BF090BF28E412
:0D4FF800939002AE1260987D0612035E22B7
:105005001264561260727401935403B401047F0252
:0450150080027F1086
:015019002274
:10501A00126456126072E493FFE4FEEF5455700472
:10502A007E028036EF30E60890057AE070027E084C
:10503A00EE700BEF30E40712650E50027E05EE703B
:10504A0019EF30E21590057BE070047E0F800B901B
:0D505A000113E0C3941050027E0CCFEECF86
:015067002226
:10506800126456126072E493FFE4FEEF54AA7004CF
:105078007E038036EF30E70890057AE070027E08FC
:10508800EE700BEF30E50712650E50027E05EE70EC
:1050980019EF30E31590057BE070047E0F800B90CC
:0D50A8000113E0C3941050027E0CCFEECF38
:0150B50022D8
:0650B600900A10121647DB
:1050BC00A2AFE433F510EF1216CB53910150E50279
:1050CC0051010351200452F60554D106558107565F
:1050DC00620856E4090000577DE4900A13F012644C
:1050EC00E09402502C125850900A13E0FF125915FC
:1050FC0012654C80E9E4900A13F01264E0940350BA
:10510C001012578B900A13E0FF12596712654C80EE
:10511C00E90252EF1261727401121330E4900A1317
:10512C00F0900A13E0C3940240030252E4E0FD75D0
:10513C00F004A4FFAEF0900A16EEF0FAA3EFF0FB29
:10514C00E412648FED1265531262CF6B7001EA604A
:10515C0033EFF470030252E41265E404F0900A1485
:10516C001262959440EC9400500B12610BB4FF0545
:10517C001261FE80E8900A14E07004A3E0644060C1
:10518C00030252E412664112671B1262CFFD900AB1
:10519C0017E02401FB12647CFAEB6D7001EA6034B9
:1051AC00EFF470030252E41265E47441F0900A14B7
:1051BC001262959480EC9400500B12610BB4FF05B5
:1051CC001261FE80E8900A14E07004A3E064806031
:1051DC00030252E41266411267131262CFFD900A69
:1051EC0017E02402FB12647CFAEB6D7001EA603468
:1051FC00EFF470030252E41265E47481F0900A1427
:10520C0012629594C0EC9400500B12610BB4FF0524
:10521C001261FE80E8900A14E07004A3E064C060A0
:10522C00030252E412664112670B1262CFFD900A20
:10523C0017E02403FB12647CFAEB6D7001EA602F1B
:10524C00EFF470030252E41265E474C1F0900A1496
:10525C00126295EC9401500B12610BB4FF051261B4
:10526C00FE80EA900A14E064017002A3E070699079
:10527C000A14E0FFA3E0A3CFF0A3EFF0900A1612FC
:10528C00631DEE9401503FEF243EFFE43E900A1460
:10529C00F0A3EFF0126475900A141262949FEC9EC6
:1052AC00500B12610BB4FF051261FE80E71264759E
:1052BC00FE900A14E06E7003A3E06F7009900A165A
:1052CC001266DB025288900A14E0B4010BA3E0B41E
:1052DC00000612654C02512D900A13E06402600323
:1052EC0002577D126172E40256F812617212660D59
:1052FC001264E0940250691261F31266E2FDF460EC
:10530C000B1262E2EDF012670A02535C1261EE12AC
:10531C0064133EF583E493FDF4600A1262E2EDF04F
:10532C00126712802B1261EE126338FDF4600A12C0
:10533C0062E2EDF012671A80171261EE12664B3EB4
:10534C00F583E493FDF460121262E2EDF0126556FF
:10535C001262CF1265E4EFF0800612654C0252FC2B
:10536C00900A16E0FEA3E0FF4E70081261727404FE
:10537C000256F8900A14A3E0126171ED12655F9069
:10538C00000202565E12617212660D1264E0940203
:10539C00400302545D1261F31266E2F46042EF24A2
:1053AC00C2F582747A12616B1264E712670A3EF5D9
:1053BC0083E4930412655F1264E074019FFF12583A
:1053CC00501264E074019FFF125915900A16126076
:1053DC00D6900A13E0FF6079C374029FF002545D0B
:1053EC001261EE1264133EF583E493F460141264BC
:1053FC001212616B1264E71267121262D674C20247
:10540C00544D1261EE126338F46017EF2442F582AA
:10541C00747A12616B1264E712671A1262D6748284
:10542C00801F1261EE12664B3EF583E493F4601B11
:10543C0012664A12616B1264E71265561262D674D8
:10544C0042F01264E074019FF0800612654C025326
:10545C0097900A16E07002A3E07013126172740147
:10546C001264E8900A161260D6E4900A13F01261E6
:10547C0072126257700790000204121342900A13C2
:10548C00E01265533EF583C083C082900A16E0FC9F
:10549C00A3E0FDD082D083258212611FF4900A1004
:1054AC00600812163E74030256F812163E1262572A
:1054BC00126516900A13126483347ACF2DCF3C12E6
:1054CC0060CC02577A12617212648B900A141262C9
:1054DC0095EC9401400302556A900A101260EE1389
:1054EC0013543F7F00FE12664A126119FF1261725B
:1054FC00126257FEEF6E705D900A13F0900A13E083
:10550C00FDC3943A5058900A101260EE1313543F96
:10551C007F00FEEF2404F582747A3EF583C083C0CD
:10552C0082EDFF900A15E02FFF900A14E03400FE84
:10553C00D082D0831262C8126172E92403F9E43A72
:10554C00FA900A13E07C0029F9EC3AFAEF121330C6
:10555C0012654C80A7900A141266DB0254D7900A8D
:10556C0014E064017002A3E0600302577D126172C3
:10557C0074050256F8126172E4121330900A13F09B
:10558C00A3F0A3F0900A1412631D9406EE9400503D
:10559C002F126172126257FD1266EEFEEF7807C38E
:1055AC0033CE33CED8F91266F66D700F900A14E034
:1055BC007002A3E0700A900A1304F01261FE80C41A
:1055CC00900A13E0B4010EA3E07004A3E06405603C
:1055DC0004E412648F12665264064E7008126172F3
:1055EC0074040256F81266EE900A14F0A3EFF0124F
:1055FC00617212655E900A137405F0900A13E0FD57
:10560C00C394805031A3E0FEA3E07807C333CE33BC
:10561C00CED8F92400F582747C3EF583E5822D12F8
:10562C0062EBFFF4600A900A13E02F2402F080CBA7
:10563C00900A13E014F0900A13E0C3947C40081213
:10564C0061727406121330900A13E0FF12617290AB
:10565C000003EF0256DE12617212648B900A141270
:10566C00631D9406EE940050191266EEFEEF780757
:10567C00C333CE33CED8F91266F6B4FF051261FEF1
:10568C0080DA12665264064E700512648F8012EF37
:10569C004E600EC374069F900A15F0E49E900A1497
:1056AC00F0126652126171900001ED1213421262F7
:1056BC0057126516EF7807C333CE33CED8F92402D0
:1056CC00FFEE347C1260CC12578112617290000391
:1056DC00740412134202577D126172E412133012D9
:1056EC0061721265C4C3947C4008740612133002B4
:1056FC00577DE412648F126172900005121303122D
:10570C0063CC900A14E0FCA3E0FDD39FEC9E501AEE
:10571C0074042DF582E43CF583121303FF74432DBE
:10572C00126163EFF01261FE80CC900A101260EEF1
:10573C00FF1265C4FD12651CEF75F080A42400FFF8
:10574C00E5F0347CFE7C00EF2DFFEC3EFEEEC0E07D
:10575C001261729000051213032402FEEC33900ABE
:10576C003AF0A3CEF07B017A037943D0E0FE1257D6
:04577C0081126172C3
:0B57800022122111E51024FF92AF223D
:03578B00900A9BE6
:10578E00126420F511E4900A9EF0301635303F1465
:10579E0012631A9406EE9400500280129005E0E017
:1057AE0024E1802412631A9404EE9400500C1263C8
:1057BE00A7900A9CF0A3EFF0801C9005E0E024E790
:1057CE0080069005E0E024F0FE9005DFE034FF90C7
:1057DE000A9CF0A3CEF0126565900A9DE09D900A9A
:1057EE009CE09C502712AE241296D512BFA69005AF
:1057FE008D126201900A9E126280900A9D1267B00D
:10580E00900A9CE09E5005E4900A9EF0A2AFE4330D
:10581E00F511C2AF7F0112203D900A9B12648334B2
:10582E007CFE12204EE4FF12203DE51124FF92AFC4
:10583E00900A9EE0B4010A902062E030E503126601
:01584E00A3B6
:01584F002236
:03585000900A9F1C
:10585300126420F512E4900AA2F0301635303F149A
:1058630012631A9406EE9400500280129005E0E051
:1058730024E1802412631A9404EE9400500C126302
:10588300A7900AA0F0A3EFF0801C9005E0E024E7C6
:1058930080069005E0E024F0FE9005DFE034FF9001
:1058A3000AA0F0A3CEF0126565900AA1E09D900ACC
:1058B300A0E09C502712AE241296D512BFA69005E5
:1058C3008D126201900AA2126280900AA11267B03F
:1058D300900AA0E09E5005E4900AA2F0A2AFE43340
:1058E300F512C2AF7F0112203D900A9F12648334E8
:1058F3007AFE12204EE4FF12203DE51224FF92AF00
:10590300900AA2E0B4010A902062E030E503126637
:01591300A3F0
:015914002270
:03591500900A767F
:10591800126420F513E075F004900A7912641AF500
:1059280013C2AFE4900A77F0A3F0900A7712629559
:10593800EC940150231267BA900A76126483347A81
:10594800CF2DCF3C1260CC122111900A791262013E
:0E595800900A771266DB80D2E51324FF92AF2F
:01596600221E
:03596700900A7B28
:10596A00126420F514E075F002900A7E12641AF5AA
:10597A0014C2AFE4900A7CF0A3F0900A7C126295FC
:10598A00EC940150271267BA900A7B126483347C24
:10599A00CF2DCF3C1260CC122111900A7E126201E7
:1059AA00900A7CE475F0801213CB80CEE51424FFB4
:0259BA0092AFAA
:0159BC0022C8
:1059BD00A2AFE433F5151261C77F051250B612126E
:1059CD00EA6003025A8B1261C77F061250B612129B
:1059DD00EA6003025A8B1260F1126242FCEF6C70A6
:1059ED0008900ADB7404F080271263336C70089002
:1059FD000ADB7444F080191260F112640B126251CB
:105A0D00FEEF6E900ADB70057484F0800374C4F0B1
:105A1D00E4FF740D2FF582E4340112615CEEF00F9A
:105A2D00EFB41AEE7F1A74D62FF582E434051261A5
:105A3D005CEEF00FEFB420EE7F2074232FF582E49F
:105A4D00340512615CEEF00FEFB42AEE1260F11323
:105A5D0013543FFFA2AFE433F515C2AFEF126484C8
:105A6D00347AFE900ADBE07C002FFFEC3E126633A9
:0E5A7D00742AF0122111E51524FF92AFD229F0
:015A8B0022F8
:105A8C0012650E5003025B7A1261C77F05125B7BB5
:105A9C006003025B7A1261C77F07125B7B64047040
:105AAC0003025B7A900A817405F0900A8212163E0A
:105ABC001265C4FF900A81E0FEC39F4003025B7A2B
:105ACC001260F11263C2E5822E1262EBF460DBE429
:105ADC00900A80F0900A821260EEFF1263C2C083BB
:105AEC00C082900A81E0FED082D0831262E9FD90E0
:105AFC000A80E0FCC39D505175F080EF907C011240
:105B0C001632ECFDEE2DFFE4331262C7900A8212BE
:105B1C0060EE75F080907BFF121632C083C08290CD
:105B2C000A81E0D082D0831262E975F003908CF187
:105B3C001260E5900A80E0F582758300EF12134243
:105B4C00900A80E004F0025AE0900A821260EE1291
:105B5C0063C2C083C082900A81E0FFD082D08312DE
:0E5B6C0062E9FEEF2E2402900A81F0025AB682
:0E5B7A00221250B6900A821216471212EA2228
:065B88009009F31216471C
:105B8E00E49009FAF090054FE064036003025D7241
:105B9E00300803025D6A301403025D6A9009F61242
:105BAE00678F9009FCF01260F114FFB4FF069009A4
:105BBE00FCE014F0D247E49009FBF09009FBE0FE04
:105BCE00126050E493FD9009FCE0FCED6C70101235
:105BDE0066B01260567401936F7004C24780101243
:105BEE00672EE0FD90059BE07003A3E06D70CC3056
:105BFE004703025D629009FB12604E740593FE200E
:105C0E00E403025CA875F003EF908B9C1260E51222
:105C1E0012EA30E07C9009FBE075F002908C67127E
:105C2E006056126722BF01057402F080069009FDCE
:105C3E007410F09009F9E0FFD394005003025D4216
:105C4E001263E79009F612623A121303FDEFD39D29
:105C5E004003025D42741B12665B12619B1260F17F
:105C6E001265881267C4FDC39F501A9009F312166D
:105C7E003E126312FC74122DF582E43405F583ECAA
:105C8E0012672D80DEEF2407900580F0D208025DAA
:105C9E00789009FA7416F0025D78EE20E503025D45
:105CAE005A9009FBE0FF75F003908B9C1260E51291
:105CBE0012EA20E103025D52300F03025D4A75F0D5
:105CCE0002EF908C67126072126722BF0105740298
:105CDE00F080069009FD7410F09009F9E0FFD3945E
:105CEE000040511263E79009F612623A121303FE56
:105CFE00EFD39E503F741D12665B12619B1260F1D2
:105D0E001265881267C4FEC39F501C9009F31216C9
:105D1E003E8E82126314FD74122EF582E43405F564
:105D2E0083ED12672D80DCEF2407900580F0D20FF3
:105D3E00D20880369009FA741BF0802E9009FA74FE
:105D4E000CF080269009FA7417F0801E9009FA74F0
:105D5E000BF080169009FA7408F0800E9009FA7410
:0F5D6E000AF080069009FA7415F09009FAE0FF28
:015D7D002203
:095D7E00C23690098712163E227C
:065D8700900573E0FF220D
:105D8D00E4FF90054FE0B40320203B16900582E020
:105D9D00B41C0FD23BE490057EF0900582741DF08B
:0B5DAD008009900582E0FF80027F1556
:015DB80022C8
:105DB900900582E0FEB41E14900586E0D394145039
:0F5DC9000BE004F0C23B900582741CF0CFEECFCC
:015DD80022A8
:105DD9009002AD7406F0740112621374FFF012623E
:105DE900137428F07417126198FF902242E493FE0D
:105DF900EFC39E500CEFA393FE1265F3EEF00F80F4
:0F5E0900E91260997D1B12035E90057E7401F013
:015E18002267
:105E19001265EBB41F11303B047F23800DD23B90F8
:0A5E2900057E740BF08003CFEECF6E
:015E3300224C
:105E34001265EBB41F11303B047F23800DD23B90DD
:0A5E4400057E740CF08003CFEECF52
:015E4E002231
:105E4F00900567E0FFC3940C4006EFD39411400513
:105E5F00EF6406703C90057EE0640B701312619046
:105E6F001265999007757401F09002B0F0E48017F5
:105E7F0090057EE0640C7019126190126599E490A0
:105E8F000775F09002B0F01260977D0912035EC2A1
:025E9F003B22A4
:105EA1001265EB641F701F900717E07008A3E07084
:105EB100047F208014303B047F23800DD23B90056A
:095EC1007E740DF08003CFEECFDA
:015ECA0022B5
:105ECB001265EB641F701F900717E07008A3E0705A
:105EDB00047F208014303B047F23800DD23B900540
:095EEB007E740EF08003CFEECFAF
:015EF400228B
:105EF500900567E0FFC3940C4006EFD3941140056D
:105F0500EF6406703C90057EE0640D70131261909D
:105F15001265AA90071C7401F09002B0F0E4801796
:105F250090057EE0640E70191261901265AAE490E6
:105F3500071CF09002B0F01260977D0912035EC253
:025F45003B22FD
:095F4700C21B90099412163E22BF
:065F5000900583E0FF2232
:035F5600CAEFCAC5
:105F5900E4FE90054FE06403707A900582E0FD64E9
:105F69001F706C90078FE0FC7008A3E070047E211D
:105F79008064201A56902297E493FBEAD39B5047FA
:105F89009004EF7412F0EA24039004EB12619B90E1
:105F99000790E09004F0F0A3ECF0E4FFEFC39A500F
:105FA9001B74922FF582E43407F583E0FC74F22F19
:105FB900F582E43404F583ECF00F80E0EA240790DD
:105FC900057FF0D21A800F7E1B800B7E228007CEC0
:095FD900EDCE80027E15CFEECF63
:015FE200229C
:105FE30012645612634E74019330E20B75F003EFA3
:0B5FF3001260E2126312FDCFEDCF221E
:105FFE00900AA31215F5900567E0B42811900AA334
:10600E001215CD90045F1215F5E4900567F0D20ECF
:03601E00C2332268
:10602100300E0C900579E0B40103124C4CC20E22E3
:1060310012645612607274019330E3037F01227F70
:0260410000223B
:08604300C22FA22CE433FF225E
:10B93200080C1014181C2024282C30383C40444891
:10B942004C5054585C6064686C7074787C80848855
:10B952008C9094989C0434A0000000000000000128
:10B962000418031802180F1800000000000000005D
:106CFA009009D8E0FCA3E0FD25E0FFEC33FE740C1C
:106D0A002FF582748B3EF583E493FE740193F5822A
:106D1A008E8322E0FF24CBF582E43404F583E0FE7F
:106D2A0074852FF582E43420F58322900A541216D2
:106D3A003E900A58E0FFF582758300121303FE7431
:106D4A00A92FF582E43402F583EEF0900A58E0FFA9
:106D5A0024A9F582E43402F583E0FEE42FF582E407
:106D6A003422F583223CF583E0FE74432FF582E456
:106D7A003405F583EEF09008ADE004F0223EF58389
:106D8A00EDF0900A20E475F0010213CB748D2FF513
:106D9A0082E43408F583E0FE749D2FF582E434081A
:106DAA00F583E06EFE74A92FF582E43402F583229E
:106DBA009002CBE090204EF09002CCE02404902088
:106DCA004DF074869020A5F0900062229009D0E0E0
:106DDA00FFFD7405C39DFDE49400FC2290055DE06F
:106DEA0033333354F8FE900569E0C454F04EFE90F4
:106DFA00055EE025E025E0223CF583E493FE74AECF
:106E0A002FF582E43402F583EEF0900956E004F09F
:106E1A00229005C2E0FE9005C1E07C002400FFEC50
:106E2A003E900978F0A3EFF0900978E0FEA3E0FF26
:106E3A007C0B7D721216F1E47B9B7A3BF9F81214F3
:106E4A00BF9009801215F5A23FB3E4FCFDFE33FFA3
:106E5A009009801215E9121434900978CDEFCDCC3F
:106E6A00EECCE0FEA3E02290055DE033333354F824
:106E7A00FF900569E0C454F04FFF90055EE0FE25DF
:106E8A00E025E04F44029002CBF0900A57E09002CE
:106E9A00CCF090204DF09002CBE090204EF022E012
:106EAA00FF9009D8E0FCA3E0908B9675F0031216C8
:106EBA0032EC75F003A42583F583021650FF90097E
:106ECA00D0E0FE9009D3E0FCA3E02EF582E43CF585
:106EDA0083EFF09009D0E004F0229005C4E0900519
:106EEA00C3FEE07C002400FFEC3E22E0FE90055F3A
:106EFA00E075F020900169121632E5822FF582E4DE
:106F0A003583F5832274119002A9F0E4A3F0740684
:106F1A00A3F0E4A3F0A3229002CAE090204DF074FB
:106F2A00049020A5F09000622275F002EF908B0C7D
:106F3A00121632E493FC740193F5828C8322900931
:106F4A00D0E0FFFDC374FF9DFD740294008D82F5AD
:106F5A0083E493FE221213037E00FF900A8DEEF063
:106F6A00A3EFF02290054EE0C3940122900A20E09C
:106F7A00FEA3E0FF22F583E0FE748D2FF582E43450
:106F8A0008F583EEF00FEF224EFE9002C9E054039B
:106F9A004E900552F090204EF0900567E0FEC394A3
:106FAA000C221215CDEF2401FFE43EFEE43DFDE480
:106FBA003CFC22131313541F24C7F582E43405F54D
:106FCA00832274F02DF58274053CF583E0FE74D3B8
:106FDA002FF582E43400F583E022F9E43AFA9008C6
:106FEA00ADE0FF7C0029F9EC3AFA0212EAC23DC28E
:106FFA0021E490054FF0902062F0900056F0229024
:10700A00055DE033333354F8FF900569E0C454F06A
:10701A004FFF90055EE0FE25E025E04F4403900215
:10702A00CBF0900A5D22E0FE74CB2FF582E43404A3
:10703A00F583EEF022E4900A20F0A3F022900A5A97
:10704A0012163E900A5EE0FFF58275830002130372
:10705A00A3F07B017A0279A9227410902061F09042
:10706A000055F0229002CAE0240490204DF02290AC
:10707A0020A5E054C0900568F022E0FE74332FF595
:10708A0082E43405F58322902000E0540322E0FED6
:10709A0074CD2FF582E434022274A92DF58274028C
:1070AA003CF583E0FE2274269020A5F0900062222F
:1070BA009008ADE0FF2483F582E43404229002CAEA
:1070CA00E0FEEFC39E22900A89E025E0FF900A883D
:1070DA00E0223EF583E493FD2290058FE0FEA3E0D3
:1070EA00FFC3224E4401900552F090204EF09020AA
:1070FA004DE4229020A57401F02274F1902062F0F0
:10710A0090005622C22EE4900569F090055CF022A8
:10711A00EEF0900AAFE004F02290059BE0FEA3E0B7
:10712A00FF9009D8E06E22900560E004F090055FB8
:10713A00E004F0E02290055DE0FFA3E0FD22900864
:10714A00ADE0FFFDC322900AABFDE02FF582E43EDD
:10715A00F583EDF022900979E02FFF900978E03E5F
:10716A00FE0216F1D23A90097EE0FFA3E0CF900525
:10717A00E4F0A3EFF02274A290204CF0900048F0C3
:10718A0022741290201AF090001AF02274069020AD
:10719A00A5F0900062F022E5822FF582E5833EF5A4
:1071AA0083E493FF908B9675F003229009D0E0FF59
:1071BA0024BBF582E43405F583E0FEEFFDC322FE2D
:1071CA00740D2FF582E4340122E0FE75F003EF908E
:1071DA008B96121632121650EE02133025E0245501
:1071EA00F582E43401F5832225E02456F582E4345D
:1071FA0001F5832290058EE02401FF90058DE0348D
:10720A0000FE900599E06E227A002400FFEA3EF023
:10721A00A3EFF022F583EEF09008ADE0FF2290BFD5
:10722A002BE493FF900578E05F22E4900A88F0A3AC
:10723A00F022900A88E0FEA3E0FF2274F02FF58284
:10724A00E4340522900A8A02163E9009D0E0FF240F
:10725A00CDF582E43400F58322902069F090005D38
:10726A00F0227406F09020007408F0229020A5E025
:10727A00540122EF2408FDE433FC12163E8D828C61
:10728A0083121303FE22900956E0FFFDC3740F22F6
:10729A00EFF09005A50215CDEFF09005A90215CDE6
:1072AA00E0FE74832FF582E4340422EFF09005ADFA
:1072BA000215CD7B017A0379032290054FE064021F
:1072CA002290206274C1F0229009D0E0FF75F00686
:1072DA00A42290206274D1F022900566E064032211
:1072EA0024FFFFEE34FFFEEF2DFFEE3C22900A57FB
:1072FA00E0FFA3E0C39F22E0FF2443F582E43405C4
:10730A00F583229008ADE0FF24A922F0E490095603
:10731A00F022E4FEFDFC9005A11215E9C3021582D4
:10732A0074E62FF582E43405F583229002CAE090D0
:10733A00204DF0E4FF227B01A3121647E422B3E4B6
:10734A00FCFDFE33FF1215E902143490058DE0FEB0
:10735A00A3E0FF22EEF0900ADEE004F0229001138F
:10736A00E0FFD39410227405F0E4A3F0A322C3EF44
:10737A009DFFEE9CC313FEEF13FF2290202074148E
:10738A00F0229020207494F0229DFD742094008DA8
:10739A0082F583EEF0229020A5E054C0229008AD39
:1073AA00E0FFC3229008ADE0FF9021DD9322E49034
:1073BA0009D8F0A3F022902049F0900045F09020DF
:1073CA003522FEE02400FFEC3E2290058FF0A3F068
:1073DA00A3F022C22A900597F0A3F022900567E055
:1073EA00FE640B2290055AE0FF900ADEE0C39F225A
:1073FA0090058EE02FFF90058DE03E229008AF1297
:10740A00163EE922E05403FEEF2E9021F193FE226C
:10741A00FF93FE74A92FF582E434022274B12FF58A
:10742A0082E43405F58322E47B9B7A3BF9F8021463
:10743A00BF90205EE0FEA3E0FDEDFF222417F58257
:10744A00E43401F583E02274212FF582E43409F54E
:10745A0083221216470212EA90054FE0640122E0E5
:10746A00FF9009D0E0FEC39F22F0E49009D0F022F9
:10747A009005BFE064012212BFA690058D229009F3
:10748A0077E004F022FE90097EF0A3EFF04E223C52
:10749A00F583E493FE22FE749D2FF582E4340822DC
:10AF5D00EF1216CBAFA700AFAA01AFAD02AFB00392
:10AF6D00AFB304AFB605AFB906AFBC07AFBF08AFFF
:10AF7D00C209AFC50AAFC80BAFCB0CAFCE0DAFD169
:10AF8D000EAFD40FAFD710AFDA11AFDD12AFE013A4
:10AF9D00AFE314AFE6150000AFE902B07602B43DA1
:10AFAD0002031602191802031902B859029DE30291
:10AFBD00031A02BACA02032102B20E02BBB002BBCF
:10AFCD00DA02032202032902032A02034102034289
:0DAFDD0002034902034A02035112035222EB
:108CF4007E8B7F967C8B7D0C12737890059BEEF0B7
:108D0400A3EFF07E8C7FF17C8C7DEF127378A3EE61
:108D1400F0A3EFF0C241C23EA23F924B12B3D6126F
:108D2400AB6F12BF09C221C23DE490054FF0A3749A
:108D340002F0A3F0C220E490059FF0A3F090057C1C
:108D4400F0900587F0A3F0D20DC21912927B7F0434
:108D5400128FD61212EAB4010A7F02128FD67F0351
:108D6400128FE612723412723CD39420EE940050A7
:108D74002FCDEFCDED90877A93FC746F2DF582E4BF
:108D84003400F583ECF0EF90879A93FE748F2FF5FF
:108D940082E43400F583EEF0900A88126D8F80C669
:108DA4007F05128FE61212EA704D1272BD7F061211
