:04000000FFFF807707
:0CC19500787FE4F6D8FD75812F02C1DC34
:02FFFE005AA502
:03000B0002030BE2
:03001300020313D2
:03001B0002031BC2
:03002300020323B2
:03002B0002032BA2
:0300330002033392
:03003B0002033B82
:0300430002034372
:03004B0002034B62
:0300530002035352
:03005B0002035B42
:0300630002036332
:03006B0002036B22
:0300730002037312
:10007B0075816075940075A8007B00740031FB7569
:10008B00378975386A51126036D537F9E53860050E
:10009B00D538F280F090FFFEE493B4FF1E74019309
:1000AB00B4FF1875940290FFFEE493B45A0D7401DB
:1000BB0093B4A5077B5A7594008006510B61000120
:1000CB000031F175360375390AD539028041853611
:1000DB0083758200510431CAE536C39480400E7596
:1000EB003202853630753500853633800F75320117
:1000FB0074802536F530753500853633313D70C942
:10010B00E536B4FF06740031FB80B4053680B78644
:10011B00408841858342858243740093F54475453D
:10012B00007546EE75471190FFF874085104319233
:10013B0080FE7D007E108530838D82853294316FF9
:10014B008533838D82853594510431958533838D29
:10015B0082853594317C7009ED2410FDDED8740056
:10016B002274FF2278407F10740093F6A308DFF807
:10017B002278407F10863A740093B53A07A308DFC4
:10018B00F474002274FF22FF8023740131FBE5839A
:10019B00C394034027E5BA54076002800AE5D8549C
:0A01AB0004700A800201C6745AC3F2
:1001B5009B70F87F107840E6B4FF028001F0A30839
:1001C500DFF5510B22740431FBE583C39403401919
:1001D500E5BA54076002800AE5D85404700A800223
:1001E50001C6745AC39B70F8F0510B2275EBAA75C2
:1001F500EB55759B102275EBAA75EB55F59A22E523
:1002050087D2E4F58722E587C2E4F5872290203876
:100215007490F090202B7425F0E020E0FC20E4059C
:0F022500512F740022512F7401227C19DCFE220C
:0303000002C195A2
:0BD0630007000600020300011001019D
:107301000B0201050302121803190000000000001E
:10731100000000000000000000000000000000006C
:107321000B0A09466D672D54656368000000000073
:10733100000000000000000000000000000000004C
:1073410000000001280002001800022803050203C2
:1073510000002A00032A0009466D672D5465636801
:10736100000004280305020500012A00052A010284
:1073710000000006280305080700032A00072A0366
:1073810006000000000000000828030502090002B1
:107391002A00092A020100000A280305020B000441
:1073A1002A000B2A04089001700300009800000CC9
:1073B1002800020118000D280305220E00052A00ED
:1073C1000E2A05040100FFFF000F29020200000040
:1073D100102800020A180011280305021200252AAC
:1073E10000122A2504303030310013290407190016
:1073F10000000100000014280305021500292A00DD
:10740100152A290D414D4943434F4D20456C656374
:107411002E0016290407190000000100000017289A
:107421000305021800232A00182A230855AA55AA81
:1074310055AA55AA0019280305021A00262A001A7E
:107441002A260456302E38001B2904071900000093
:10745100190000001C280305021D00242A001D2A12
:1074610024064D4438313037001E29040719000025
:1074710000010000001F280305022000272A002028
:107481002A27035530330021290407190000000180
:1074910000000022280305022300282A00232A28AD
:1074A10004303030300024290407190000000100A5
:1074B100000025280305022600502A00262A50072D
:1074C10001C000000000000027280002BAFE0028C9
:1074D10028030514290010FA0029FA1014000000ED
:1074E100000000000000000000000000000000009B
:1074F10000002A2902020000002B2901084F5441F3
:107501005F44415441002C280305282D0011FA0045
:107511002DFA11080000000000000000002E2902D1
:10752100020000002F2901074F54415F434D4400E1
:107531003028030510310013FA0031FA130400005A
:1075410000000032290202000000332901114441E8
:1075510054415F4552524F525F5354415455530069
:10756100342800020F180035280305123600192AA5
:1075710000362A1901640037290202000000382868
:107581000002F0FF0039280305103A00F1FF003A2C
:10759100FFF11400000000000000000000000000E6
:1075A10000000000000000003B2902020000003C36
:1075B100280305083D00F2FF003DFFF21400000022
:1075C10000000000000000000000000000000000BA
:1075D10000003E280305103F00F3FF003FFFF314B6
:1075E100000000000000000000000000000000009A
:1075F10000000000004029020200000041280305AC
:10760100084200F4FF0042FFF414000000000000F3
:107611000000000000000000000000000000004326
:10762100280305024400F5FF0044FFF514000102A0
:10763100030405060708090A0B0C0D0E0F101112A1
:1076410013004528000200FB00462803050A4700F5
:1076510001FB0047FB0114000000000000000000D6
:1076610000000000000000000000000048290202A4
:1076710000000049280305104A0002FB004AFB02F2
:107681000700000000000000004B2902020000007A
:107691004C280305084D0003FB004DFB03060000C9
:1076A10000000000004E280305104F0004FB004FAE
:1076B100FB041400000000000000000000000000B6
:1076C10000000000000000005029020200000051EB
:1076D10028030512520005FB0052FB0506000000BD
:1076E1000000000053290202000000010101010114
:1076F1000101010102010101010101010301010176
:107701000101010101010101010101010101010168
:107711000201030101010201030101010001030151
:107721000101010103010101030102010101030141
:10773100020101010301030103010301030103012B
:1077410003010301030173417343734A7354736269
:10775100736C7373737D73887392739873A273AF31
:1077610073B673C073C973D073D773E173EA73F6D9
:1077710074007412741E74287435743F7448745400
:10778100745E74697475747F74877493749D74A640
:1077910074B274BC74C874CF74D974F274F9750678
:1077A1007510751D75247530753A7543754A756088
:1077B100756775717577757E7585758F75A875AFE8
:1077C10075B975D275DC75F575FC7606761F762967
:1077D100764276497653766C7673767D76897690A5
:1077E100769A76A576AF76C876CF76D976E4FF73AA
:1077F10046FF7348FF734F0107A6FF7367FF73715D
:10780100FF7378010721FF738DFF7397FF739DFF4E
:1078110073A7FF73B4FF73BB0107B10107CBFF73FC
:10782100D5FF73DCFF73E6FF73EFFF73FBFF740596
:10783100FF7417FF7423FF742DFF743AFF7444FF24
:10784100744DFF7459FF7463FF746EFF747AFF7493
:1078510084FF748CFF7498FF74A2FF74ABFF74B73C
:10786100FF74C1FF74CDFF74D40107080107C9FF7C
:1078710074FEFF750B010782010706FF7529FF756D
:10788100350107D101079EFF754FFF7565FF756CC7
:1078910001072001071EFF7583FF758A0107290172
:1078A10007CDFF75B4010758FF75D701073D0107E3
:1078B100CFFF760101076CFF7624FF762EFF764716
:1078C100FF764E01078A010727FF767801075101EC
:1078D10007AFFF7695010700FF76AA0107B50107FB
:1078E1001CFF76D40107A001078076EB76ED76EFD9
:1078F10076F176EF76F376EF76F576EF76F776EF4B
:1079010076F976ED76EF76FB76FD76ED76EF76FF1E
:10791100770176EF7703770176EF770576EF7707D3
:10792100770176EF7709770176EF770B770176EFBD
:10793100770D770176EF770F76ED76EF7711771385
:10794100771576EF77177719771B76EF771D771F06
:10795100772176ED76EF7723772576ED76EF77272A
:10796100772976EF772B76EF772D772F76EF7731B3
:1079710076EF773376ED76EF7735773776EF7739C0
:10798100773B76EF773D76EF773F774176EF774339
:077991007745757701071E21
:10A754004907A6466D672D546563680046072100C6
:10A7640000000000004407B1000000004207CB00D5
:10A774000054070800000000000000000000000072
:10A7840000000000000000004207C90000480782E2
:10A79400000000000000000042070600004407D14A
:10A7A4000000000042079E00004107206442071E8B
:10A7B4000000540729000000000000000000000011
:10A7C4000000000000000000004207CD0000540714
:10A7D400580000000000000000000000000000001D
:10A7E400000000000054073D0000000000000000CD
:10A7F4000000000000000000000000004207CF003D
:10A804000054076C0000000000000000000000007D
:10A81400000000000000000054078A00000000004F
:10A8240000000000000000000000000000000042E2
:10A8340007270000470751000000000000004207FE
:10A84400AF00004607000000000000005407B500F8
:10A8540000000000000000000000000000000000F4
:10A8640000000042071C00004607A0000000000092
:06A8740000420780000015
:10C5F1007580FFE4F5D1F5D275D3FF7590FFF5D9BC
:10C60100F5DA75DBFF75A0FFF5A1F5A275A3FF753E
:10C61100B0FFF5E1F5E275E3FF781EF608F6781E46
:10C62100E6FE08E6FFC3EE9420500E8F828E83E46F
:10C63100F006E61870E80680E543B901E58754EF96
:10C641004401F58775BA079005E1745AF0A374A502
:01C65100F0F8
:01C6520022C5
:08D0BA00E4FF900B3F1217CDBB
:01D0C200224B
:10CF7B00E4FF900A5E1217CD900A5B1217C4900A59
:04CF8B005E1217CD4E
:01CF8F00227F
:030313000231C0F4
:0231C0000032DB
:03031B000231C2EA
:0231C2000032D9
:030323000231C4E0
:0231C4000032D7
:03032B000231C6D6
:0231C6000032D5
:03033B000231C8C4
:0231C8000032D3
:030343000231CABA
:0231CA000032D1
:03034B000231CCB0
:0231CC000032CF
:030353000231CEA6
:1031CE00C0E0C0F0C083C082C0D0E8C0E0E9C0E07B
:1031DE00EAC0E0EBC0E0ECC0E0EDC0E0EEC0E0EF36
:1031EE00C0E0438701759108902062E030E503123C
:1031FE009C35902028E030E70C900028E044809029
:10320E002028F0D23ED0E0FFD0E0FED0E0FDD0E0AE
:10321E00FCD0E0FBD0E0FAD0E0F9D0E0F8D0D0D08E
:08322E0082D083D0F0D0E03221
:03035B0002323635
:02323600003264
:1072CF0090095CE0FF246CF582E43407F583E0FE5F
:1072DF00743D2FF582E43407F583EEF090095CE0FE
:1072EF0004F022900964E0FEA3E0FF7C007D0A0217
:0272FF00148DEC
:106F7400E4900958F0A3F090095DF0A3F0A3F0A306
:106F8400F0A3F0A3F012035612C5F1C23F7F0D1215
:106F9400D0E612CDCC9020FF7404F012202F1209F9
:106FA40087122CEB7F0612B50F127FF1E4900A1DB5
:106FB400F07F0112C95812B62F7F0112CA36E4902D
:106FC400095CF090095CE0FDC3940A502D7F011226
:106FD400BDF77F021272C17F0312BDF77F041272E4
:106FE400C17F0512BDF790095CE0FD7F0612BDF775
:106FF400303EFDC23E1272EB80C9900B0712178718
:1070040000000708120AB290054FE070549009502E
:10701400F0A37410F0A37405F0A374DCF090094E8F
:107024007407F0E4A3F0900954F0A3F0A304F0FB78
:107034007A09794E12C2ADE4900A1BF0900A260434
:10704400F0A3F0900A23F0E4900A21F0900A1CF0D7
:10705400900A22F0900A2504F0E4900A24F00271C8
:107064008290054FE0FFB4010990095A7401F002BF
:107074007182EF6403600302718290095AE0601127
:107084001209A7EF64016004EFB40205E490095A01
:10709400F0900A1BE0701C900A787402F0A37458F4
:1070A400F0E4FBFA7D50FC7F40FE12B804900A1B0A
:1070B4007401F02036030271821264E5CFE9CF90A7
:1070C4000958EAF0A3EFF01264EE900957EFF0A329
:1070D400E064077004A3E0640870067E077F0880FC
:1070E40012900958E064077004A3E0648270127E71
:1070F400077F82900957E0FD120A7E120AB20271DC
:1071040082900958E0FEA3E0FF64587003EE640720
:10711400700C009007CDE030E06400027182EF64EF
:107124006C7003EE640770199007CFE030E04FE411
:1071340090095CF01272CFE0B414F91272A00080CE
:107144003D900958E0FEA3E0FF648A7003EE6407F3
:10715400700B009007CDE030E024008021EF646CD8
:107164007003EE640770179007CFE030E010E490EE
:10717400095CF01272CFE0B414F91272A000203E40
:107184000302729AC23E900A1DE004F09020C5E00A
:107194006408F09020E1E06408F0900A1DE020E02B
:1071A4000302728C12C078900964EEF0A3EFF090A1
:1071B4000964E0FAA3E07C007D0AFFCEEACE121453
:1071C4008D900963EFF0EA30E71D7D0A7F0612BD5A
:1071D400F7900964E0F4F0A3E0F4F0900964E47536
:1071E400F0011214C380077D0C7F0612BDF71272E2
:1071F400F2CBEDCB900963E0900729F0A3EBF012FA
:1072040072F2900963EFF0E0FF75F00A12138A90AE
:107214000A20F0EF75F00A12138AAFF0900A1FEFFC
:10722400F0900A1EEBF07D0B7F0112BDF77D0D7F00
:107234000212BDF7900A1EE0FD7F0312BDF7900A0B
:107244001FE0FD7F0412BDF7900963E0D3648094CE
:10725400894007900A20E0FD80027D0C7F0512BD65
:10726400F790054FE0B403207BFF7A75798F900A7D
:10727400501217CD900A537402F07B017A077929D2
:107284001262DB90095BEFF09020C8E04408F090B4
:0C72940020E4E04408F012CCD3027008A3
:1072A0007BFF7A7579DC900A501217CD900A5374DF
:1072B00005F07B017A07793D1262DB90095BEFF004
:0F72C0002290095CE0FD12BDF790095CE0FD2211
:0802F800FFFF187A938508014D
:0C7FF40000000000000000010000000080
:10C90C001F830ACD1E0000000000000084FFFF738F
:10C91C00000E0000004C00480042004A004E00008F
:10C92C00004E00420040000E0000004200FF0007D5
:10C93C0000060023002700260025002400070027FE
:0CC94C000027002000010000002300FF75
:10CD5500ED25E0FDCFEBCF740F7E00C8EFC80822AC
:10CD6500F090C90FE49344019020BCF0223AF5837A
:09CD7500E4938B828A83F00B2207
:10B62F00E4FDFBFA12CD558005C333CE33CED8F9E6
:10B63F0030E704ED4401FD0BBB00010AEB64044A43
:10B64F0070E2ED4490F452D152D275D3FFE4FDFA7B
:10B65F007B0412CD558005C333CE33CED8F930E7F6
:10B66F0004ED4401FD0BBB00010AEB64084A70E2D4
:10B67F00ED44804440F452D952DA75DBFF75A100D6
:10B68F0075A20075A3FF75E3FF9020F474FFF0A37C
:10B69F00740FF0A37473F0A3740CF07A207BB97459
:10B6AF00532BF58274A812CD72BB00010ABA20EF9A
:10B6BF00BBBDEC7A207BBD8B828A83E4F00BBB0091
:10B6CF00010ABA20F2BBD5EF7A207BD5743B2BF55C
:10B6DF008274A812CD72BB00010ABA20EFBBD9EC5D
:10B6EF007A207BD98B828A83E4F00BBB00010ABAE4
:10B6FF0020F2BBF1EF90C914E4939020F1F090C9C0
:10B70F0015E4939020F2F090C917E4939020F8F08D
:09B71F0090C918E4939020F9F0A0
:01B7280022FE
:10CA3600EF6401702590C9109354FE9020D5F090B4
:10CA4600C90EE49344089020BBF090C90CE49354BB
:10CA56007F44079020B912CD652290C90CE49390CB
:10CA660020B9F090C90EE4939020BB12CD6590C911
:08CA760010E4939020D5F0229A
:10BDF700ED25E0241CF582E434C9F583740193FE34
:10BE0700ED25E0243AF582E434C9F583740193FD06
:10BE1700EF24FE60231460331460431460531460EE
:10BE270063240570719020C4EEF09020E0F090201C
:10BE3700C5EDF09020E1F0229020C3EEF09020DFD6
:10BE4700F09020C6EDF09020E2F0229020C2EEF0B4
:10BE57009020DEF09020C7EDF09020E3F0229020B4
:10BE6700C1EEF09020DDF09020C8EDF09020E4F0D6
:10BE7700229020C0EEF09020DCF09020C9EDF090E9
:10BE870020E5F0229020BFEEF09020DBF09020CA52
:06BE9700EDF09020E6F042
:01BE9D002282
:1098BD00FFFFFFDD0001BBBAFFFFFFDE0001A4BD0E
:1098CD00FFFFFFDF00018F20FFFFFFE000017ACBDC
:1098DD00FFFFFFE1000167A7FFFFFFE2000155A3B6
:1098ED00FFFFFFE300014483FFFFFFE4000134614C
:1098FD00FFFFFFE50001252AFFFFFFE6000116D05F
:10990D00FFFFFFE700010946FFFFFFE80000FC5CD9
:10991D00FFFFFFE90000F02AFFFFFFEA0000E4A5CA
:10992D00FFFFFFEB0000D9C1FFFFFFEC0000CF767A
:10993D00FFFFFFED0000C5C0FFFFFFEE0000BC8F75
:10994D00FFFFFFEF0000B3DCFFFFFFF00000AB9F58
:10995D00FFFFFFF10000A3D2FFFFFFF200009C63A9
:10996D00FFFFFFF300009558FFFFFFF400008EAAE4
:10997D00FFFFFFF500008854FFFFFFF60000825146
:10998D00FFFFFFF700007C96FFFFFFF80000772533
:10999D00FFFFFFF9000071FBFFFFFFFA00006D14E0
:1099AD00FFFFFFFB0000686BFFFFFFFC000063F58E
:1099BD00FFFFFFFD00005FB8FFFFFFFE00005BB083
:1099CD00FFFFFFFF000057DA0000000000005434D5
:1099DD0000000001000050BE0000000200004D72AA
:1099ED000000000300004A4E000000040000475034
:1099FD00000000050000447600000006000041BD97
:109A0D000000000700003F250000000800003CABEF
:109A1D000000000900003A4F0000000A0000380E57
:109A2D000000000B000035E60000000C000033D7ED
:109A3D000000000D000031E00000000E00002FFFBF
:109A4D000000000F00002E340000001000002C7CE0
:109A5D000000001100002AD7000000120000294468
:109A6D0000000013000027C300000014000026535F
:109A7D0000000015000024F300000016000023A2D2
:109A8D00000000170000225F0000001800002129CF
:109A9D0000000019000020010000001A00001EE463
:109AAD000000001B00001DD40000001C00001CCE97
:109ABD000000001D00001BD30000001E00001AE373
:109ACD000000001F000019FC000000200000191FFD
:109ADD00000000210000184A000000220000177E3F
:109AED0000000023000016BB00000024000015FE3E
:109AFD00000000250000154A000000260000149CFF
:109B0D0000000027000013F5000000280000135589
:109B1D0000000029000012BA0000002A00001224E3
:109B2D000000002B000011940000002C0000110A11
:109B3D000000002D000010850000002E0000100513
:109B4D000000002F00000F8A0000003000000F14ED
:109B5D000000003100000EA20000003200000E34A3
:109B6D000000003300000DCB0000003400000D6537
:109B7D000000003500000D030000003600000CA5AC
:109B8D000000003700000C4A0000003800000BF107
:109B9D000000003900000B9C0000003A00000B4A49
:109BAD000000003B00000AFA0000003C00000AAD76
:109BBD000000003D00000A650000003E00000A1E86
:109BCD000000003F000009DB000000400000099983
:109BDD00000000410000095A000000420000091D6C
:109BED0000000043000008E100000044000008A848
:109BFD000000004500000871000000460000083B11
:109C0D00000000470000080700000048000007D5CD
:109C1D0000000049000007A50000004A000007767B
:089C2D000000004B0000074994
:107F0000900ADBE02472F582E43420F583229009A4
:107F1000E9E09098C175F0081217B802173F900970
:107F2000321217C4900927E075F004A4F58285F099
:107F3000831216C590092112174FC302167A900AB0
:107F4000DC12177B900ADC12173378081216B290F5
:107F50000ADC12177B900ADC229009DC12174FD33F
:107F600002167AFFE0FEA3F0EFFD7C00EEC39DFF5A
:107F7000E49CC313FEEF132DFFEC3E22900927E093
:107F800024FFFFE434FFFEEF780222FF9009320263
:107F900017C49009E9E075F00822FBE0FAC39FFFDF
:107FA000E49400FE7C007D0212148DEF2B22E490FD
:107FB00009EBF09009E922900927E02401FFE4335E
:107FC000FEEF780222E47F107E27FDFC900B072253
:107FD000EC1211D59009E402177BE0FFE4FCFDFEF2
:017FE000227E
:10C07800127FC5127F37500E900B07121733EF242B
:10C08800C8FFE43E801D127FC5127F37900B075012
:10C0980008121733EF24908006121733EF24F4FFA9
:10C0A800EE3401FEE43DFDE43CFC900B0712177BE7
:10C0B800900B07121733ED5401FDE4FC900B0712A7
:10C0C800177B7FC07ED47D017C00900B07127F5CBC
:10C0D800400A900B07121787000007087D20E4FF2D
:10C0E80012B72912AE5A900B0312177BE4FFFE7D9C
:0FC0F800207C41900B0312174F12102F121213BE
:01C107002215
:06B72900CBEDCBCAEFCA14
:10B72F00900ADC121787000000009020007402F0CE
:10B73F00EB642070317580FF53D1F053D2F043BBCF
:10B74F0020900ADBF0E0FF2471127F0674FFF07483
:10B75F00AE2F127F06E4F0EA4401FF900ADBE024EB
:10B76F0070127F06EFF0EA7036900ADBE0FF246C70
:10B77F00127F0674FFF0746B2F127F0674E0F07463
:10B78F006A2F127F06E4F0746F2F127F06E4F074B5
:10B79F006E2F127F06E4F0746D2F127F06E4F0EB2C
:10B7AF00B4200E127F007481F0127F00E0FF20E0C2
:10B7BF00F8900ADBE0246C127F06127FDA127F3ECC
:10B7CF0012174F900ADBE0246B127F06127FDA12FA
:10B7DF001511127F3E12174F900ADBE0246A127F79
:10B7EF0006127FDA121511900ADC12177B00900AED
:04B7FF00DC1217330E
:01B803002222
:06AE5A009009DC12177BD9
:10AE60009009E0121787000000009009E41217878C
:10AE7000000000009009E87401F09098C112173F9B
:10AE80009009DC127F374016127FAE7402F0A37473
:10AE900004F09009E4121787C20C0000801F909CF8
:10AEA0003112173F127F595021127FAE7403F0A365
:10AEB0007406F09009E4121787429600009009E0AA
:10AEC0001217870000000002AFD3127FAE7437F074
:10AED000A3746EF09009E8E0700302AFD3A3127F71
:10AEE00011127F5950529009E9E09098C9127F15CC
:10AEF000127F599009E9E0402A75F0089098C51230
:10AF00007F18127FD0127F929098C9127F18ECC0E0
:10AF1000E0EDC0E0EEC0E0EFC0E0127F929098C19B
:10AF200002AF75FF9009EBF09009EA127F9A900941
:10AF3000E9F0A3EAF002AED4127F0E127F5950035B
:10AF400002AFD1127F929098B9127F189009DC124B
:10AF50007F37506A127F929098BD127F18127FD06F
:10AF6000127F0EECC0E0EDC0E0EEC0E0EFC0E012FA
:10AF70007F929098B9127F1890091D12177B900943
:10AF8000DC12173390092112177B900925740AF0FF
:10AF9000D0E0FFD0E0FED0E0FDD0E0FC12A10FCC6D
:10AFA000EFCCE41211DFE4FBFA792078411211387A
:10AFB0009009E012177BE49009E8F002AED4900902
:10AFC000EBE0F09009E9127F639009E9EFF002AE3F
:10AFD000D480FE9009E012174F9009E41217331243
:02AFE0000F3A26
:01AFE200224C
:06A10F0090091912177BF4
:10A1150090092A1217870000000090092E12178750
:10A1250000000000900925E075F004A4FFAEF012D0
:10A13500B8D7CAEECAC9EFC97B019009321217CD4B
:10A145009009191217331216F590091D121733ECE1
:10A15500C0E0EDC0E0EEC0E0EFC0E0900925127F61
:10A165007FC333CE33CED8F9127F8B8F828E83D0C7
:10A17500E0FFD0E0FED0E0FDD0E0FC12170F900923
:10A18500277401F0900925E014FF900927E0C39F8B
:10A19500505D90091912174F90091D1217331215AA
:10A1A5001EEFC0E0900925E0FBE4FAF9F8D0E0FFE6
:10A1B5001215B7C8ECC8C9EDC9CAEECACBEFCB902A
:10A1C5000927E0FFE4FCFDFE12152C127F8C121707
:10A1D5005B121511127F8C900927E075F004A4F528
:10A1E5008285F08312170F900927E004F08095E42B
:10A1F500900929F0900925E0FFC313900927F0A3E2
:10A20500EFF09009267401F0900926E0700302A290
:10A21500C5127F1E4050127FB7C333CE33CED8F957
:10A22500127F8B8F828E83127F31502112A2D7909D
:10A23500092A12177B127FB7C333CE33CED8F91252
:10A24500A30F40C4900927E004F002A20D9009274E
:10A25500E0FF900929F0900928127F9A900927F0CC
:10A26500A3EAF002A20D127F1E5053127F7CC33366
:10A27500CE33CED8F9127F8B8F828E831216C5907E
:10A285000921127F5C402412A2D790092A12177B5C
:10A29500127F7CC333CE33CED8F912A30F500302FD
:10A2A500A20D900927E014F002A20D900929E0F013
:10A2B500900927127F63900927EFF002A20D80FE17
:10A2C500127F8CCEEACECFE9CF12B2A8900927E053
:01A2D500FF89
:10A2D60022E4900926F09009321217C4900927E06B
:10A2E60075F004A4F58285F0831216C5CBEFCBCAB0
:10A2F600EECA900921121733C3EF9BFFEE9AFE12A6
:10A30600D057EE3395E0FDFC22FF9009321217C4B8
:10A316008F828E831216C5CBEFCBCAEECA90092167
:10A32600121733C3EF9BFFEE9AFE12D057EE33950A
:10A33600E0FDFC90092E12177B90092E1217339020
:0AA34600092A12174FD312167A22CB
:1021AD000000000000001000800000805F9B34FBE9
:1021BD000000000000000000000000000000000012
:1021CD0043730503E30B0F86C71041F0AEFD9D6908
:1021DD00E2485A7AD8D97C223057FA42DB598B25FE
:1021ED00DEAFBABE0213243546576879677547309E
:1021FD004AF6D91A28DDB5B7E148AC7E3B918AA6DF
:10220D00D71C4533E50BE58BE88D786175A7E34B5E
:10221D000180A0FBF9820000020002000002000212
:10222D000101010001000000000001010200010098
:10223D00000000280010D0002D121E4B0FA4994E47
:10224D00CEB531F405790000280313000000BD1D43
:10225D00A299E625588CD94201630D12BF9F00004B
:10226D00080000000000000000000029020200002C
:10227D000000280313000000D9D9AAFDBD9B2198A9
:10228D00A849E145F3D8D169000014000000000011
:10229D000000000000000000000000000000000031
:1022AD0000280313000000FB7B7CCE6AB344BEB54F
:1022BD004BD624E9C6EA22000014000000000000FD
:1022CD000000000000000000000000000000000001
:1022DD002902020000223C2253226B2276227D220B
:1022ED009522AC22C422DB0107D50107F301082397
:1022FD0001084501084C01086401080B01082E0175
:10230D0007EC000003930000050200000A270000FF
:10231D000A9500000D93000010FA00001124000032
:10232D001451000016CB000017F2000019E3000055
:10233D001B6300001CB300001D4F00001E52000067
:10234D001EC200001F5B00001FF3000021E900000A
:10235D00224100002312000023320000236C0000F4
:10236D0023DF00002436000025000000254B00006F
:10237D0025BC000026080000264A000026B00000FB
:10238D0026BB0000306500003EE1000050E4000077
:10239D0056CD0000617100006D520000886500008F
:1023AD00A0400000B3620000C6100000CDFE00008A
:1023BD00DB700000F4B90000F76F00040CCE0004D0
:1023CD00155200041E64000426650004489A00049A
:1023DD004BED000452F300045453000469F800045B
:1023ED00D3CF0004DB560004E5360004F13E0004B3
:1023FD00F7E4000800070008669800086D41000822
:10240D007045000874020008E6890008F4AB000866
:10241D00F69C000C1539000C3021000C3E9F000C71
:10242D004DE9000C5101000C74C2000C771A000C20
:10243D00BC9F000CD74600101C0C001040F3001080
:10244D00417F001093E9001094BB00109ADD00103D
:10245D00DDB10014109F0014205E00145A05001405
:10246D008FC6001499E20014BD61001820320018C7
:10247D0034510018659000189EFC0018AF610018CB
:10248D00AF8F0018E7F40018EE690018F1D80018A6
:10249D00F643001C1AC0001C36BB001C5CF2001C6D
:1024AD009148001C9E46001CABA7001CE62B00208B
:1024BD003CAE0020768F002078F000207D74002047
:1024CD009BCD0020A2E40020AB370020C9D0002016
:1024DD00EE2800241EEB0024240E00245BA700240C
:1024ED00A0740024A2E10024AB810024E314002495
:1024FD00F0940024F67700280B5C0028373700286D
:10250D005AEB00286AB800286ABA0028A02B0028C8
:10251D00CFDA0028CFE90028E02C0028E14C002874
:10252D00E7CF0028ED6A0028F0760028FF3C002C4C
:10253D001F23002C200B002C3361002C61F6002C86
:10254D00B43A002CBE08002CF0A2002CF0EE0030A6
:10255D0010E4003035AD0030636B003090AB0030CF
:10256D00D9D90030F7C5003408BC003412980034B6
:10257D00159E0034363B003451C900347C2500349F
:10258D00A3950034AB370034C0590034E2FD003858
:10259D000F4A0038484C003866F0003871DE0038BC
:1025AD00892C0038B54D0038C9860038CADA003C90
:1025BD000754003C15C2003C2EF9003C2EFF003C98
:1025CD00AB8E003CD0F8003CE0720040300400407F
:1025DD00331A00403CFC00404D7F00406C8F0040A2
:1025ED00831D004098AD00409C280040A6D90040B6
:1025FD00B3950040CBC00040D32D004400100044E3
:10260D002A6000444C0C0044D8840044FB4200482E
:10261D003B380048437C00484BAA004860BC00484A
:10262D00746E0048A1950048A91C0048BF6B004876
:10263D00D7050048E9F1004C3275004C57CA004CE3
:10264D0074BF004C7C5F004C8D79004CB1990050EB
:10265D00323700507A55005082D50050A67F005079
:10266D00BC960050EAD600542696005433CB005445
:10267D004E900054724F0054996300549F130054B0
:10268D00AE270054E43A0054EAA800581FAA005897
:10269D00404E005855CA00587F570058B035005865
:1026AD00E28F005C0947005C1DD9005C5948005C55
:1026BD008D4E005C95AE005C969D005C97F3005CC2
:1026CD00ADCF005CF5DA005CF7E6005CF938006030
:1026DD000308006030D40060334B00606944006033
:1026ED00921700609AC10060A37D0060C54700602D
:1026FD00D9C70060F4450060F81D0060FACD006098
:10270D00FB420060FEC50064200C00645AED0064BD
:10271D007033006476BA00649ABE0064A3CB006483
:10272D00A5C30064B0A60064B9E80064E682006841
:10273D00092700685B350068644B0068967B00686C
:10274D009C700068A86D0068AB1E0068AE20006824
:10275D00D93C0068DBCA0068EF430068FB7E006867
:10276D00FEF7006C19C0006C3E6D006C4008006CEB
:10277D004D73006C709F006C72E7006C8DC1006C26
:10278D0094F8006C96CF006CAB31006CC26B00708E
:10279D001124007014A600703EAC0070480F00703C
:1027AD0056810070700D007073CB007081EB00705E
:1027BD00A2B30070CD600070DEE20070E72C0070F7
:1027CD00ECE40070EF000070F08700741BB2007431
:1027DD00811400748D0800749EAF0074E1B600740E
:1027ED00E2F5007831C100783A8400784F430078E3
:1027FD0067D700786C1C00787B8A00787E61007842
:10280D00886D00789F700078A3E40078CA3900784D
:10281D00D75F0078FD94007C0191007C04D0007C92
:10282D0011BE007C5049007C6D62007C6DF8007C0F
:10283D00C3A1007CC537007CD1C3007CF05F007C58
:10284D00FADF0080006E008049710080929F008049
:10285D00B03D0080BE050080D6050080E6500080AA
:10286D00EA960080ED2C0084299900843835008487
:10287D004167008468780084788B00848506008425
:10288D0089AD00848E0C0084A1340084B153008482
:10289D00FCAC0084FCFE0088190800881FA100888C
:1028AD005395008863DF008866A500886B6E0088ED
:1028BD00AE070088C6630088CB870088E87F008854
:1028CD00E9FE008C006D008C2937008C2DAA008C40
:1028DD005877008C7B9D008C7C92008C8590008CB1
:1028ED008EF2008C8FE9008CFABA009027E40090EC
:1028FD003C92009060F1009072400090840D009029
:10290D008D6C0090B0ED0090B21F0090B931009029
:10291D00C1C60090DD5D0090FD6100949426009489
:10292D00BF2D0094E96A0094F6A3009800C60098A4
:10293D0001A7009803D8009810E800985AEB00986A
:10294D009E630098B8E30098CA330098D6BB0098F0
:10295D00E0D90098F0AB0098FE94009C04EB009C2D
:10296D00207B009C293F009C35EB009C4FDA009C9E
:10297D0084BF009C8BA0009CE33F009CE65E009C06
:10298D00F387009CF48E009CFC0100A0182800A089
:10299D003BE300A04EA700A056F300A0999B00A01A
:1029AD00D79500A0EDCD00A4313500A45E6000A444
:1029BD00670600A4B19700A4B80500A4C36100A4E4
:1029CD00D18C00A4D1D200A4E97500A4F1E800A82F
:1029DD00206600A85B7800A85C2C00A860B600A853
:1029ED00667F00A886DD00A8880800A88E2400A8B0
:1029FD00968A00A8BBCF00A8BE2700A8FAD800ACC5
:102A0D001F7400AC293A00AC3C0B00AC61EA00AC81
:102A1D007F3E00AC87A300ACBC3200ACCF5C00ACF9
:102A2D00E4B500ACFDEC00B019C600B0349500B0B3
:102A3D00481A00B065BD00B0702D00B09FBA00B04F
:102A4D00CA6800B418D100B44BD200B48B1900B4CD
:102A5D009CDF00B4F0AB00B4F61C00B8098A00B8D6
:102A6D0017C200B841A400B844D900B853AC00B89F
:102A7D00634D00B8782E00B88D1200B8C11100B8A2
:102A8D00C75D00B8E85600B8F6B100B8FF6100BCEC
:102A9D003BAF00BC4CC400BC52B700BC543600BCAC
:102AAD00677800BC6C2100BC926B00BC9FEF00BC32
:102ABD00A92000BCE14300BCEC5D00C01ADA00C0E7
:102ACD00639400C0847A00C09F4200C0A53E00C040
:102ADD00B65800C0CCF800C0CECD00C0D01200C09A
:102AED00F2FB00C42C0300C4618B00C4846600C4D7
:102AFD00988000C4B30100C81EE700C82A1400C89E
:102B0D00334B00C83C8500C869CD00C86F1D00C897
:102B1D00855000C8B5B700C8BCC800C8D08300C870
:102B2D00E0EB00C8F65000CC088D00CC08E000CCDE
:102B3D0020E800CC25EF00CC29F500CC2DB700CC3A
:102B4D00446300CC785F00CCC76000D0034B00D04D
:102B5D0023DB00D0259800D02B2000D0331100D0DE
:102B6D004F7E00D0817A00D0A63700D0C5F300D0BB
:102B7D00D2B000D0E14000D4619D00D461DA00D420
:102B8D00909C00D49A2000D4A33D00D4DCCD00D479
:102B9D00F46F00D8004D00D81D7200D8306200D8F7
:102BAD008F7600D8969500D89E3F00D8A25E00D8AB
:102BBD00BB2C00D8CF9C00D8D1CB00DC0C5C00DC4A
:102BCD002B2A00DC2B6100DC371400DC415F00DCBC
:102BDD0056E700DC86D800DC9B9C00DCA4CA00DC38
:102BED00A90400DCD3A200E0338E00E05F4500E0D5
:102BFD00667800E0ACCB00E0B52D00E0B9BA00E09E
:102C0D00C76700E0C97A00E0F5C600E0F84700E4C8
:102C1D0025E700E42B3400E48B7F00E498D600E434
:102C2D009A7900E49ADC00E4C63D00E4CE8F00E41E
:102C3D00E0A600E4E4AB00E8040B00E8068800E839
:102C4D00802E00E88D2800E8B2AC00EC358600EC53
:102C5D00852F00ECADB800F0189800F0247500F049
:102C6D00766F00F0796000F0989D00F099B600F055
:102C7D0099BF00F0B0E700F0B47900F0C1F100F0B9
:102C8D00CBA100F0D1A900F0DBE200F0DBF800F001
:102C9D00DCE200F0F61C00F40F2400F41BA100F49C
:102CAD0031C300F437B700F45C8900F4F15A00F435
:102CBD00F95100F8037700F81EDF00F8279300F8AC
:102CCD00621400F86FC100F895EA00FC253F00FC86
:0E2CDD002A9C00FCD84800FCE99800FCFC484A
:10A87A005707D500000000280010D0002D121E4BEB
:10A88A000FA4994ECEB531F405795807F300002884
:10A89A000313000000BD1DA299E625588CD9420178
:10A8AA00630D12BF9F4B0823000008000000000040
:10A8BA000000004708450000290202000058084C21
:10A8CA000000280313000000D9D9AAFDBD9B2198D6
:10A8DA00A849E145F3D8D16957086400001400007B
:10A8EA00000000000000000000000000000000005E
:10A8FA00000058080B0000280313000000FB7B7CB3
:10A90A00CE6AB344BEB54BD624E9C6EA2257082E0E
:10A91A000000140000000000000000000000000019
:10A92A00000000000000004707EC000029020200B6
:01A93A00001C
:1067D20090094CE0FF90774775F0021217B8E493E6
:1067E200FC740193F5828C8322900AADE0FFA31220
:1067F20017C4900004EF121404907993EF75F0021D
:106802001217B8E493FE740193F5828E83229002EC
:10681200ADF074019002A9F0E4A3F0A37404F0E4D3
:10682200A3F07B017A0279A9221217C49000011207
:1068320013C575F080A42400FFE5F0347BFE7B01D4
:106842007A037943900AA3E4F0A3740222A3E075C9
:10685200F0039077EF1217B80217D6E0FF9022F4F8
:1068620075F003ED1217B8EC75F003A42583F583D8
:106872000217D6900A861217C49000010213C5EFC0
:106882002402FFE433FEE075F0029077470217B866
:106892007404939000051214047B017A0379032295
:1068A2009002AD7404F09007F4E0FE2402FDE4339C
:1068B200FCD3ED94FFEC6480948022F583E0FE74B7
:1068C200432FF582E43403223EF583E49304FD90E2
:1068D2000A6A0217C4900A6DE07F00FEEF2400F5F9
:1068E20082747A3EF583E5822DF582E58322EFFDFF
:1068F2007414C39DFDE49400FC74A92DF582740206
:1069020022F090094DE004F0EF75F00290774722F3
:106912008D827583001213C5900AAEFFED2406FD29
:10692200E433FC1217C48D828C83EF0214049007A7
:10693200F4E02402FE9002AEF0EF04FFA3F0A3EE17
:10694200F0A3EF229002ADE0FFA3E0FDA3E0FB90F5
:106952000A2B22900A6DE0FFC374019FFFEF7F00B4
:10696200FEEF22900A6EE475F0010214C39002ADAC
:106972007412F074059002A9F0E4A3F0A374042247
:10698200EE2402FE9002AEF09007F3E0FD9002AF1B
:10699200221313543FFD7F00FEEF2402F582747A26
:1069A2003EF583E493FF9000020213C590097CE058
:1069B20004F0E0FF90059B22E493FD90799375F03B
:1069C20002EF1217B8E493FA740193F5828A8322D4
:1069D200740193FF9002AEE0FEEF22E493FF900970
:1069E2004DE024A9F582E4340222E493FE7401937B
:1069F200FFF5828E837402227401F090205EE0FE25
:106A0200A3E0FDED2440FFE43E9005DFFEE0FCA3A1
:106A1200E0FDC322900B4DE075F003A424F4F5824F
:106A2200E43422F5830217D63CF583E0FE74432F4B
:106A3200F582E43404F583EEF00FEF227402900243
:106A4200A9F0E4A3F0A3740622E493FE9002AFE05F
:106A5200FD228D827583000213C5E493FC740193B9
:106A62002FF582EC3EF583E4932403FFE433FE909A
:106A720002A9E0D39FEE6480F874809822900AAD58
:106A8200E0FF75F00290799322E0FFFDD390059E1E
:106A9200E09D90059DE09400223EF583E4930490EE
:106AA200000102140490058FE0FEA3E0FFC32290D0
:106AB2007B82FF75F0800217B8900A83E0FFC394CF
:106AC2000222900AB2E0FFC3940222EF2402FFE402
:106AD20033FEE0FD22C8ECC8C9EDC9CAEECACBEF4D
:106AE200CBE0FFE4FCFDFE12164990099D02177BE4
:106AF200FDE0FAA3E0FBEF2BFFEE3AC313FEEF1328
:106B0200FF9009A2EEF0A3EFF06D227C007D03124C
:106B12001426EF2410FFE43EFEC39005E0E09FFF41
:106B22009005DFE09E227401F09002B1E0FF900236
:106B3200AF229002B2E02401FDE433FC9007D8E0DA
:106B4200FEFBD3ED9B7480F86C98221313543F7FA5
:106B520000FEEF2482F582747A22A4FFE5F0F0A30E
:106B6200EFF0A2AFE43322F583EFF090094DE00499
:106B7200F090094B22900574E0C394012275F00352
:106B8200EF90799522900A57E02402FDE433FC90BD
:106B92000A501217C48D828C830213C5F5837404C4
:106BA200F0900A83E00422F5837404F0900AB2E0C4
:106BB2000422900A71E02440FF900A70E03400221F
:106BC200A3E0FD9002AEE0D39D22740193FF9002F8
:106BD200B0E0FEEFD39E227B017A0279B0900A5B8D
:106BE2000217CDED7F00FEEF2442F582747A2290E7
:106BF2000A6DE0FFC322900A70E4F0A3EDF0EF22E9
:106C0200ED900002021404900B4CE025E0FF900B83
:106C12004BE033FE74E22FF582742222D2369002C8
:106C2200A9E024FD22E0FEE42400FFEE347A22E40F
:106C320093FE9002B1E0FDEED39D228F828E83748B
:106C42000393FF90093A2275F002EF9078EB22E469
:106C520093FA7401932FF582EA3EF583E493FF756C
:106C6200F00322900343F0A3F0A2AFE433F511C284
:106C7200AF22F0E4A3F0900846E09002AEF0900854
:106C820045E09002AF22F0E4A3F09007EDE090021D
:106C9200AEF09007ECE09002AF221213C59002AE64
:106CA2002402F00213AC900AACE0FFC39402222447
:106CB2000FF58274233EF58312173F90099D021748
:106CC2004F900A6DE07F00FEEF22E493FA74019385
:106CD2002DF582EA22EF9000010214043EF583E4CE
:106CE20093FFFD900A712290205EE0FEA3E0FDED8D
:106CF200FF2440FDE43EFCD3229002A97406F090EA
:106D020002AD7401F09002AF0422E0FF900B4BE061
:106D1200FCA3E0FD9022F475F0032290000302131D
:106D2200C58F828E83740393FF9002B2E0FEEF6EF2
:106D320022EF2402FFE43322E0FF24B0F582E434A0
:106D4200022275F002EE90774722F583EEF0900A68
:106D5200ACE00422F583EEF09009BAE004223EF59D
:106D620083E493FDF422900510F01213AC90051108
:106D7200F0E4900A5522F0A37403F0A37428F09073
:106D820002A9740722900582741EF0E490057EF039
:106D9200C23B22F583EFF090097DE004F090097B7D
:106DA2002290059CE024FFFF90059BE034FF228F98
:106DB20082758300EE021404E0FF75F0029078EB16
:106DC20022E0FFD390059EE09F22A2AFE433F50EAE
:106DD200C2AF22A2AFE433F50FC2AF22EF2400F517
:106DE20082747A22E41213F2900A70F0A3F0900AED
:106DF2006D22EF2402F582747A2290050FF0900A38
:106E020053E0240390050B22FEE5822FF582E583F1
:106E120022900938E0FE900937E0FFD39E22121734
:106E2200C40213AC740493FE900AB2E0FD223EF554
:106E320083E493F42274F1F090005674D1F07591CA
:106E42000822907C0075F0800217B89002A9E02415
:106E520004FD222FF582EC3EF583E4932404227490
:106E62000493FE900AACE0FDC39E22740493FE904C
:106E72000A83E0FDC39E22FFED2406FDE43322F0E7
:106E8200E4A3F0A374052290099D12173378080237
:106E920016B2E475F0400214C3C374059FFFE49E6A
:106EA20022900A6EE0FEA3E0FF64064E222582F5E0
:106EB20082E4358322FF9002AFE024FE227E087F27
:106EC200887C027DAE7B0222FE7B017A037943221B
:106ED200F0900AE3E0042293FD9002B3E0FCED6C33
:106EE20022EF2402FDE4332293FD900939E0FCED08
:106EF2006C22FD74A92EF582E4340222A2AFE4339F
:106F0200F50D2290087B0217CD75F080A424802213
:106F1200FE74AE2FF582E4340222F583EEF090097E
:106F220094E004229009A2E0FEA3E0780222244029
:106F3200F582747A222480F582747A2224C0F58242
:106F4200747A2224C2F582747A22EF9DFFEE9CFEAF
:106F5200C3E09F22E0FEE42400FFEE347C227401B1
:106F6200935403FF900A5722E4FF900582E0FE64E7
:026F72001F22DC
:10323800EF1217E2325500325801325B02325E0358
:103248003261043264053267060000326A02348152
:103258000234820234830234840234850234AA128E
:0332680034E62227
:10326B00EF1217E233150032D00132D30232D603FC
:10327B0032D90432DC0532DF0632E20732E508329E
:10328B00E80932EB0A32EE0B32F10C32F40D32F765
:10329B000E32FA0F32FD10330011330312330613C3
:1032AB00331514331515330916330C17330F183325
:1032BB00121933151A33171B33151C331D1D3320ED
:1032CB001E000033230234F5023533023549023533
:1032DB004A0236ED02383002399A0239F5023D4E78
:1032EB00023F690240630240640241DA0241DB02A1
:1032FB0041E40241E502457002457102490202496F
:10330B0003024A36024A37024DBB8003024DBC0210
:09331B0034F4024E40124E41222E
:10332400EF1217E23350003353013356023359037B
:10333400335C04335F05336206336507336808334F
:103344006B09336E0A33710B000033740251E502CA
:1033540051E60252BC0252BD02534502543D02548E
:103364005102545D0254980254B102567D1256968D
:013374002236
:10337500900B0BEEF0A3EFF0A3ECF0A3EDF01B9098
:103385000B0DE0FEA3E02BF582E43EF583E0FF9014
:103395000B0BE0FCA3E02BF582E43CF583EFF0EBAF
:0333A50070DC22B7
:0E33A800900B0FEEF0A3EFF0A3ECF0A3EDF00E
:1033B600E4FF1B900B11E0FCA3E02FF582E43CF543
:1033C60083E0FE900B0FE0FCA3E02BF582E43CF5D6
:0733D60083EEF00FEB70DB4A
:0133DD0022CD
:1033DE00900B13EEF0A3EFF0A3ECF0A3EDF01B9027
:1033EE000B15E0FEA3E02BF582E43EF583E493FF9C
:1033FE00900B13E0FCA3E02BF582E43CF583EFF099
:04340E00EB70DB2262
:0E341200900B17EEF0A3EFF0A3ECF0A3EDF09B
:10342000E4FF1B900B19E0FCA3E02FF582E43CF5D0
:1034300083E493FE900B17E0FCA3E02BF582E43CC1
:08344000F583EEF00FEB70DAEA
:013448002261
:10344900900B1BEEF0A3EFF0A3ECF0A3EDF0EB6013
:10345900231B900B1BE0FEA3E02BF582E43EF583D2
:10346900E0FF900B1DE0FCA3E02BF582E43CF58323
:08347900E06F60DACFEBCF2217
:013481002228
:013482002227
:013483002226
:013484002225
:103485009002ADE0FF54E07009EFD3941E50150291
:10349500326B9002ADE0242E600724807006024E48
:0534A500441251E42275
:1034AA009002ADE0FFD39413501CEF14602D24EE6C
:1034BA0070099002B1E0900571F022126CFBF0E401
:1034CA00A3F0A3F0800C126CFBF0E4A3F0A3740247
:0B34DA00F0E4126822126E4D12035E37
:0134E50022C4
:0D34E6009002ADE0FFC3940C50031233249C
:0134F30022B6
:0134F40022B5
:1034F50090057EE0FFB401028030EFC3940A502DA1
:103505009007F3E0FF7004A3E0601F1268A2500C5F
:10351500126982F0A3EEF0A3EDF08004126930F099
:0E35250074051268167D0902035E126D87227E
:103533009002AD7403F0900572E09002AE12682021
:06354300126E4D02035E52
:01354900225F
:10354A00D242126B2BE0FE6F7009126BC2500BC293
:10355A00428007EEC39F5002C2429002AEE0FD7065
:10356A0006A3E07002D2423042129002ADE0FF9010
:10357A0002AFE0FB900A2B74010236E8D242E490D3
:10358A000AE3F0900AE31267D5126A4BEEC39D4034
:10359A00199077471267FE1269D2C39E400C900AAF
:1035AA00E3E0900AE0F0C242800E900AE31269B1A9
:1035BA00E07003A3E06F70CB204238D242900AE356
:1035CA001267D5126C31502B12690A126802126BFB
:1035DA00CC5020900AE3E0900AE1F0C242900AE35C
:1035EA00E004F0900AE3E0FF90059BE07003A3E09B
:1035FA006F70CA3042030236E39002AD7405F09050
:10360A000AE0E09078EB1267FF740193540390028A
:10361A00AEF0900AE4F0900AE27402F0A37406F0A5
:10362A00900AE0E0FF9078EB1267DA740193540392
:10363A00FE900AE4E06E60030236D41256B8900A8D
:10364A00E2E02F2402FE900572E0C39E407C900ABD
:10365A00E2EEF0900AE0E0FE1267D7740193FD9063
:10366A000AE31269E3F583ED126ED2F0EE12690BEA
:10367A001267DDE493FE900AE31269E3F583EE1222
:10368A006ED2F0E02FFE0F900AE3E0FDC39E5026B3
:10369A00900AE01268881269C72FF582E43583F52B
:1036AA0083E493FC74A92DF582E43402F583EC12C9
:1036BA006ED2F01F80D1900AE0E004F0A3E0FF9000
:1036CA000AE0E0D39F500302362A900AE2E0FF1292
:1036DA006816EF2404FD02035E126946740AF012AA
:0236EA00CD0011
:0136EC0022BB
:1036ED00D243E4FDFC126EB8C394FE401C12685F19
:1036FD0012687B126EB76F702B1213ACFF9002B075
:10370D00E0146F701FC243802612685F12687B122F
:10371D006EB76F700F1213ACFF9002B0E06F7004B4
:10372D00C243800B0DBD00010CED64094C70B63029
:10373D00430302382F9022FA126862126D1DFF901A
:10374D0002B1E06F600302382F1269A8FF9002B238
:10375D00E06F600302382F9002AFE0126AA1900271
:10376D00B0E0FF9022FA126862EF1213F2D243E436
:10377D00FCFD12685F1213AC702612687B7021126B
:10378D0069A86429701A126D1DB402149022EE12EC
:10379D0068621213AC700512687B6004C243800B23
:1037AD000DBD00010CED64094C70C720435B900208
:1037BD00AD7404F09022EE12686212687B2402FF51
:1037CD00E433FED3EF94FFEE6480948090000150BB
:1037DD0012126C9C9002AFF012687B9002B0126CCA
:1037ED00A28015126C9C049002AFF012687B24022B
:1037FD009002B0F01213AC049002B1F09002A974D3
:10380D00051268197D0902035E900582741FF09000
:10381D00057E740AF0C23B900566E06403600312F6
:02382D005696AD
:01382F002276
:10383000900AE5126B28E0FE6F7007126BC2500C05
:103840008005EEC39F5005E4900AE5F09002AEE0DB
:103850007009A3E07005900AE504F0900AE5E070B5
:103860000E9002B3E064286006900AE57406F090BA
:103870000AE5E0600302390E740AF09002A9E090B4
:103880000AE8B417057410F080037402F0E4900A9B
:10389000E9F0900AE91268881269EC126ED970603A
:1038A000126D23705BFF900AE8E0FEEFC39E501A92
:1038B00012684F8F82126A56FD74B42FF582E43479
:1038C00002F583E06D70030F80DCEF6E7032900ABA
:1038D000E91267D5126A4BEEC39D402412690A12A1
:1038E00068021269D2C39E4017900AE9E0900AE686
:1038F000F0A3F0E4900AE5F0900AE9E004F0800E0D
:10390000900AE91269B1E07003A3E06F7084900A35
:10391000E5E07029900AE91268881269EC126ED904
:103920007005126D236016900AE9E0900AE7F090A6
:103930000AE91269B2E07003A3E06F70D7900AE55C
:10394000E09002AD70407407F0900AE61267D574FB
:1039500001939002AE126909126802E4939002AFDB
:10396000F0900AE71267D57401939002B0126909CA
:10397000126802E4939002B1F09002A974051268F3
:10398000197D0902035EE0FFA3E0FDA3E0FB900ABE
:09399000E5E0900A2BF012CD00D5
:01399900220B
:10399A0090057EE0640170529002AFE09007D5F086
:1039AA009002AEE09007D6F09002B1E09007D7F00F
:1039BA009002B0E0FF9007D8F09002AD7408F09042
:1039CA0007D6E09002AEF09007D5E09002AFF0A3E0
:1039DA00EFF09007D7E09002B1126D781268197D66
:0B39EA000B12035E90057E7402F022B9
:1039F500900966126B28E0FE6F7007126BC2500CBF
:103A05008005EEC39F5005E4900966F09002AEE094
:103A15007009A3E0700590096604F0900966E070EE
:103A25003D740AF0E490097CF090097C1267D51288
:103A35006A4BEEC39D401C12690A1268021269D2D4
:103A4500C39E400F90097CE0900967F0E4900966F9
:103A5500F0800B1269AEE07003A3E06F70CB9009A4
:103A650066E07031740AF090097C1267D5126C31EA
:103A7500502312690A126802126BCC501890097C07
:103A8500E0900968F0E4900966F01269AEE0700311
:103A9500A3E06F70D2900966E070229002A9E0FF62
:103AA500B4070890097A7402F08012EFB4150890F3
:103AB500097A7410F080069009667404F09009661E
:103AC500E06003023B5F740AF0900968E0FF90092B
:103AD50067E0D39F4003023B5FE490097CF09009C7
:103AE5007AE090097DF090097AE0FF90097CE0FE8C
:103AF5006F604CA3E014F0900967E01267D7C083AC
:103B0500C08290097DE0FF2402FDE433FCD082D021
:103B1500831268E83CF583E493FD74B22EF582E4E4
:103B25003402F583E0FE6D6002801474692FF5821E
:103B3500E43409F583EEF090097CE004F080A79069
:103B4500097AE0FF90097CE06F7006900966F080C5
:103B550009900967E004F0023ACE900966E0600337
:103B6500023CE090097B7402F090097D7406F0E454
:103B750090097CF0900968E0FE900967E0FDD39E0E
:103B85004003023CE090097AE004900979F0CFED1A
:103B9500CF1256B890097AE06F7004900979F090C9
:103BA500097AE0FF900979E0FEC39F502D900967DF
:103BB500E01267D7EE2402FDE433FC1268E83CF519
:103BC50083E493FF74692EF582E43409F583E06F8D
:103BD5007008900979E004F080C590097AE0FF90BB
:103BE5000979E06F6003023CD7900967E0FF125640
:103BF500CD900966EFF07018A3E0FF1267B8900941
:103C050066EFF0600B12684F12D0BA900966EFF0BC
:103C1500900966E06003023CE0900967E0FF1256F8
:103C2500B8126EE3FC900967E0FF126889126CCC4C
:103C35003CF583E4932402FEFD12676ACEEFCE9035
:103C45000572E0FF2405FD90097DE0FCC3ED9CFDB8
:103C5500EEC39D5006900979EE800BEC6406707BEF
:103C6500EF24FE900979F0900967E090097CF090C7
:103C7500097CE0605D9009671267D5740193FE9039
:103C8500097D1269E3F583EEF090097D126907124B
:103C95006802E493FF90097D1269E3126D95E024B3
:103CA50002F0900979E024FEF0E4FE900979E060E5
:103CB500219009671268508E82126A56FF90097D1D
:103CC5001269E3126D95E004F00E900979E014F0A5
:103CD50080D9900967E004F0023B79900966E070AD
:103CE5005190097BE0126977F0E4A3F0A37409F021
:103CF50090097CE0FF1256B890097C126881E49324
:103D0500FC7401932FF582EC3EF583E4932402FFC6
:103D15009002AEF0900572E024FEFEEFD39E4005C2
:103D25009002AEEEF012682490097BE02404FD02B7
:103D3500035E9002ADE0FFA3E0FDA3E0FB90096602
:083D4500E0900A2BF012CD0002
:013D4D002253
:103D4E0090057EE0FF6402600DEF64036008EF648F
:103D5E00046003023F68D244E4900B4BF0A3F012D0
:103D6E006C093EF5831269EC9364287046740393D4
:103D7E006403703FFDFC126C093EF583126805ED7D
:103D8E002408FFE43C126E0A3EF583E493FF74B4FC
:103D9E002DF582E43402F583E0FEEF6E700B0DBD5F
:103DAE0000010CED64104C70CDED64104C7004C22B
:103DBE00448012900B4B126968900B4BE07004A379
:103DCE00E06409709A304403023ED19002AF126D46
:103DDE000C126866126CD79002B012685DEF121367
:103DEE00F29002B1126D0C126866900005EF12147B
:103DFE00049002B212685D900007EF121404900254
:103E0E00B3E0FE12685F900006EE1214049022F7E3
:103E1E00126862126CD79002B3E0FF9022F712681C
:103E2E0062EF1213F290057EE004F0E0D39404509A
:103E3E00619007D7E0F99002B3E099502F126B34DE
:103E4E005003023EE39007F3E0FF7007A3E0700318
:103E5E00023F651268A2500D126982F0A3EEF0A324
:103E6E00EDF0023F2A126930F0023F2A9007F3E08C
:103E7E00FF7004A3E060181268A2500C126982F061
:103E8E00A3EEF0A3EDF08004126930F0023F2A0297
:103E9E003F6590057EE064056003023F689007F37E
:103EAE00E0FF7007A3E07003023F681268A2500C97
:103EBE00126982F0A3EEF0A3EDF08004126930F0E7
:103ECE00023F2A9007D7E0F99002B3E0D399505AF7
:103EDE00126B3450279002AD7408F09002B2E004D9
:103EEE009002AEF09002B3E09002AFF0A3EEF0A31A
:103EFE00E9126D781268197D0B023F629007F3E0AC
:103F0E00FF7004A3E060211268A2500C126982F0C7
:103F1E00A3EEF0A3EDF08004126930F09002A974C4
:103F2E00051268197D09802C802D9007F3E0FF7033
:103F3E0004A3E060221268A2500C126982F0A3EE74
:103F4E00F0A3EDF08004126930F09002A97405120E
:0A3F5E0068197D0902035E126D87E9
:013F68002236
:103F6900900B1F7401F0E4A3F0900B201267D51297
:103F79006A4BEE6D701212690A1268021269D26EEA
:103F89007006900B1FF0800E900B201269B1E07043
:103F990003A3E06F70D3900B1FE0700BA3E0FF1237
:103FA90056CD900B1FEFF0900B1FE07018A3E0FFA8
:103FB9001267B8900B1FEFF0600B12684F12D0BA5E
:103FC900900B1FEFF0900B1FE0FE6008126946EEA0
:103FD900F002CD00E4900B21F0A304F0900B20E057
:103FE900FF1256B8126EE3FC900B20E0FF126889AD
:103FF900126CCC3CF583E493FE900B1FF0FD126725
:104009006A900B1FEFF0900B1FE0FF900B21E0FE71
:10401900C39F5030900B201268508E82126A56FF4F
:1040290074AE2EF582E43402F583EFF0900B21E0B3
:1040390004F0A3E004F0900572E014FF900B22E075
:10404900D39F40C29002AD740BF0900B22E0FF1297
:094059006816EF2404FD12035E59
:01406200223B
:01406300223A
:10406400C245900AA57401F0E4A3F0900AA6126771
:10407400D5126A4BEE6D701212690A126802126947
:10408400D26E7006900AA5F0800E900AA61269B14D
:10409400E07003A3E06F70D3900AA5E0700BA3E077
:1040A400FF1256CD900AA5EFF0900AA5E07018A370
:1040B400E0FF1267B8900AA5EFF0600B12684F1288
:1040C400D0BA900AA5EFF0900AA5E07040A3E0FFF3
:1040D4001256B8126EE3FC900AA6E0FF1268891229
:1040E4006CCC3CF583E493FE900AA8F0FD12676A59
:1040F400900AA8EFF0900572E024FDFEEFD39E50E5
:104104000C9002B0E06006900AA5740BF0900AA52A
:10411400E07032900AA8E02401FFE433FE9002B07C
:10412400E0FD7C00126A754008900AA57407F080CF
:1041340014ED6F7002EC6E700C740D1268107D0536
:1041440012035ED2453045030241D9900AA5E0FE30
:104154006008126946EEF002CD00E4900AA7F090E0
:104164000AA904F09002B0E0900AAAF0900AA7E02D
:10417400FF900AAAE02FFFE433FE900AA8E0FDC3F3
:10418400EF9D7480F86E985037900AA61268508F8D
:10419400828E831213C5FF900AA7E024AEF582E451
:1041A4003402F583EFF0900AA7E004F0900AA9E046
:1041B40004F0900572E014FF900AA9E0D39F40AC8C
:1041C4009002AD740DF0900AA9E0FF126816EF2476
:0541D40004FD12035E72
:0141D90022C3
:0141DA0022C2
:0941DB001269467406F002CD00E1
:0141E40022B8
:1041E500900935126B28E0FE6F7007126BC2500CF8
:1041F5008005EEC39F5005E4900935F09002AEE0CE
:104205007009A3E0700590093504F0900935E07058
:1042150076740AF0E490094CF01267D2126A4BEEFC
:10422500C39D401712690A1268021269D2C39E40E3
:104235000A90094CE0900937F0800E90094C1269FC
:10424500B1E07003A3E06F70D090094CE0FF9005DA
:104255009BE07003A3E06F602E1267D2126C3150A1
:104265002612690A126802126BCC501B90094CE0A9
:10427500900938F0E4900935F090094C1269B1E0E5
:104285007003A3E06F70D2900935E070229002A907
:10429500E0FFB4070890094A7402F08012EFB415E4
:1042A5000890094A7410F080069009357404F0905E
:1042B5000935E0600302437A7410F0E490094CF08C
:1042C50090094AE090094DF090094AE0FF90094CA9
:1042D500E0FE6F6027A3E014F074B22EF582E4349B
:1042E50002F583E0FE90094DE02439F582E43409B6
:1042F500F583EEF090094CE004F080CCEFB40216A3
:10430500900939E06428706DA3E0D394015066E408
:10431500900935F0805F90093BE064287057A3E071
:10432500D394015050900939E0704AA3E07046904B
:10433500094C7404F090094CE0FFC39410501DE043
:10434500FE9021AD93FD74392EF582E43409F58391
:10435500E06D700890094CE004F080D9EFB41015B9
:10436500E4900935F090093BE0900939F090093C5B
:10437500E090093AF0900935E07037740AF0126E52
:1043850013502F1256B8EF6402701F900937126848
:10439500881269EC93FD900939E06D700D126C3D42
:1043A500E06F7006124563F08008900937E004F06D
:1043B50080CC900935E0FE6008126946EEF002CD2A
:1043C5000090094B7402F090094D7406F0126E13BB
:1043D50040030245321256B8EF64026003024529D4
:1043E5009009371268881269EC126EEA600302457B
:1043F50029126C3DE0FEEF6E60030245291245630C
:10440500F06003024532900937E0FF1256B8126D8D
:1044150033FE900937E0F9126889E493FC7401933F
:10442500FD126E55FF900936F0900572E02404C325
:104435009FFF90094DE0FEC39F400302453290095E
:1044450036E0900949F0900937E0FF8D828C83743E
:104455000193126EF4F583ED126903126802126975
:10446500DD126B69E02402F0126DA3FEE96F7001A5
:10447500EE6040900937E00490094CF0126DA3FE00
:1044850090094CE0FDC39FE49E503075F002ED129B
:10449500688C1269EC126EEA7011126C3DE0FEEF49
:1044A5006E700890094CE014F0801090094CE004FF
:1044B500F080C9900937E090094CF01267D2740179
:1044C50093FE1269E0F583EE126903126802126920
:1044D500DD126B69E02402F0900949E024FCF0E468
:1044E500900936F0900949E0602690093712685026
:1044F500900936E0F582126A561269DF126B69E09F
:1045050004F0900936E004F0900949E014F080D4F5
:1045150090094CE0FF900936F0A3E090094CF0902B
:104525000937EFF0900937E004F00243D29002AD6D
:104535007411F090094CE0FF1256B890094C1268BE
:1045450081E493FC740193126E559002AEF09009CC
:0D4555004BE0FF126816EF2404FD12035E18
:0E45620022900937E0FF1256CD900935EF2266
:014570002228
:10457100126EFE900AAB7401F0E4A3F0900AAC1243
:1045810067D5126A4BEE6D701212690A1268021237
:1045910069D26E7006900AABF0800E900AAC126977
:1045A100B1E07003A3E06F70D3900AABE0700BA38E
:1045B100E0FF12571B900AABEFF0900AABE0701BC3
:1045C100A3E0FF1256B8126D33FE900AAC12688850
:1045D100126A5C4006900AAB740DF0900AABE07071
:1045E10051A31267D574039364557046126C491236
:1045F1006802E493FF64206005EF64027034900A5E
:10460100ACE0FF75F0029077491267DD740393B453
:10461100022075F003EF9077F21268571213AC7015
:1046210008900AAB7481F08009300F06900AAB74D0
:1046310080F0900AABE0702DA3E0FF1267B8900AFA
:10464100ABEFF0602012684FEBC0E0EAC0E0E9C0D8
:10465100E0126BD9D0E0F9D0E0FAD0E0FB12CF7BC9
:10466100900AABEFF0900AABE0FE6008126946EEEB
:10467100F002CD00E4900AADF0126C20FF900AAD7B
:10468100E0C39F5018126D3AF583E0FE900AAC1218
:104691006850126DB1900AADE004F080DC900AAC74
:1046A100126DBA1267DD74019330E225900AADE014
:1046B100FEEEC0E01256B8900AAC126ACD126889BB
:1046C100126C51ED1268548F82758300D0E0121480
:1046D10004126C1E900573F0900AAC126850126FB0
:1046E1000574131268107D0512035E126B77500377
:1046F1000248DDE4900AADF0900AAD126A8B4033B6
:10470100900AACE0FE1267D71269BAE4936D701A91
:10471100126D44126802740193FF900AADE0126AAF
:10472100841267DD7401936F6009900AADE004F0B3
:104731000246F9900AADE0FF90059DE07003A3E009
:104741006F70030248DD12689B1248DE1213AC60E1
:10475100030248DD12689B1248EA1213AC7003028F
:1047610048A012689B1248DE12689B7F08125769A5
:10477100900AAE1217CD12687B7058907E8293F426
:10478100700302484A7F02125EBBE4900AACF01249
:104791006CA8500D1268C1F5837404126D4FF0803E
:1047A100EE126EFEC2AF126840F07F007E7E1221D3
:1047B10011E4900AACF0126CA8500D1268C1F58397
:1047C1007405126D4FF080EE126840F07F807E7E9E
:1047D100024841900AAE126878126AB1E493F4601B
:1047E10068EF14FF30E0626060C313FF125EBBE448
:1047F100900AACF0126CA85011900AAE126878249D
:10480100FE1268C0126D4CF080EA126EFEC2AF90CB
:104811000AAE12682BF0122111E4900AACF0126C6E
:10482100A85010900AAE126878141268C0126D4C2C
:10483100F080EB900AAE126878126F0B12683AF0B2
:10484100122111E50D24FF92AF12BFDF900AAE12C3
:104851006E20704B900AADF0900AAD126DC3126AD2
:1048610094403CE4900AACF0126A7F1267DD126E4C
:10487100615011126B7F126857126912900AACE0F5
:1048810004F080E41267EB1268921248F612689BFA
:104891001248EA12BFDF900AADE004F002485990D5
:1048A1000AADE0FF90059DE07003A3E06F602DE489
:1048B100900AACF0126A7F1267DD126E615011121C
:1048C1006B7F126857126912900AACE004F080E421
:0C48D1001267EB1268921248F612BFDF6B
:1048DD00227F05125769900AAE1217CD227F07125B
:1048ED005769900AAE1217CD227F09125769900AA7
:0548FD00AE1217CD22F0
:014902002292
:10490300900B427401F0E4A3F0900B431267D512AD
:104913006A4BEE6D703612690A1268021269D26E22
:10492300702A900888E0700CA3E07008126EBF1222
:1049330033758011126EBF123449EF6008900B4239
:104943007480F08015E4900B42F0800E900B4312BC
:1049530069B1E07003A3E06F70AF900B42E0700B9E
:10496300A3E0FF12571B900B42EFF0900B42E07055
:104973002DA3E0FF1267B8900B42EFF0602012689E
:104983004FEBC0E0EAC0E0E9C0E0126BD9D0E0F938
:10499300D0E0FAD0E0FB12CF7B900B42EFF0900B0C
:1049A30042E070559002B0E0FF9002A9E02F24FB93
:1049B300900B44F0900B43E0FF1256B8126D33FE98
:1049C300900B43126888E493FC7401932FF582ECF7
:1049D3003EF583E493FF900B44E0FED39F400890A1
:1049E3000B427409F0801290088AE0FFEED39F40D7
:1049F30008900B44E090088AF0900B42E0FE6008B8
:104A0300126946EEF002CD009002B0E0248BF582ED
:104A1300E43408AF82FE7C027DB29002A9E024FB5D
:104A2300FB1233759002AD7417126823126E4D1288
:024A3300035E20
:014A3500225E
:014A3600225D
:104A3700A2AFE433F50EE4900A82F09002AEE06490
:104A4700016003024B22900A83F0900888E0700708
:104A5700A3E07003024B22900A831267D5E493FE0A
:104A6700900889E0FDEE6D6003024B1112690A128E
:104A77006802740193FF900888E0FEEF6E600302FE
:104A87004B11900A83E0FF1256B8900A83126ACD41
:104A9700126889E493FA7401932FF582EA3EF5834D
:104AA700E493FF900A84F090088AE0D39F4009902E
:104AB7000A82740DF0024B2275F003ED126854CE92
:104AC700EACECFE9CF7C087D8B90088AE0FB1233D2
:104AD70075900A83126DBA1267DD74019330E2157F
:104AE70090088AE0FE75F003EF126854900A84E09C
:104AF700F582126DB3D23690088AE0900573F09074
:104B07000A83126850126F058011900A831269B1E7
:104B1700E07003A3E06F6003024A5E900A82E0FE42
:104B2700600B126946EEF012CD00024D739002AD94
:104B370074191268137D0512035E203603024D7344
:104B4700126B775003024D73E4900A85F0900A8543
:104B5700126A8B4033900A83E0FE1267D71269BA54
:104B6700E4936D701A126D44126802740193FF90FA
:104B77000A85E0126A841267DD7401936F600990F9
:104B87000A85E004F0024B54900A85E0FF90059DEA
:104B9700E07003A3E06F7003024D7312689B124D20
:104BA700761213AC6003024D7312689B124D82128A
:104BB70013AC7003024D2912689B124D7612689B45
:104BC7007F08125769900A861217CD12687B7043C7
:104BD700907E8293F47003024C82124DA7F0126A02
:104BE700BB50091268C1126B9EF080F2126DCC1295
:104BF7006840124D9AF0126ABB500D1268C1F583D6
:104C07007405126BA2F080EE126840F07F807E7E02
:104C1700024C7F126875126AB1E493F4605DEF1479
:104C2700FF30E0576055C313FF125EBBE4900A8361
:104C3700F0126ABB501112687524FE1268C0F58322
:104C4700EE126BA2F080EA126DCC900A8612682BE6
:104C5700F0122111E4900A83F0126ABB5010126817
:104C670075141268C0F583EE126BA2F080EB126820
:104C770075126F0B12683AF0124DB112BFDF12684E
:104C8700757040907E8293F46039124DA7F0126AD6
:104C9700BB50091268C1126B9EF080F2126DCC12E4
:104CA7006840124D9AF0126ABB500D1268C1F58325
:104CB7007405126BA2F080EE126840F07F807E7E52
:104CC700124DB1900A86126E207057900A85F090A7
:104CD7000A85126DC3126A944048E4900A83F090E3
:104CE7000A85126A821267DD126E6D5017126B7F8A
:104CF700126857126A54900A8612691D900A83E057
:104D070004F080DB900A851267EE126892124D8ECE
:104D170012689B124D8212BFDF900A85E004F002F1
:104D27004CD6900A85E0FF90059DE07003A3E06FE5
:104D3700603AE4900A83F0900A85126A821267DD6E
:104D4700126E6D501B126B7F126857126A54126EE7
:104D570079FC900A86126925900A83E004F080D7CF
:0F4D6700900A851267EE126892124D8E02CFA548
:104D76007F05125769900A861217CD227F071257B0
:104D860069900A861217CD227F09125769900A8602
:104D96001217CD22F07F007E7E122111E4900A8345
:104DA600227F02125EBBE4900A8322122111E50ED5
:054DB60024FF92AF2272
:014DBB0022D5
:104DBC00D246900B4D7401F0900B4DE0FF126A1A25
:104DCC001213ACFE9002AFE06E7013EF126A1A125F
:104DDC00687BFF9002AEE06F7004C246800A900BB5
:104DEC004DE004F0E0B409D0204648E4900B4EF0BE
:104DFC00126C20FF900B4EE0C39F5025126D3AF5BC
:104E0C0083E0FE126A16E92403F9E43AFAEF7C0017
:104E1C0029F9EC3AFAEE1213F2900B4EE004F08002
:104E2C00CFD21B126C20900583F0126A169008CB1F
:034E3C001217CD7D
:014E3F002250
:014E4000224F
:034E4100C20F227B
:104E4400A2AFE433F50F900AB17401F0E4A3F0903B
:104E54000AB21267D5126A4BEE6D701212690A1209
:104E640068021269D26E7006900AB1F0800E900A40
:104E7400B21269B1E07003A3E06F70D3900AB1E09D
:104E8400700BA3E0FF12571B900AB1EFF0900AB128
:104E9400E0701BA3E0FF1256B8126D33FE900AB205
:104EA400126888126A5C4006900AB1740DF0900A88
:104EB400B1E0702DA3E0FF1267B8900AB1EFF06083
:104EC4002012684FEBC0E0EAC0E0E9C0E0126BD901
:104ED400D0E0F9D0E0FAD0E0FB12CF7B900AB1EF3A
:104EE400F0900AB1E0600302519EE4900AB3F0121C
:104EF4006C20FF900AB3E0C39F5018126D3AF583FB
:104F0400E0FE900AB2126850126DB1900AB3E00448
:104F1400F080DC900AB2126DBA1267DD740193302E
:104F2400E225900AB3E0FEEEC0E01256B8126D33EB
:104F3400126E29126889126C51ED1268548F8275B1
:104F44008300D0E0121404126C1E900573F0900AD2
:104F5400B2126850126F05126B77500302519EE42F
:104F6400900AB3F0900AB3126A8B4033900AB2E00D
:104F7400FE1267D71269BAE4936D701A126D441267
:104F84006802740193FF900AB3E0126A841267DD29
:104F94007401936F6009900AB3E004F0024F6890C3
:104FA4000AB3E0FF90059DE07003A3E06F70030275
:104FB400519E12689B12519F1213AC600302519EC2
:104FC40012689B1251AB1213AC7003025152126857
:104FD4009B12519F12689B7F08125769900AB41262
:104FE40017CD12687B7043907E8293F47003025055
:104FF400A21251D0F0126AC450091268C1126BA9EE
:10500400F080F2126DD51268401251C3F0126AC4D6
:10501400500D1268C1F5837405126BADF080EE1269
:105024006840F07F807E7E02509F900AB4126878B8
:10503400126AB1E493F46066EF14FF30E060605EDE
:10504400C313FF125EBBE4900AB2F0126AC4501498
:10505400900AB412687824FE1268C0F583EE126BCD
:10506400ADF080E7126DD5900AB412682BF01221CE
:1050740011E4900AB2F0126AC45013900AB4126890
:1050840078141268C0F583EE126BADF080E8900AD4
:10509400B4126878126F0B12683AF01251DA12BF28
:1050A400DF900AB41268787040907E8293F460397D
:1050B4001251D0F0126AC450091268C1126BA9F0DF
:1050C40080F2126DD51268401251C3F0126AC450B6
:1050D4000D1268C1F5837405126BADF080EE126891
:1050E40040F07F807E7E1251DA900AB4126E2070F6
:1050F4005D900AB3F0900AB3126DC3126A94404EE5
:10510400E4900AB2F0900AB3126A821267DD126E5A
:1051140026C39E501B126B7F126857126A54126E7C
:1051240079FC900AB4126925900AB2E004F080D5A3
:10513400900AB31267EE1268921251B712689B126A
:1051440051AB12BFDF900AB3E004F00250F9900AA9
:10515400B3E0FF90059DE07003A3E06F603CE49032
:105164000AB2F0900AB3126A821267DD126E26C385
:105174009E501B126B7F126857126A54126E79FC90
:10518400900AB4126925900AB2E004F080D5900A1E
:0A519400B31267EE1268921251B7D1
:10519E00227F05125769900AB41217CD227F07128B
:1051AE005769900AB41217CD227F09125769900AD7
:1051BE00B41217CD22F07F007E7E122111E4900AE8
:1051CE00B2227F02125EBBE4900AB222122111E5D6
:0651DE000F24FF92AF2236
:0151E40022A8
:0151E50022A7
:1051E600302206200A030252A69002AEE090057510
:1051F600F09002AFE0900576F09002B0E0900116D4
:10520600F09002B1E0900113F09002B2E0900577C1
:10521600F09002B3E0900578F090D06AE493FF90A6
:105226000116E04F20E203E48023900575E0FF902D
:10523600D068E49375F005A42423F582E43422F5BE
:1052460083E5822FF582E43583F583E49390011597
:10525600F0900113E0FFD394064029EF94115024F7
:105266007BFF7AD0796390D063E4932404FD120324
:105276005E12D0A5900115E0601A9005677428F0BB
:10528600D2338010126A3E126E81F0A30412682394
:10529600FD12035E9005667401F0E4900579F02234
:1052A60020390302032E126A3E126E81F012682222
:0652B6007D0612035E22DA
:0152BC0022CF
:1052BD00E4FF900579E070191268F0126A2AB410B3
:1052CD00F79005797401F0900567E06005E4FF80C3
:1052DD00010FEF60627BFF7A2179CD9008D1121713
:1052ED00CD7B017A04795312B3E7E4FFEFFD740F20
:1052FD001268F43CF583E0FE74EC2FF582E434097A
:10530D00126A37B410E67411126A40F0E4A3F0A3E8
:10531D007403F0E4FF74EC2FF582E43409F583E0B7
:10532D00126F12126A37B410EC1268247D15120335
:07533D005E9005667402F0AA
:015344002246
:10534500E49009BAF09009BAE0FF1268F13CF583E0
:10535500E0FE74BB2FF582E43409126D56F0E0B41B
:1053650010E37B017A0979BB9008D11217CD7A0435
:10537500795312B3E7900579E06401600302543C68
:105385009009BAF09009BAE0FF6410601DE0FE24B0
:1053950043F582E43404F583E0126EF4F583E06DA1
:1053A50070089009BAE004F080DAEF64107070902C
:1053B50002A97411126A4312697AF0E49009BAF0ED
:1053C5009009BAE0FFFDC3740F9DFDE49400FC74E1
:1053D500CD2DF58274213CF583E493126F12126D85
:1053E50056F0E0B410DA1268247D1512035EE490DD
:1053F50009BAF09009BAE0FF24BBF582E43409F557
:1054050083E0FE74432FF582E43404126D56F0E018
:10541500B410E09005797402F0E4900114F022D202
:105425001D126A3E126E81F0A3141268237D0612C6
:07543500035EE4900579F02D
:01543C00224D
:10543D00D21D900582E0B41F0A9002AEE0B40803BD
:04544D00125696223B
:0B545100E4FF1268F0126A2AB410F7A2
:01545C00222D
:10545D00E4FFEFFDC374061268F53CF583E0FE74BE
:10546D00F52FF582E43402126A37B402E5E4FFEF5A
:10547D00FDC3740D1268F53CF583E0FE74ED2FF558
:0A548D0082E43402126A37B408E525
:0154970022F2
:10549800E4FF1268F03CF583E0FE74632FF582E4C4
:0854A8003404126A37B410EA63
:0154B00022D9
:1054B1009002AEE0600122E4900994F0900994E03A
:1054C100FF24AFF582E43402F583E0FE74972FF5F3
:1054D10082E43409126F1CF0E0B406E0D22F900987
:1054E1009CE0FFE4FCFDFEA312177B126E8990097C
:1054F1009B126AD7126E8990099A126AD79009A2F3
:105501007402F0A37477F09009A2E0C313F0A3E052
:1055110013F0E4A3F0A3F0A37402F0A37477F0E412
:105521009009A1F0126F26C333CE33CED8F9126C95
:10553100B1C312167A50209009A2E0FEA3E0FF90B9
:1055410009A6EEF0FCA3EFF09009A4126AF2700232
:10555100EE6C70390255AC126F26C333CE33CED800
:10556100F9126CB1D312167A401B9009A2E0FEA386
:10557100E0FFA3EEF0FCA3EFF0A3126AF27002EEDB
:105581006C700A80269009A17401F0801E9009A414
:10559100126AAA9009A7E09FFF9009A6E09EFED398
:1055A100EF9400EE940040030255259009A1E070AC
:1055B1000302567C12689B7F051257691213AC6077
:1055C1000302567C12689B7F061257691213AC6066
:1055D1000302567C12687B126993FCEF6C70089091
:1055E10009957404F0802C126BE53EF583E4936C0D
:1055F10070089009957444F0801912687B126B4D04
:105601001269A2FEEF6E90099570057484F0800313
:1056110074C4F0E4900994F0900994E0FF2463F5D8
:1056210082E434041268BD126F1CF0E0B410E91278
:10563100687B1313543F900996F07F0112203DA21D
:10564100AFE433F510C2AF900996E0FE900995E002
:105651007C002400FFEC3EFEEF242AFFEE347A1298
:105661006ECA900AA3E4F0A37410F0122111E510A0
:0B56710024FF92AFE4FF12203DD22C7A
:01567C00220B
:10567D00E4FF1268F03CF583E0FE74732FF582E4CD
:08568D003404126A37B410EA7C
:0156950022F2
:10569600900566E0701B126A3EF0E4A3F0A3740B5B
:1056A600F090D06AE4939002AE1268237D0612034E
:0256B6005E2272
:1056B800126C491268027401935403B401047F0206
:0456C80080027F10CD
:0156CC0022BB
:1056CD00126C49126802E493FFE4FEEF5455700426
:1056DD007E028036EF30E60890057AE070027E0893
:1056ED00EE700BEF30E407126B7750027E05EE7013
:1056FD0019EF30E21590057BE070047E0F800B9062
:0D570D000113E0C3941050027E0CCFEECFCC
:01571A00226C
:10571B00126C49126802E493FFE4FEEF54AA700482
:10572B007E038036EF30E70890057AE070027E0842
:10573B00EE700BEF30E507126B7750027E05EE70C3
:10574B0019EF30E31590057BE070047E0F800B9012
:0D575B000113E0C3941050027E0CCFEECF7E
:01576800221E
:06576900900A6A1217CD40
:10576F00A2AFE433F511EF1217E25A6B015798020B
:10577F0057B70357D90459D4055BC2065C87075D39
:10578F0076085E0D0900005EADE4900A6DF0126BB5
:10579F00F194025032125F7E900A6DE0FF12604169
:1057AF00900A6DE004F080E6E4900A6DF0126BF160
:1057BF0094035013125EBB900A6DE0FF1260989035
:1057CF000A6DE004F080E60259CD1268D17401121F
:1057DF0013F2E4900A6DF0900A6DE0C39402400357
:1057EF000259C2E0FD75F004A4FFAEF0900A70EE0E
:1057FF00F0FAA3EFF0FBE4900A6EF0A3F0ED7F0058
:10580F00FE126DDE3EF583E493FF6B7001EA603BA1
:10581F00EFF470030259C2900A6EE4F0A304F09003
:10582F000A6E126A0F9440EC940050101268D73C25
:10583F00F583E493B4FF0512696580E3900A6EE087
:10584F007004A3E0644060030259C2126CC3126F6C
:10585F0030126CDEE02401FB126BBBFAEB6D7001B2
:10586F00EA603CEFF470030259C2900A6EE4F0A3B1
:10587F007441F0900A6E126A0F9480EC94005010ED
:10588F001268D73CF583E493B4FF0512696580E392
:10589F00900A6EE07004A3E0648060030259C212A4
:1058AF006CC3126F37126CDEE02402FB126BBBFA73
:1058BF00EB6D7001EA603CEFF470030259C2900A7D
:1058CF006EE4F0A37481F0900A6E126A0F94C0EC2C
:1058DF00940050101268D73CF583E493B4FF05127F
:1058EF00696580E3900A6EE07004A3E064C0600312
:1058FF000259C2126CC3126F3E126CDEE02403FB1E
:10590F00126BBBFAEB6D7001EA6037EFF4700302B4
:10591F0059C2900A6EE4F0A374C1F0900A6E126A35
:10592F000FEC940150101268D73CF583E493B4FF49
:10593F000512696580E5900A6EE064017002A3E0CC
:10594F007071900A6EE0FFA3E0A3CFF0A3EFF09089
:10595F000A70126AAAEE94015044EF243EFFE43E0F
:10596F00900A6EF0A3EFF0126BB4900A6E126A0EEB
:10597F009FEC9E50101268D73CF583E493B4FF055B
:10598F0012696580E2126BB4FE900A6EE06E7003CE
:10599F00A3E06F7009900A70126E9402595E900A1C
:1059AF006EE0B4010EA3E0B40009900A6DE004F0BC
:1059BF000257E6900A6DE064026003025EAD126862
:1059CF00D1E4025E211268D1126DE6F0126BF194F0
:1059DF0002506412695A126F45126D606009126BA2
:1059EF00F8126F3E025A2D126955126B55126D60E7
:1059FF006008126BF8126F378024126955126BEA28
:105A0F00126D606008126BF8126F308011126955B9
:105A1F00126DF5126D606016126BF8126DDF3EF5A8
:105A2F0083E493FF900A6EE4F0A3EFF08009900AED
:105A3F006DE004F00259DB900A70E0FEA3E0FF4E28
:105A4F0070081268D17404025E21900A6EA3E012EE
:105A5F0068D0ED126CD8900002025D721268D112FC
:105A6F006DE6F0126BF194024003025B4712695A24
:105A7F00126F45126E306040EF126F451268CA12F6
:105A8F006C02EF126F3E126A9B126BF174019FFF53
:105A9F00125F7E126BF174019FFF126041900A70CA
:105AAF00E4F0A37402F0900A6DE0FF7003025B470D
:105ABF00C374029FF0025B47126955126B55126E49
:105ACF0030601B126B541268CA126C02EF126F37E0
:105ADF00126A9B900A70E4F0A374C2025B341269DD
:105AEF0055126BEA126E30601A126BE91268CA1205
:105AFF006C02EF126F30126A9B900A70E4F0A3747D
:105B0F00828022126955126DF5126E306021126D6E
:105B1F00F41268CA126C02126DDE126A9B900A7040
:105B2F00E4F0A37442F0126BF174019FF0800990BE
:105B3F000A6DE004F0025A72900A70E07002A3E05E
:105B4F0070161268D17401126C03900A70E4F0A3FE
:105B5F007402F0E4900A6DF01268D11269A8700710
:105B6F0090000204121404126CC3126DDF3EF58311
:105B7F00C083C082900A70E0FCA3E0FDD082D08386
:105B8F002582F582E5833CF583E493F4900A6A60FD
:105B9F00081217C47403025E211217C41269A812E7
:105BAF006C65900A6D126C27CF2DCF3C12683FF0B9
:105BBF00025EAA1268D1E41213F2900A6EF0A3F0FB
:105BCF00900A6E126A0FEC94014003025C70900A07
:105BDF006A1268781313543F7F00FE126DF4126837
:105BEF00E53CF583E493FF1268D11269A8FEEF6ECE
:105BFF007066900A6DF0900A6DE0FDC3943A5061A3
:105C0F00900A6A1268781313543F7F00FEEF240442
:105C1F00F582747A3EF583C083C082EDFF900A6FE0
:105C2F00E02FFF900A6EE03400FED082D083126E18
:105C3F000B3EF583E493FF1268D1E92403F9E43AAC
:105C4F00FA900A6DE07C0029F9EC3AFAEF1213F2A0
:105C5F00900A6DE004F0809E900A6E126E94025BC3
:105C6F00CF900A6EE064017002A3E06003025EADA4
:105C7F001268D17405025E211268D1E41213F290FA
:105C8F000A6DF0A3F0A3F0900A6E126AAA9406EEC2
:105C9F00940050371268D11269A8FD126E9BFEEF67
:105CAF007807C333CE33CED8F92402F582747C3E05
:105CBF00F583E4936D700F900A6EE07002A3E070AD
:105CCF000A900A6D04F012696580BC900A6DE0B409
:105CDF000111A3E07004A3E064056007E4900A6E6D
:105CEF00F0A3F0126EA370081268D17404025E2143
:105CFF00126E9B900A6EF0A3EFF01268D1126CD760
:105D0F00900A6D7405F0900A6DE0FDC394805037D2
