:04000000FFFF807707
:0CAB0800787FE4F6D8FD75813602AB4F73
:02FFFE005AA502
:03000B0002030BE2
:03001300020313D2
:03001B0002031BC2
:03002300020323B2
:03002B0002032BA2
:0300330002033392
:03003B0002033B82
:0300430002034372
:03004B0002034B62
:0300530002035352
:03005B0002035B42
:0300630002036332
:03006B0002036B22
:0300730002037312
:10007B0075816075940075A8007B00740031FB7569
:10008B00378975386A51126036D537F9E53860050E
:10009B00D538F280F090FFFEE493B4FF1E74019309
:1000AB00B4FF1875940290FFFEE493B45A0D7401DB
:1000BB0093B4A5077B5A7594008006510B61000120
:1000CB000031F175360375390AD539028041853611
:1000DB0083758200510431CAE536C39480400E7596
:1000EB003202853630753500853633800F75320117
:1000FB0074802536F530753500853633313D70C942
:10010B00E536B4FF06740031FB80B4053680B78644
:10011B00408841858342858243740093F54475453D
:10012B00007546EE75471190FFF874085104319233
:10013B0080FE7D007E108530838D82853294316FF9
:10014B008533838D82853594510431958533838D29
:10015B0082853594317C7009ED2410FDDED8740056
:10016B002274FF2278407F10740093F6A308DFF807
:10017B002278407F10863A740093B53A07A308DFC4
:10018B00F474002274FF22FF8023740131FBE5839A
:10019B00C394034027E5BA54076002800AE5D8549C
:0A01AB0004700A800201C6745AC3F2
:1001B5009B70F87F107840E6B4FF028001F0A30839
:1001C500DFF5510B22740431FBE583C39403401919
:1001D500E5BA54076002800AE5D85404700A800223
:1001E50001C6745AC39B70F8F0510B2275EBAA75C2
:1001F500EB55759B102275EBAA75EB55F59A22E523
:1002050087D2E4F58722E587C2E4F5872290203876
:100215007490F090202B7425F0E020E0FC20E4059C
:0F022500512F740022512F7401227C19DCFE220C
:0303000002AB0845
:10746F000B020105030212180319000000000000AF
:10747F0000000000000000000000000000000000FD
:10748F00121109414D4943434F4D5F44656D6F5F85
:10749F003331360000000000000000000000000043
:1074AF000000000128000200180002280305020353
:1074BF0000002A00032A0010414D4943434F4D5FFE
:1074CF0044656D6F5F3331360004280305020500F4
:1074DF00012A00052A0102000000062803050807FB
:1074EF0000032A00072A030600000000000000081E
:1074FF00280305020900022A00092A020100000AD6
:10750F00280305020B00042A000B2A0408900170BF
:10751F000300009800000C2800020118000D28033A
:10752F0005220E00052A000E2A05040100FFFF00A8
:10753F000F290202000000102800020A180011286B
:10754F000305021200252A00122A2504303030319B
:10755F00001329040719000000010000001428037C
:10756F0005021500292A00152A290D414D494343CB
:10757F004F4D20456C65632E001629040719000036
:10758F00000100000017280305021800232A001825
:10759F002A230855AA55AA55AA55AA001928030542
:1075AF00021A00262A001A2A260456302E38001BEB
:1075BF0029040719000000190000001C2803050208
:1075CF001D00242A001D2A24064D4438313037006F
:1075DF001E29040719000000010000001F280305E1
:1075EF00022000272A00202A2703553033002129A3
:1075FF0004071900000001000000222803050223E0
:10760F0000282A00232A280430303030002429048F
:10761F0007190000000100000025280305022600BD
:10762F00502A00262A500701C00000000000002742
:10763F00280002BAFE002828030514290010FA00BA
:10764F0029FA1014000000000000000000000000E4
:10765F000000000000000000002A290202000000C4
:10766F002B2901084F54415F44415441002C2803FA
:10767F0005282D0011FA002DFA1108000000000056
:10768F00000000002E2902020000002F2901074FE1
:10769F0054415F434D44003028030510310013FA65
:1076AF000031FA130400000000003229020200002A
:1076BF000033290111444154415F4552524F525FEB
:1076CF0053544154555300342800020F18003528E5
:1076DF000305123600192A00362A190164003729CA
:1076EF00020200000038280002F0FF0039280305CD
:1076FF00103A00F1FF003AFFF11400000000000003
:10770F000000000000000000000000000000003B2F
:10771F002902020000003C280305083D00F2FF008B
:10772F003DFFF21400000000000000000000000008
:10773F000000000000000000003E280305103F007D
:10774F00F3FF003FFFF314000000000000000000F3
:10775F0000000000000000000000000040290202AD
:10776F0000000041280305084200F4FF0042FFF427
:10777F0014000000000000000000000000000000E6
:10778F0000000000000043280305024400F5FF003D
:10779F0044FFF514000102030405060708090A0B4C
:1077AF000C0D0E0F10111213000101010101010147
:1077BF0001010201010101010101030101010101A7
:1077CF000101010101010101010101010101020199
:1077DF000301010102010301010100010301010184
:1077EF000101030101010301020101010301020172
:1077FF00010174AF74B174B874C274D774E174E8D2
:10780F0074F274FD7507750D75177524752B753525
:10781F00753E7545754C7556755F756B75757587C6
:10782F007593759D75AA75B475BD75C975D375DEDC
:10783F0075EA75F475FC76087612761B7627763125
:10784F00763D7644764E7667766E767B7685769243
:10785F00769976A576AF76B876BF76D576DC76E66E
:10786F0076EC76F376FA7704771D7724772E7747C1
:10787F007751776A7771777B7794779EFF74B4FF30
:10788F0074B6FF74BD01081FFF74DCFF74E6FF744C
:10789F00ED0107BFFF7502FF750CFF7512FF751C19
:1078AF00FF7529FF753001082F010835FF754AFF55
:1078BF007551FF755BFF7564FF7570FF757AFF7506
:1078CF008CFF7598FF75A2FF75AFFF75B9FF75C275
:1078DF00FF75CEFF75D8FF75E3FF75EFFF75F9FFE5
:1078EF007601FF760DFF7617FF7620FF762CFF7659
:1078FF0036FF7642FF76490107A8010833FF7673FA
:10790F00FF76800108150107A6FF769EFF76AA0174
:10791F00083B01081DFF76C4FF76DAFF76E1010709
:10792F00BE0107BCFF76F8FF76FF0107C5010837D8
:10793F00FF77290107EDFF774C0107D9010839FFC0
:10794F007776010801FF7799FF77A377B777B97734
:10795F00BB77BD77BB77BF77BB77C177BB77C37774
:10796F00BB77C577B977BB77C777C977B977BB7758
:10797F00CB77CD77BB77CF77CD77BB77D177BB770A
:10798F00D377CD77BB77D577CD77BB77D777CD77D4
:10799F00BB77D977CD77BB77DB77B977BB77DD77D8
:1079AF00DF77E177BB77E377E577E777BB77E97742
:1079BF00EB77ED77B977BB77EF77F177B977BB7760
:1079CF00F377F577BB77F777BB77F977FB77BB77EC
:0A79DF00FD77BB77FF76EC0107BCD3
:102E5D0050081F414D4943434F4D5F44656D6F5FB2
:102E6D003331364607BF00000000000044082F0034
:102E7D0000000042083500005407A80000000000C3
:102E8D0000000000000000000000000000000042F3
:102E9D000833000048081500000000000000004243
:102EAD0007A6000044083B0000000042081D00007A
:102EBD004107BE644207BC00005407C50000000076
:102ECD0000000000000000000000000000000000F5
:102EDD0042083700005407ED00000000000000001C
:102EED000000000000000000000000005407D900A1
:102EFD0000000000000000000000000000000000C5
:102F0D0000000042083900005408010000000000D4
:0F2F1D00000000000000000000000000000000A5
:0BB95A000700060002030001100101BD
:08B9BB00E4FF900AF2121C3DAA
:01B9C3002261
:10B88300E4FF900A3E121C3D900A3B121C34900ABE
:04B893003E121C3D08
:01B89700228E
:030313000231C0F4
:0231C0000032DB
:03031B000231C2EA
:1031C200C0E0C0F0C083C082C0D0E8C0E0E9C0E087
:1031D200EAC0E0EBC0E0ECC0E0EDC0E0EEC0E0EF42
:1031E200C0E012050BD0E0FFD0E0FED0E0FDD0E061
:1031F200FCD0E0FBD0E0FAD0E0F9D0E0F8D0D0D0BB
:0832020082D083D0F0D0E0324D
:0303230002320A99
:10320A00C0E0C0F0C083C082C0D0E8C0E0E9C0E03E
:10321A00EAC0E0EBC0E0ECC0E0EDC0E0EEC0E0EFF9
:10322A00C0E0120534D0E0FFD0E0FED0E0FDD0E0EF
:10323A00FCD0E0FBD0E0FAD0E0F9D0E0F8D0D0D072
:08324A0082D083D0F0D0E03205
:03032B0002325249
:02325200003248
:03033B0002325437
:02325400003246
:030343000232562D
:02325600003244
:03034B0002325823
:02325800003242
:0303530002325A19
:10325A00C0E0C0F0C083C082C0D0E8C0E0E9C0E0EE
:10326A00EAC0E0EBC0E0ECC0E0EDC0E0EEC0E0EFA9
:10327A00C0E0438701759108902062E030E50312AF
:10328A00931B902028E030E70C900028E0448090BF
:10329A002028F0D246D0E0FFD0E0FED0E0FDD0E01A
:1032AA00FCD0E0FBD0E0FAD0E0F9D0E0F8D0D0D002
:0832BA0082D083D0F0D0E03295
:03035B000232C2A9
:0232C2000032D8
:106A04007BFF900A30121C3D900A337405F07B0121
:0D6A140022F583EEF0900933E004F0E0225B
:1067E90090092F7401F0E4A3F0A3F0900934F0A309
:1067F900F0A3F0A3F0A3F0A3F012035612B0FEC267
:10680900477F3212B80812B6E812252F1212321237
:1068190090197F0612A4AF12BA187F0112B34BE484
:10682900900F2CF090093AF0A3F090093AE0600338
:106839000269D712135D90054FE0704E900926F05A
:10684900A3F0A37405F0A374DCF09009247401F09B
:10685900E4A3F090092AF0A304F0A3F0FB7A0979E4
:106869002412AC20900A507401F0A3F0900A4DF064
:10687900E4900A4BF0900A4AF0900A4CF0900A4FC3
:1068890004F0E4900A4EF00269B090054FE0FFB4BD
:10689900010990092D7401F00269B0EF64036003E6
:1068A9000269B090092DE06011121252EF64016083
:1068B90004EFB40205E490092DF0203E030269B00B
:1068C900125D99CFE9CF900930EAF0A3EFF0125D9C
:1068D900A290092EEFF0900930E064077004A3E05C
:1068E90064A870067E077FA88012900930E06408CA
:1068F9007004A3E0641570127E087F1590092EE0DC
:10690900FD12132912135D0269B0900930E0640782
:106919007004A3E064ED7043900837E020E00302BF
:1069290069B0E4900933F0900933E0FF24EDF58272
:10693900E43407F583E0FE74C52FF582E4340712C9
:106949006A15B414E27A777904126A047A0779C568
:10695900125BA3900932EFF000804C900930E0649B
:10696900087004A3E06401703E900839E030E03714
:10697900E4900933F0900933E0FF2401F582E4340F
:1069890008F583E0FE74D92FF582E43407126A15FD
:10699900B414E27A777951126A047A0779D9125BC9
:1069A900A3900932EFF000304602C24612B642A265
:1069B90096B39296A297B3929730B0030268333098
:1069C900B10302683390093A7401F00268339009FF
:1069D9003BE0702153E8F720B00620B1030080F7AF
:1069E90090093B7401F0120ABE53E1FE53E2FE1214
:0B69F900051E026833120AFA02683320
:10B0FE007580FFE4F5D1F5D275D3FF7590FFF5D9C4
:10B10E00F5DA75DBFF75B0FFF5E1F5E275E3FC7876
:10B11E001DF608F6781DE6FE08E6FFC3EE942050F5
:10B12E000E8F828E83E4F006E61870E80680E54303
:10B13E00B901E58754EF4401F58775BA079005E12B
:07B14E00745AF0A374A5F090
:01B1550022D7
:0802F800FFFF187A938508014D
:0C7FF40000000000000000010000000080
:100BDC00F91218F1FF900982E0FBA3E0FAA3E0F907
:100BEC0022900AF5E0FBA3E475F0011219CFA9F0ED
:100BFC00FA0218D8245DF582E43408F583227401D6
:100C0C00F0A37408F0A3747DF0A37401F0A374082E
:100C1C00F0A374BFF07B017A08799E2274602FF5E3
:100C2C0082E43408F583E0FE749E2FF582E43408E8
:100C3C00F583EEF0900AFB22900988E0FCA3E0FD1E
:100C4C0022EB2FFFEE3AFEED39FDEC38FC021BEBEC
:100C5C007406900001021930EBF0A3EAF0A3E9222C
:100C6C009000030218F1900840E0F8A3E0F9A3E02B
:100C7C00FAA3E0FB2290085FE024D0900AFCF0E499
:100C8C00900AFB227B017A08797D9008BFE0900ADC
:0F0C9C006622900AFCE0FD900AFBE0FFC39D2258
:0B040000EF70038F9422EF14F594229C
:10040B00EF6007759B04759D0622759B0E759D11FC
:01041B0022BE
:10041C00C2AF8F828E8343871075EBAA75EB55752F
:09042C009A04E4F05387EFD2AF0B
:0104350022A4
:10043600900B04EEF0A3EFF0EB4A602C900B04E077
:10044600FEA3E0F5828E83E4938D828C83F0900B7D
:1004560005E004F07006900B04E004F00DBD000109
:080466000CEB1B70D31A80D0CF
:01046E00226B
:10046F00C2AF782BEEF608EFF6CFEDCF08ECF6081B
:10047F00EFF6CFEBCF08EAF608EFF643871075EBF0
:10048F00AA75EB55759A017830E618466030782DCD
:10049F00E6FE08E6F5828E83E0FF782BE6FC08E6A1
:1004AF00F5828C83EFF006E618700106782E06E6CB
:1004BF00187001067830E6161870CC1680C953876D
:0304CF00EFD2AFBA
:0104D2002207
:1004D300E490089DF0758BBF758D63D28ED2ABD23D
:0204E3000822ED
:1004E50090089D7412F0758B7F758DB0D28ED2AB4E
:0304F500D2082208
:0504F800C28EC2AB2220
:0E04FD00E589540F4410F589438E100204F86F
:10050B0090089DE0600414F08006C208C28EC2AB56
:03051B00C28F226A
:10051E0043BB017598405387FE759E80759F7BD2B5
:06052E009CD2ACD2AF220A
:10053400309849900845E0FF120C00E599F0EF70FF
:100544000E745D2F120C02E064246003C2982290A2
:100554000845E0B4020A120C00E024D6900844F0E6
:10056400900845E004F0E0FF900844E06F700DC28D
:0F0574009CC2CAA3F0900847E04480F0C29822CE
:10058300EFC4540F243012191E740129F9E43AFA06
:08059300EF540F243002191E81
:07059B00900AF5120C64F058
:1005A200120BED24D0C454F0FF120BED24D04FFFF8
:0105B2002226
:1005B30090085FE024D2FF900AF87401F0A3740856
:1005C300F0A3745EF0E4FEFDEDC39F500B900AF8B8
:1005D300120BF02EFE0D80F0900AF8120BE41205B8
:1005E3009BEF6E704E90085EE024CE601914601F7E
:1005F30014602514602B146031240570369008476D
:10060300E04401F0802D900847E04402F0802490FC
:100613000847E04404F0801B900847E04408F0805A
:1006230012900847E04410F08009900847E0442006
:0A063300F08000D2CAD29C43A81048
:01063D00229A
:07063E00900A63120C64F046
:10064500E4900A67F0900860E0900A68F07D2090D9
:10065500085DE4F0A3DDFCE4FD0D120C007424F04C
:100665000D745D2401120C02EFF0900A66E0FF2480
:1006750030FC0D745D2402120C02ECF0EF601FE4F7
:10068500FE900A66E0FFEEC39F5013900A63120BBB
:10069500F0FF745D2D120C02EFF00D0E80E37E016C
:1006A500EEC39D5011745D2E120C02E0FF900A6797
:1006B500E02FF00E80EA900A67E0FF745D2DF9E403
:1006C5003408FA7B011205830D0DCFEDCF0D745D56
:1006D5002F120C02740DF0D2CAE4FEEEC39D501425
:1006E500745D2E120C02E0F5992099030080FAC280
:0C06F500990E80E7900A68E0900860F021
:0107010022D5
:070702009009FD120C64F0E8
:10070900E4900A07F0ED640260030208899009FD8C
:10071900120BE41218D8FD14B40700505B9007348B
:1007290075F003A4C58325F0C58373020749020741
:100739005102075902076802077002078702077802
:10074900900846E04401800E900846E04402800685
:10075900900846E04404F0900A077401F0801F9065
:100769000A077402F080179008467407F0800FD2C8
:100779000EE4900846F08006900A077403F0900A88
:1007890007E06401706EED1425E025E0F0900A01A0
:10079900120BE4120C5CE4900A08F0900A08E0FFDE
:1007A900C394045033900A07E02FFDE433FC74F43A
:1007B9002DF582747F3CF583E493FDEF2404FFE477
:1007C90033FE900A01120BE48F828E83ED121930E9
:1007D900900A08E004F080C3900A01120BE4120C9D
:1007E9005C9000037401121930900A04120BE4742E
:1007F90008020861900A07E0FF6402702A9008461F
:10080900E0900A01B4070A120BE490000374018016
:1008190008120BE49000037405121930900A0112B2
:100829000BE49000018012EF900A01B4030F120B40
:10083900E47402120C5E90000374028010120BE43F
:1008490090000174021219309000037401121930DA
:10085900900A04120BE4740412191E900A01120B77
:10086900E4740812191E9009FD120BE41218D8FF3E
:10087900900A01120BE4900002EF1219307F012255
:020889007F00EE
:01088B00224A
:07088C0090097E120C64F0DC
:1008930090098C7401F0A37408F0A37449F09009D3
:1008A3007E120BE4120C6CFFED24FC6F6003020A52
:1008B300BB9000011218F1FFE4FCFDFE7808121B47
:1008C300B0ECC0E0EDC0E0EEC0E0EFC0E0900002AD
:1008D3001218F1FFE4FCFDFE7810121BB0D0E0FB10
:1008E300D0E0FAD0E0F9D0E0F8EF2BFFEE3AFEEDDE
:1008F30039FDEC38FCC8ECC8EDC0E0EEC0E0EFC059
:10090300E090097E120BE41218D8FFE4FCFDFED040
:10091300E0FBD0E0FAD0E0F9900988120C4D120CFC
:1009230044A3A3E0FF900846E0FEB4070EEF600B7C
:10093300120BE19000037402020A67EEB40F1D125A
:100943000C44A3E0FEA3E0FF120C72C3121B7860F9
:100953000B120BE19000037403020A67900846E050
:10096300B407124408F0120C44A3E0FEA3E0FF9086
:100973000840121BEB7F0112040BC2AF120C44A3FD
:10098300E0FEA3E0FFE4FB7A80F9F8D3121B784082
:10099300227F02120400120C44A3E0FEA3E0240011
:1009A300FFEE3480FEE43DFDE43CFC900988121B1D
:1009B300EB80057F03120400900988A3A3E0FEA344
:1009C300E0FF90097EA3E0FAA3E02404F9E43AFCF3
:1009D300CDE9CD90097EE0FBA3A3E0F9120C6CFBFB
:1009E3007A0012046FC2AF900988A3A3E0FEA3E0CC
:1009F300FF7C087D4990097E120BE4120C6CFB7A94
:100A030000120436E4FF120400D2AF12040B900963
:100A13007E120BE4120C6CFF7E00E92404F9E43A25
:100A2300FA78497C087D01121E2BEF703C120C7280
:100A3300E8C0E0E9C0E0EAC0E0EBC0E090097E1264
:100A43000BE4120C6CFFE4FCFDFED0E0FBD0E0FAFB
:100A5300D0E0F9D0E0F8900840120C4D120BE19071
:100A63000003740112193080037F002290097E1263
:100A73000BE41218D8120BE0EF12191E90097EE056
:100A8300FBA3E0FAA3E0900001120BDC900001EF5E
:100A930012193090097EE0FBA3E0FAA3E090000274
:100AA300120BDC900002EF121930900985120BE44F
:0A0AB300740412191E7F01227F0057
:010ABD002216
:100ABE00E4900846F0900840121BF700000000E496
:0E0ACE009008BEF0900845F01204FD0204E509
:0D0ADC00E4F58E75EBAA75EB5575D8032275
:100AE9007F0112040B7FFE7EFF12041CE4FF020447
:010AF9000BF1
:100AFA00C2AF900847E0FFA3F0E4900847F0D2AFF6
:100B0A00EF30E7031205B39008BEE0702C90084856
:100B1A00E030E01A9008BE7401F0E490083FF07BE0
:100B2A00017A0A79FB900A66F07F32120BD53008F7
:100B3A0003020BD4120ADC80FE9008BEE064016056
:100B4A0003020BD420080CF0300E08120AE9120A2C
:100B5A00DC80FE900848E030E23B120C81F0120C77
:100B6A009E5008120C28E004F080F3900A01120C3F
:100B7A000A120702900AFDEFF06401704D120C9000
:100B8A00F07F34120BD590087FE06407703C900820
:100B9A003FE004F022900848E030E42E120C81F085
:100BAA00120C9E5008120C28E004F080F39009827F
:100BBA00120C0A12088C900AFDEFF0BF010C120CFD
:0A0BCA0090F07F3612063E1204D3AD
:080BD4002212063E1204D32296
:106A21000000000000001000800000805F9B34FB2C
:106A31000000000000000000000000000000000055
:106A410043730503E30B0F86C71041F0AEFD9D694B
:106A5100E2485A7AD8D97C223057FA42DB598B2541
:106A6100DEAFBABE021324354657687967754730E1
:106A71004AF6D91A28DDB5B7E148AC7E3B918AA622
:106A8100D71C4533E50BE58BE88D786175A7E34BA2
:106A91000180A0FBF9820000020002000002000256
:106AA10001010100010000000000010102000100DC
:106AB100000000280010D0002D121E4B0FA4994E8B
:106AC100CEB531F405790000280313000000BD1D87
:106AD100A299E625588CD94201630D12BF9F00008F
:106AE1000800000000000000000000290202000070
:106AF1000000280313000000D9D9AAFDBD9B2198ED
:106B0100A849E145F3D8D169000014000000000054
:106B11000000000000000000000000000000000074
:106B210000280313000000FB7B7CCE6AB344BEB592
:106B31004BD624E9C6EA2200001400000000000040
:106B41000000000000000000000000000000000044
:106B510029020200006AB06AC76ADF6AEA6AF16B59
:106B6100096B206B386B4F01070001071E01074EAF
:106B710001077001077701078F01073601075901E6
:106B81000717000003930000050200000A27000018
:106B91000A9500000D93000010FA00001124000076
:106BA1001451000016CB000017F2000019E3000099
:106BB1001B6300001CB300001D4F00001E520000AB
:106BC1001EC200001F5B00001FF3000021E900004E
:106BD100224100002312000023320000236C000038
:106BE10023DF00002436000025000000254B0000B3
:106BF10025BC000026080000264A000026B000003F
:106C010026BB0000306500003EE1000050E40000BA
:106C110056CD0000617100006D52000088650000D2
:106C2100A0400000B3620000C6100000CDFE0000CD
:106C3100DB700000F4B90000F76F00040CCE000413
:106C4100155200041E64000426650004489A0004DD
:106C51004BED000452F300045453000469F800049E
:106C6100D3CF0004DB560004E5360004F13E0004F6
:106C7100F7E4000800070008669800086D41000865
:106C81007045000874020008F4AB000C1539000CC3
:106C91003021000C3E9F000C4DE9000C5101000C0D
:106CA10074C2000C771A000CBC9F000CD746001070
:106CB1001C0C001040F30010417F001093E90010FC
:106CC1009ADD0010DDB10014109F00145A05001464
:106CD1008FC6001499E20014BD610018203200181B
:106CE10034510018659000189EFC0018AF6100181F
:106CF100AF8F0018E7F40018EE690018F643001C86
:106D01001AC0001C36BB001C5CF2001C9148001C20
:106D11009E46001CABA7001CE62B00203CAE0020C9
:106D2100768F002078F000207D7400209BCD00201C
:106D3100A2E40020AB370020C9D00020EE280024B7
:106D41001EEB0024240E00245BA70024A074002461
:106D5100A2E10024AB810024E3140024F094002478
:106D6100F67700280B5C0028373700285AEB0028FB
:106D71006AB800286ABA0028A02B0028CFDA0028B8
:106D8100CFE90028E02C0028E14C0028E7CF0028BB
:106D9100ED6A0028F076002C1F23002C200B002C1C
:106DA1003361002CB43A002CBE08002CF0A2002C58
:106DB100F0EE003010E4003035AD0030636B003090
:106DC10090AB0030F7C5003408BC00341298003491
:106DD100159E0034363B003451C90034A39500346C
:106DE100AB370034C0590034E2FD00380F4A003897
:106DF100484C003866F0003871DE0038B54D003877
:106E0100C9860038CADA003C0754003C15C2003C70
:106E11002EF9003C2EFF003CAB8E003CD0F8003C2C
:106E2100E072004030040040331A00403CFC004056
:106E31004D7F00406C8F00409C280040A6D9004047
:106E4100B3950040D32D0044001000442A60004453
:106E51004C0C0044D8840044FB4200483B380048B5
:106E6100437C00484BAA004860BC0048746E00484F
:106E7100A1950048BF6B0048D7050048E9F1004CD7
:106E81003275004C57CA004C74BF004C7C5F004CFB
:106E91008D79004CB1990050323700507A5500502D
:106EA10082D50050EAD600542696005433CB0054C4
:106EB1004E900054724F00549F130054AE2700545B
:106EC100E43A0054EAA800581FAA0058404E00585E
:106ED10055CA00587F570058B0350058E28F005C02
:106EE1005948005C8D4E005C95AE005C969D005C3F
:106EF10097F3005CADCF005CF5DA005CF7E6005C6F
:106F0100F938006003080060334B00606944006099
:106F1100921700609AC10060A37D0060C5470060C0
:106F2100D9C70060F4450060F81D0060FACD00602B
:106F3100FB420060FEC50064200C006476BA006468
:106F41009ABE0064A3CB0064A5C30064B0A600642C
:106F5100B9E80064E6820068092700685B350068CB
:106F6100644B0068967B00689C700068A86D00689F
:106F7100AE200068D93C0068DBCA0068FB7E006C6B
:106F810019C0006C3E6D006C4008006C709F006C75
:106F910072E7006C8DC1006C94F8006C96CF006CA8
:106FA100AB31006CC26B00701124007014A600702C
:106FB1003EAC0070480F007056810070700D00707B
:106FC10073CB007081EB0070A2B30070CD600070D4
:106FD100DEE20070E72C0070ECE40070F0870074D2
:106FE1001BB20074811400748D080074E1B6007442
:106FF100E2F5007831C100783A8400784F43007897
:1070010067D700786C1C00787B8A00787E610078F5
:10701100886D00789F700078A3E40078CA39007801
:10702100D75F0078FD94007C0191007C04D0007C46
:1070310011BE007C5049007C6D62007C6DF8007CC3
:10704100C3A1007CC537007CD1C3007CF05F007C0C
:10705100FADF0080006E008049710080929F0080FD
:10706100B03D0080BE050080D6050080E65000805E
:10707100EA960080ED2C008429990084383500843B
:1070810041670084788B00848506008489AD008483
:107091008E0C0084A1340084B1530084FCAC0084C4
:1070A100FCFE00881FA100885395008863DF0088DB
:1070B10066A500886B6E0088C6630088CB87008850
:1070C100E87F008C006D008C2937008C2DAA008C84
:1070D1005877008C7B9D008C7C92008C8590008C75
:1070E1008EF2008C8FE9008CFABA009027E40090B0
:1070F1003C92009060F1009072400090840D0090ED
:107101008D6C0090B0ED0090B21F0090B9310090ED
:10711100C1C60090FD61009494260094E96A009430
:10712100F6A3009800C6009801A7009803D800981C
:1071310010E800985AEB00989E630098B8E3009815
:10714100D6BB0098E0D90098F0AB0098FE94009C63
:1071510004EB009C207B009C293F009C35EB009CAC
:107161004FDA009C84BF009C8BA0009CE33F009CF5
:10717100F387009CF48E009CFC0100A0182800A05D
:107181003BE300A04EA700A0999B00A0D79500A0CB
:10719100EDCD00A4313500A45E6000A4670600A413
:1071A100B19700A4B80500A4C36100A4D18C00A4C8
:1071B100D1D200A4E97500A4F1E800A8206600A8D6
:1071C1005B7800A85C2C00A860B600A8667F00A8C8
:1071D10086DD00A8880800A88E2400A8968A00A849
:1071E100BBCF00A8BE2700A8FAD800AC1F7400AC22
:1071F100293A00AC3C0B00AC61EA00AC7F3E00AC2C
:1072010087A300ACBC3200ACCF5C00ACE4B500ACF1
:10721100FDEC00B019C600B0349500B0481A00B0BA
:1072210065BD00B0702D00B09FBA00B0CA6800B44F
:1072310018D100B44BD200B48B1900B49CDF00B458
:10724100F0AB00B4F61C00B8098A00B817C200B848
:1072510044D900B853AC00B8634D00B8782E00B8DB
:107261008D1200B8C11100B8C75D00B8E85600B86A
:10727100F6B100B8FF6100BC3BAF00BC4CC400BC20
:1072810052B700BC543600BC677800BC6C2100BC0E
:10729100926B00BC9FEF00BCA92000BCEC5D00C05C
:1072A1001ADA00C0639400C0847A00C09F4200C013
:1072B100A53E00C0CCF800C0CECD00C0D01200C0A9
:1072C100F2FB00C42C0300C4B30100C81EE700C8D0
:1072D1002A1400C8334B00C83C8500C869CD00C8DA
:1072E1006F1D00C8855000C8B5B700C8BCC800C82C
:1072F100E0EB00C8F65000CC088D00CC08E000CCD3
:1073010020E800CC25EF00CC29F500CC446300CC6B
:10731100785F00CCC76000D0034B00D023DB00D0E6
:10732100259800D0331100D04F7E00D0A63700D071
:10733100C5F300D0D2B000D0E14000D4619D00D4AB
:107341009A2000D4DCCD00D4F46F00D8004D00D8D1
:107351001D7200D8306200D88F7600D8969500D87B
:107361009E3F00D8A25E00D8BB2C00D8CF9C00D88D
:10737100D1CB00DC0C5C00DC2B2A00DC2B6100DCB7
:10738100371400DC415F00DC86D800DC9B9C00DC0C
:10739100A4CA00DCA90400E05F4500E0667800E0D3
:1073A100ACCB00E0B52D00E0B9BA00E0C76700E062
:1073B100C97A00E0F5C600E0F84700E425E700E4FB
:1073C1002B3400E48B7F00E498D600E49A7900E442
:1073D1009ADC00E4C63D00E4CE8F00E4E4AB00E8B3
:1073E100040B00E8068800E8802E00E88D2800E8FC
:1073F100B2AC00EC358600EC852F00ECADB800F0A6
:10740100247500F0796000F0989D00F099BF00F0BC
:10741100B0E700F0B47900F0C1F100F0CBA100F0C9
:10742100D1A900F0DBE200F0DBF800F0DCE200F0D3
:10743100F61C00F40F2400F41BA100F431C300F486
:1074410037B700F45C8900F4F15A00F4F95100F8FF
:10745100037700F81EDF00F8279300F8621400FCA0
:0E746100253F00FCD84800FCE99800FCFC48E0
:102F2C0057070000000000280010D0002D121E4B87
:102F3C000FA4994ECEB531F4057958071E00002820
:102F4C000313000000BD1DA299E625588CD942013F
:102F5C00630D12BF9F4B074E0000080000000000DD
:102F6C000000004707700000290202000058077794
:102F7C000000280313000000D9D9AAFDBD9B21989D
:102F8C00A849E145F3D8D16957078F000014000018
:102F9C000000000000000000000000000000000025
:102FAC0000005807360000280313000000FB7B7C50
:102FBC00CE6AB344BEB54BD624E9C6EA22570759AC
:102FCC0000001400000000000000000000000000E1
:102FDC000000000000000047071700002902020053
:012FEC0000E4
:10606600900922E0FF90780175F002121C28E49353
:10607600FC740193F5828C8322F0900923E004F0EE
:10608600EF90780175F002121C28E493FE740193D8
:10609600F5828E8322F0A37403F0A37428F07407AC
:1060A6009002A9F0E4A3F0A37404F0E4A3F07B014A
:1060B6007A0279A922E0FF906B6875F003ED121C55
:1060C60028EC75F003A42583F583021C46121C34C4
:1060D6009000011218F175F080A42400FFE5F03459
:1060E6007BFE7B017A037943900A83E4F0A3740272
:1060F600F022A3E075F00390788B121C28021C4650
:10610600900A94121C349000010218F1EF2402FF49
:10611600E433FEE075F002907801121C28E4932225
:10612600900A55E07F00FEEF2400F582747A3EF572
:1061360083E5822DF582E5833CF583E49322EFFD2A
:106146007414C39DFDE49400FC74A92DF5827402B9
:106156003CF583E0FE229002AD7404F090071FE048
:10616600FE2402FDE433FCD3ED94FFEC64809480BE
:1061760022F583E0FE74432FF582E43403F583228F
:106186003EF583E49304FD900A52021C34EE240289
:10619600FE9002AEF090071EE0FD9002AFF0A3EE77
:1061A600F0A3EDF0229002AD7412F074059002A9EE
:1061B600F0E4A3F0A37404F0E4A3F02290071FE038
:1061C6002402FE9002AEF0EF04FFA3F0A3EEF0A3CC
:1061D600EFF0227404939000051219307B017A03C4
:1061E600790322E493FF900923E024A9F582E4349D
:1061F60002F583229002ADE0FFA3E0FDA3E0FB9051
:1062060009F322900A55E0FFC374019FFFEF7F0058
:10621600FEEF22900A56E475F0010219B974029055
:1062260002A9F0E4A3F07406A3F0E4A3F0A322907D
:106236000952E004F0E0FF90059BE0228D82758311
:10624600001218F1900A8EFFED2406FDE433FC12CD
:106256001C348D828C83221313543FFD7F00FEEF86
:106266002402F582747A3EF583E493FF90000202DD
:1062760018F1900A8DE0FFA3121C34900004EF126F
:10628600193075F002EF9079E422740193FF9002C1
:10629600AEE0FEEF227401F090205EE0FEA3E0FD8A
:1062A600ED2440FFE43E9005DFFEE0FCA3E0FDC3E5
:1062B60022FE740193FFF5828E8374029322900B63
:1062C60008E075F003A42468F582E4346BF58302D4
:1062D6001C46E493FE9002AFE0FDEE22FEE5822F1F
:1062E600F582E5833EF583E493FF223EF583E4934E
:1062F60004900001121930900A58E4F0A322258276
:10630600F582E43583F583E49322FC7401932FF53B
:1063160082EC3EF583E493227401F09002B1E0FF33
:106326009002AFE0FE6F228D827583000218F19015
:10633600058FE0FEA3E0FFC32274432FF582E43409
:1063460004F583EEF00FEF22ED7F00FEEF2442F519
:1063560082747A3EF583E493227404F0900A92E004
:1063660004F022121C28E493FA740193F5828A83BE
:1063760022900A92E0FFC3940222900A8DE0FF75F4
:10638600F0029079E422C8ECC8C9EDC9CAEECACBBE
:10639600EFCBE0FFE4FCFDFE121B55900973021BD8
:1063A600EBFDE0FAA3E0FBEF2BFFEE3AC313FEEFA3
:1063B60013FF900978EEF0A3EFF06D227C007D03C9
:1063C600121952EF2410FFE43EFEC39005E0E09F51
:1063D600FF9005DFE09E22907C0075F080021C286D
:1063E600EF2402FFE433FE222403FFE433FE90028F
:1063F600A9E0D39FEE6480F874809822900A37E073
:106406002402FDE433FC229002B2E02401FDE433D1
:10641600FC900703E0FEFBD3ED9B7480F86C98229A
:106426001313543F7F00FEEF2482F582747A22A470
:10643600FFE5F0F0A3EFF0A2AFE433228F828E8364
:10644600740393FF22FA7401932DF582EA3CF583D7
:10645600E49322900B07E025E0FF900B06E033FE65
:1064660074562FF582746B3EF5832275F002EF9019
:10647600795A22E0FF24B0F582E43402F583E0FE87
:1064860022EEF0900A8CE004F022900A59E02440B3
:10649600FF900A58E0340022E0FEE42400FFEE22DA
:1064A600E412191E900A56F0A3F0229002A974066F
:1064B600F09002AD7401F09002AF04F0E4A3F0A3F3
:1064C60022A3E0FD9002AEE0D39D22740193FF90DB
:1064D60002B0E0FEEFD39E22EFF0900923E004F035
:1064E600900921E022E0FFFDD390059EE09D9005F6
:1064F6009DE0940022900A55E0FFC322ED90000231
:10650600021930D23E9002A9E024FD22F583EEF076
:1065160090098FE004F022E493FE9002B1E0FDEED4
:10652600D39D22900574E0C3940122900343F0A307
:10653600F0A2AFE433F510C2AF221218F19002AE0A
:106546002402F00218D8900A8CE0FFC39402222499
:1065560083F582746B3EF583121BCF900973021B81
:10656600DF900A55E004F0227F00FEEF2400F5825A
:10657600747A22EF90000102193090205EE0FEA3AB
:10658600E0FDEDFF2440FDE43EFCD322E0FF900B4E
:1065960006E0FCA3E0FD906B6875F0032290051001
:1065A600F01218D8900511F0E4900A35F022900701
:1065B60071E09002AEF0900770E09002AFF022908A
:1065C6000718E09002AEF0900717E09002AFF022B5
:1065D600EDF0900AB2E004F0229000030218F19068
:1065E6000A8DE0FF90059DE02275F003EF9079E6B5
:1065F60022900978E0FEA3E022900A56E4F0A32256
:10660600E4FF900582E0FE2274B42FF582E43402A2
:10661600F5832290059CE024FFFF90059BE034FF64
:10662600FE22E412191E900A58F0A3F0900A55F0C3
:1066360022900582741EF0E490057EF0C24322A2E9
:10664600AFE433F50EC2AF22FE7B017A03794390A5
:106656000A83E4F0A322900A55E07F00FEEF22EFC2
:106666002402F582747A22900A56E0FEA3E0FF2205
:1066760090050FF0900A33E0240390050B2274B2C4
:106686002EF582E43402F583E0FE22EFF090095302
:10669600E004F0900951E0227401F0E4A3F02290A6
:1066A600090EE0FE90090DE0FFD39E227B017A02DF
:1066B60079B0900A3B021C3D74F1F090005674D1FB
:1066C600F07591082275F002EE9078012274049319
:1066D600FE900A8CE0FDC39E22740493FE900A92FB
:1066E600E0FDC39E22900973121BC37808021BB0FB
:1066F600E475F0400219B924C2F582747A3EF58336
:10670600E49322C374059FFFE49E222402F582745B
:106716007C3EF583E49322FF9002AFE024FE22EF55
:1067260024C0F582747A22EF2480F582747A22EFEF
:106736002440F582747A227401935403FF900A3739
:10674600F022F0900A35E004F022900950E0FF9024
:106756000952E022900950E0FF90094FE02290078D
:1067660002E0F99002B3E022F582E43402F583EF09
:10677600F022E004F0900572E014FF229002ADF0E2
:106786009002A9740122900922E004F022A2AFE44B
:1067960033F50D228F82758300EE021930900A8D33
:1067A600E004F022121C340218D8900A93E004F098
:1067B60022FE74AE2FF582E4340222EEF090096ACE
:1067C600E004F0E022EF9DFFEE9CFEC3E09F22A3D3
:1067D600A3E0900343F0A3F022900A33E0FF900A6F
:0367E60035E02279
:1032C400EF121C5232E10032E40132E70232EA0327
:1032D40032ED0432F00532F306000032F602340116
:1032E40002340202340302340402340502342A1282
:0332F40034602221
:1032F700EF121C5233A100335C01335F02336203C8
:10330700336504336805336B06336E07337108334F
:10331700740933770A337A0B337D0C33800D33838B
:103327000E33860F338910338C11338F1233921378
:1033370033A11433A115339516339817339B1833DC
:103347009E1933A11A33A31B33A11C33A91D33AC18
:103357001E000033AF02346F0234A50234BF0234BB
:10336700C002364A02378A0238F602394E023C4812
:10337700023E1D023EFE023EFF02405F0240600227
:10338700406902406A0243D50243D602476C0247AE
:103397006D02477602477702478080030247810222
:0933A700346E02480112480222B2
:1033B000EF121C5233DC0033DF0133E20233E5034A
:1033C00033E80433EB0533EE0633F10733F4083307
:1033D000F70933FA0A33FD0B00003400024B970261
:1033E0004B98024C66024C67024CE5024DD2024DEE
:1033F000E6024DF2024E23024E37024FEF12500307
:0134000022A9
:0134010022A8
:0134020022A7
:0134030022A6
:0134040022A5
:103405009002ADE0FF54E07009EFD3941E50150211
:1034150032F79002ADE0242E600724807006024842
:0534250005124B962288
:10342A009002ADE0FFD394135017EF14602724EEF7
:10343A0070099002B1E0900571F0221264B1F08037
:10344A00071264B17402F0E41260B29002A9E02497
:05345A0004FD12035EF9
:01345F00224A
:0D3460009002ADE0FFC3940C50031233B096
:01346D00223C
:01346E00223B
:10346F0090057EE0FFB401028028EFC3940A502537
:10347F0090071EE0FF7004A3E0601712615C500517
:10348F0012619380031261C274051260A67D090256
:06349F00035E12663722F5
:1034A5009002AD7403F0900572E09002AE1260B028
:0A34B5009002A9E02404FD02035E6A
:0134BF0022EA
:1034C000D24A12632170091264C7500BC24A8007A6
:1034D000EEC39F5002C24A9002AEE0FD7006A3E028
:1034E0007002D24A304A129002ADE0FF9002AFE083
:1034F000FB9009F37401023645D24AE4900AB2F017
:10350000900AB21260691262D8C39D40161260869A
:10351000126290C39E400C900AB2E0900AAFF0C2D3
:103520004A800D900AB21262387003A3E06F70D027
:10353000204A2B900AB212606912651D5020126059
:10354000861264D15018900AB2E0900AB0F0126569
:10355000D8900AB212623B7003A3E06F70D5304A74
:10356000030236409002AD7405F0900AAFE0907906
:103570005A12608A74019354039002AEF0900AB319
:10358000F0900AB17402F0A37406F0900AAFE0FF65
:1035900090795A12606E7401935403FE900AB3E05E
:1035A0006E6003023631900AAFE0FE12606B740168
:1035B00093FD900AB21261EF1265D61266CB1260CB
:1035C00071E493FE900AB21261EFEE1265D71250C9
:1035D00020CCEFCC900AB2E02FFE900AB1E02F246D
:1035E00002F00C900AB2E0FFC39E501A900AAF128C
:1035F000611912636E2C126306FD74A92F1261F219
:103600001265D61C80DD900AB1E0FF900572E0C320
:103610009FFF900AB2E014FEEFC39E4014900AAFE1
:10362000E004F0A3E0FF900AAFE0D39F500302351F
:103630008B900AB1E0FF1260A6EF2404FD02035E46
:093640001261FA740AF012B66F6F
:01364900225E
:10364A00D24BE4FDFC12671EC394FE401C1260BDFF
:10365A0012610C12671D6F702B1218D8FF9002B0FE
:10366A00E0146F701FC24B80261260BD12610C12EB
:10367A00671D6F700F1218D8FF9002B0E06F7004C8
:10368A00C24B800B0DBD00010CED64094C70B630C5
:10369A004B03023789906B6E1260C01265DFFF9090
:1036AA0002B1E06F6003023789126272FF9002B2C0
:1036BA00E06F60030237899002AFE012657A9002E8
:1036CA00B0E0FF906B6E1260C0EF12191ED24BE48D
:1036DA00FCFD1260BD1218D8702612610C702112FE
:1036EA0062726429701A1265DFB40214906B621256
:1036FA0060C01218D8700512610C6004C24B800BAE
:10370A000DBD00010CED64094C70C7204B589002A6
:10371A00AD7404F0906B621260C012610C1263E720
:10372A00D3EF94FFEE6480948090000150121265EA
:10373A00409002AFF012610C9002B01265468015FB
:10374A00126540049002AFF012610C24029002B09C
:10375A00F01218D8049002B1F09002A97405126010
:10376A00A97D0902035E900582741FF090057E749C
:0F377A000AF0C243900566E06403600312500337
:01378900221D
:10378A00900AB412631E70071264C7500C8005EECB
:10379A00C39F5005E4900AB4F09002AEE07009A30A
:1037AA00E07005900AB404F0900AB4E0700E90023A
:1037BA00B3E064286006900AB47406F0900AB4E094
:1037CA006003023865740AF09002A9E0900AB7B45F
:1037DA0017057410F080037402F0E4900AB8F090B0
:1037EA000AB81261191262B7FD9002B3E0FCED6CDF
:1037FA00705C1264429002B2E0FEEF6E7050FF906D
:10380A000AB7E0FEEFC39E50131260F88F8212636C
:10381A002FFD12660EE06D70030F80E3EF6E702EBF
:10382A00900AB81260691262D8C39D40211260865C
:10383A00126290C39E4017900AB8E0900AB5F0A3AE
:10384A00F0E4900AB4F0900AB8E004F0800D900A0F
:10385A00B81262387003A3E06F7084900AB4E07003
:10386A0034900AB81261191262B7FD9002B3E0FCF3
:10387A00ED6C700C1264429002B2E0FEEF6E6015BD
:10388A00900AB8E0900AB6F0900AB812623970034A
:10389A00A3E06F70CC900AB4E09002AD703A74075E
:1038AA00F0900AB51260697401939002AE126085B5
:1038BA00E4939002AFF0900AB61260697401939093
:1038CA0002B0126085E4939002B1F09002A97405E7
:1038DA001260A97D0902035EE0FFA3E0FDA3E0FBFD
:0B38EA00900AB4E09009F3F012B66FF2
:0138F50022B0
:1038F60090057EE06401704F9002AFE0900700F003
:103906009002AEE0900701F09002B1E0900702F05D
:103916009002B0E0FF900703F09002AD7408F090BB
:103926000701E09002AEF0900700E09002AFF0A32E
:10393600EFF0900702E09002B112609B7D0B12033C
:083946005E90057E7402F02280
:10394E0090093C12631E70071264C7500C8005EE7E
:10395E00C39F5005E490093CF09002AEE07009A3BD
:10396E00E0700590093C04F090093CE07038740A50
:10397E00F0E4900952F09009521260691262D8C3B5
:10398E009D4019126086126290C39E400F9009529C
:10399E00E090093DF0E490093CF0800A1262357027
:1039AE0003A3E06F70D090093CE0702D740AF09084
:1039BE00095212606912651D501F1260861264D181
:1039CE005017900952E090093EF0E490093CF01235
:1039DE0062357003A3E06F70D690093CE0702290C0
:1039EE0002A9E0FFB407089009507402F08012EFAC
:1039FE00B415089009507410F0800690093C7404B8
:103A0E00F090093CE07074740AF090093EE0FF906B
:103A1E00093DE0D39F5064E4900952F0900950E0C4
:103A2E00900953F0126750FE6F603BA3E014F090C4
:103A3E00093DE012606BC083C082900953E0FF1213
:103A4E006406D082D083126137FD1266846D6002E7
:103A5E008014743F2FF582E43409F583EEF090095B
:103A6E0052E004F080BE1267506F700690093CF071
:103A7E00800990093DE004F0023A1890093CE0609C
:103A8E0003023BEA9009517402F09009537406F058
:103A9E00E4900952F090093EE0FE90093DE0FDD31E
:103AAE009E4003023BEA900950E00490094FF0CF8C
:103ABE00EDCF125020900950E06F700490094FF036
:103ACE0012675AFEC39F502590093DE012606BEEBF
:103ADE00126406126137FF743F2EF582E43409F545
:103AEE0083E06F700890094FE004F080D312675A9C
:103AFE006F6003023BE190093DE0FF1250359009E3
:103B0E003CEFF07018A3E0FF12604C90093CEFF010
:103B1E00600B1260F812B9BB90093CEFF090093CB3
:103B2E00E06003023BEA90093DE0FF125020EF12E5
:103B3E00640690093DE0FF12611A12644B2402FEE6
:103B4E00FD125FFECEEFCE900572E0FF2405FD90D4
:103B5E000953E0FCC3ED9CFDEEC39D500690094F4A
:103B6E00EE800BEC64067074EF24FE90094FF0901B
:103B7E00093DE0900952F0900952E0605690093DDF
:103B8E00126069740193FE9009531261EFEEF0908A
:103B9E000953126083E493FF9009531261EF12668A
:103BAE00912402F090094FE024FEF0E4FE90094FBC
:103BBE00E0602090093D1260F98E8212632FFF9013
:103BCE0009531261EF12669104F00E90094FE01442
:103BDE00F080DA90093DE004F0023AA390093CE04F
:103BEE007041900951E01261B3A37409F09009522B
:103BFE00E0FF12502090095212611212631024023B
:103C0E00FF9002AEF0900572E024FEFEEFD39E40D0
:103C1E00059002AEEEF01260B4900951E02404FD5E
:103C2E0002035E9002ADE0FFA3E0FDA3E0FB90096E
:093C3E003CE09009F3F012B66FAE
:013C4700225A
:103C480090057EE0FF6402600DEF64036008EF6496
:103C5800046003023E1CD24CE4900B06F0A3F01261
:103C68006459E4931262B764287039740393640347
:103C78007032FDFC126459126090ED2408FFE43C98
:103C88001262E274B42D126611E0FEEF6E700B0D35
:103C9800BD00010CED64104C70DAED64104C70043A
:103CA800C24C8012900B0612621C900B06E0700446
:103CB800A3E0640970A9304C03023D9E9002AF1244
:103CC80065921260C41265799002B01260BBEF125F
:103CD800191E9002B11265921260C4900005EF128D
:103CE80019309002B21260BB900007EF12193090A1
:103CF80002B3E0FE1260BD900006EE121930906B20
:103D08006B1260C01265799002B3E0FF906B6B1282
:103D180060C0EF12191E90057EE004F0E0D3940411
:103D2800504B12676499502712640D5003023DAA44
:103D380090071EE0FF7007A3E07003023E191261AE
:103D48005C5006126193023DE61261C2023DE690A4
:103D5800071EE0FF7004A3E0601012615C500512BA
:103D6800619380031261C2023DE6023E1990057E0E
:103D7800E064056003023E1C90071EE0FF7007A385
:103D8800E07003023E1C12615C50051261938003CF
:103D98001261C2023DE6126764D399504F12640D56
:103DA80050249002AD7408F09002B2E0049002AE84
:103DB800F09002B3E09002AFF0A3EEF0A3E9126036
:103DC8009B7D0B023E1690071EE0FF7004A3E06087
:103DD8001912615C500512619380031261C290024E
:103DE800A974051260A97D098024802590071EE02A
:103DF800FF7004A3E0601A12615C500512619380A1
:103E0800031261C29002A974051260A97D09020318
:043E18005E12663799
:013E1C002283
:103E1D00900AD212669E900AD31260691262D86D12
:103E2D00700F1260861262906E7006900AD2F0804A
:103E3D000D900AD31262387003A3E06F70D8900A08
:103E4D00D2E0700BA3E0FF125035900AD2EFF09044
:103E5D000AD2E07018A3E0FF12604C900AD2EFF086
:103E6D00600B1260F812B9BB900AD2EFF0900AD233
:103E7D00E0FE60081261FAEEF002B66FE4900AD42B
:103E8D00F0A304F0900AD3E0FF125020EF12640665
:103E9D00900AD3E0FF12611A12644BFE900AD2F021
:103EAD00FD125FFE900AD2EFF0900AD2E0FF900A69
:103EBD00D4E0FEC39F5024900AD31260F98E821273
:103ECD00632FFF74AE2E12676E900AD4E004F0A338
:103EDD00126778900AD5E0D39F40CE9002AD740B57
:103EED00F0900AD5E0FF1260A6EF2404FD12035EE8
:013EFD0022A2
:013EFE0022A1
:103EFF00C24D900A8512669E900A86126069126200
:103F0F00D86D700F1260861262906E7006900A85DF
:103F1F00F0800D900A861262387003A3E06F70D89C
:103F2F00900A85E0700BA3E0FF125035900A85EFE1
:103F3F00F0900A85E07018A3E0FF12604C900A859C
:103F4F00EFF0600B1260F812B9BB900A85EFF0909A
:103F5F000A85E0703BA3E0FF125020EF1264069039
:103F6F000A86E0FF12611A12644BFE900A88F0FD78
:103F7F00125FFE900A88EFF0900572E024FDFEEFCD
:103F8F00D39E500C9002B0E06006900A85740BF03F
:103F9F00900A85E07035900A88E02401FFE433FE33
:103FAF009002B0E0FD7C001263F84008900A85741F
:103FBF0007F08017ED6F7002EC6E700F740D1267C3
:103FCF00821260A97D0512035ED24D304D0302406F
:103FDF005E900A85E0FE60081261FAEEF002B66F9D
:103FEF00E4900A87F0900A8904F09002B0E0900AFA
:103FFF008AF0900A87E0FF900A8AE02FFFE433FEF1
:10400F00900A88E0FDC3EF9D7480F86E98502B9056
:10401F000A861260F98F828E831218F1FF900A8739
:10402F00E024AE12676E900A87E004F0900A8912BE
:10403F006778900A89E0D39F40B89002AD740DF075
:0F404F00900A89E0FF1260A6EF2404FD12035EC1
:01405E00223F
:01405F00223E
:094060001261FA7406F002B66F59
:014069002234
:10406A0090090B12631E70071264C7500C8005EE8C
:10407A00C39F5005E490090BF09002AEE07009A3CB
:10408A00E0700590090B04F090090BE0706A740A5D
:10409A00F0E4900922F01260661262D8C39D4014BF
:1040AA00126086126290C39E400A900922E090092B
:1040BA000DF0800D9009221262387003A3E06F7030
:1040CA00D590092212623B7003A3E06F602A126046
:1040DA006612651D50221260861264D1501A900928
:1040EA0022E090090EF0E490090BF0900922126286
:1040FA00387003A3E06F70D690090BE0702290022B
:10410A00A9E0FFB407089009207402F08012EFB406
:10411A0015089009207410F0800690090B7404F0B9
:10412A0090090BE060030241E17410F0E490092267
:10413A00F0900920E0900923F0900920E0FF90090F
:10414A0022E0FE6F601BA3E014F01266849009233C
:10415A00E0240FF582E43409F583EEF012678C80CF
:10416A00D8EFB4021690090FE06428706AA3E0D36E
:10417A0094015063E490090BF0805C900911E064AB
:10418A00287054A3E0D39401504D90090FE0704772
:10419A00A3E070439009227404F0900922E0FFC35F
:1041AA009410501AE0FE906A2193FD740F2EF58246
:1041BA00E43409F583E06D700512678C80DCEFB496
:1041CA001015E490090BF0900911E090090FF09096
:1041DA000912E0900910F090090BE07038740AF0A7
:1041EA001266A55030125020EF6402702090090D1B
:1041FA001261191262B7FD90090FE06D700F126417
:10420A0042900910E06F70051243C7800890090DAB
:10421A00E004F080CB90090BE0FE60081261FAEE30
:10422A00F002B66F9009217402F09009237406F027
:10423A001266A5400302439A125020EF64026003FB
:10424A0002439190090D1261191262B7FD90090F8C
:10425A00E0FCED6C6003024391126442900910E0A5
:10426A00FEEF6E60030243911243C7600302439A52
:10427A0090090DE0FF1250201263E690090DE0F953
:10428A0012611AFC740193FD1263142404FF90094D
:10429A000CF0900572E02404C39FFF900923E0FE0E
:1042AA00C39F400302439A90090CE090091FF090C3
:1042BA00090DE0FF8D828C83740193FD74A92E127F
:1042CA0061F2ED12607F1261E91264DE2402F012DB
:1042DA006619E96F7001EE604490090DE0049009D7
:1042EA0022F0126619900922E0FDC39FE49E503520
:1042FA0075F002ED12611D1262B7FD90090FE0FC24
:10430A00ED6C7014126442900910E0FEEF6E7008B2
:10431A00900922E014F0800D12678C80C590090D77
:10432A00E0900922F0126066740193FE1261ECEECD
:10433A0012607F1261E91264DE2402F090091FE024
:10434A0024FCF0E490090CF090091FE06025900924
:10435A000D1260F990090CE0F58212632F1261EBDD
:10436A001264DE04F090090CE004F090091FE014D6
:10437A00F080D5900922E0FF90090CF0A3E09009A3
:10438A0022F090090DEFF090090DE004F002423A94
:10439A009002AD7411F0900922E0FF1250209009AA
:1043AA002212611212631024049002AEF0900921C5
:0C43BA00E0FF1260A6EF2404FD12035E79
:0F43C6002290090DE0FF12503590090BEFF02205
:0143D50022C5
:1043D600126793900A8B12669E900A8C126069127D
:1043E60062D86D700F1260861262906E7006900A27
:1043F6008BF0800D900A8C1262387003A3E06F7008
:10440600D8900A8BE0700BA3E0FF125083900A8BC2
:10441600EFF0900A8BE0701DA3E0FF1250201263AC
:10442600E6900A8C1261191263101263EE40069030
:104436000A8B740DF0900A8BE07051A312606974B8
:1044460003936455704612647112608DE493FF64A1
:10445600206005EF64027034900A8CE0FF75F0026C
:10446600907803126071740393B4022075F003EF21
:1044760090788E1261001218D87008900A8B748199
:10448600F08009301706900A8B7480F0900A8BE052
:10449600702DA3E0FF12604C900A8BEFF0602012A3
:1044A60060F8EBC0E0EAC0E0E9C0E01266B2D0E036
:1044B600F9D0E0FAD0E0FB12B883900A8BEFF090C7
:1044C6000A8BE0FE60081261FAEEF002B66FE49025
:1044D6000A8DF012650BFF900A8DE0C39F501112F2
:1044E6006479900A8C1260F912679A1267A380E3C6
:1044F600900A8CE0FF75F00290795A12607174018F
:104506009330E232900A8DE0FEEEC0E012502012A7
:1045160063E6900A8CE0FD12611AFA7401932FF596
:1045260082EA1262EA75F003ED1260FD8F827583EE
:1045360000D0E0121930126509900573F0900A8CCC
:104546001260F99009D1121C3D7413126782126031
:10455600A97D0512035E1265295003024747E490C0
:104566000A8DF0900A8D1264EB4034900A8CE0FEBE
:1045760012606BE493FD126288126369E4936D70B6
:1045860018EE126087740193FF900A8DE01263851E
:104596001260717401936F60061267A30245691277
:1045A60065E57003A3E06F70030247471261E212EC
:1045B60047481218D860030247471261E21247546F
:1045C6001218D8700302470C1261E21247481261B2
:1045D600E27F081250D1900A8E121C3D12610C70B7
:1045E60050907E8293F470030246B07F021257A663
:1045F600E4900A8CF012654C500A12617B74041226
:10460600648880F1126793C2AF1260E87F007E7EF5
:10461600122611E4900A8CF012654C500A12617B46
:10462600740512648880F11260E87F807E7E0246FF
:10463600A7900A8E126109FF907B821263E0E493D1
:10464600F46067EF14FF30E061605FC313FF125739
:10465600A6E4900A8CF012654C5010900A8E1261F6
:104666000924FE12617A12648780EB126793C2AF47
:10467600900A8E1260D3122611E4900A8CF012650D
:104686004C500F900A8E1261091412617A126487D7
:1046960080EC900A8E12610975F080A42480126065
:1046A600E2122611E50D24FF92AF12A9E2900A8EBE
:1046B6001267AA7051900A8DF0900A8DE0FFD39090
:1046C600059EE09F1264F4403DE4900A8CF012636C
:1046D600801260711266D350121265EF12610012D9
:1046E6006242EF12193012648980E3126278126016
:1046F6008D1261D91247601261E212475412A9E283
:104706001267A30246BF1265E57003A3E06F60312E
:10471600E4900A8CF01263801260711266D3501214
:104726001265EF126100126242EF121930126489AB
:1047360080E312627812608D1261D912476012A965
:01474600E290
:10474700227F051250D1900A8E121C3D227F07123C
:1047570050D1900A8E121C3D227F091250D1900A27
:054767008E121C3D2232
:01476C00222A
:09476D001261FA7406F002B66F45
:014776002220
:094777001261FA7480F002B66FC1
:014780002216
:10478100D24E900B087401F0900B08E0FF1262C842
:104791001218D8FE9002AFE06E7013EF1262C812C9
:1047A100610CFF9002AEE06F7004C24E800A900B64
:1047B10008E004F0E0B409D0204E44E4900B09F085
:1047C10012650BFF900B09E0C39F5021126479120F
:1047D10062C4E92403F9E43AFAEF7C0029F9EC3ADE
:1047E100FAEE12191E900B09E004F080D3D22312C5
:0F47F100650B900583F01262C49009DE121C3D27
:014800002295
:014801002294
:03480200C21722B8
:10480500A2AFE433F50E900A9112669E900A9212B9
:1048150060691262D86D700F1260861262906E70B8
:1048250006900A91F0800D900A921262387003A3E7
:10483500E06F70D8900A91E0700BA3E0FF125083EF
:10484500900A91EFF0900A91E0701DA3E0FF1250DD
:10485500201263E6900A921261191263101263EE38
:104865004006900A91740DF0900A91E0702DA3E036
:10487500FF12604C900A91EFF060201260F8EBC0D7
:10488500E0EAC0E0E9C0E01266B2D0E0F9D0E0FAB3
:10489500D0E0FB12B883900A91EFF0900A91E060A6
:1048A50003024B4FE4900A93F012650BFF900A93B5
:1048B500E0C39F5011126479900A921260F9126751
:1048C5009A1267B080E3900A92E0FF75F002907942
:1048D5005A12607174019330E232900A93E0FEEE51
:1048E500C0E01250201263E6900A92E0FD12611AB0
:1048F500FA7401932FF582EA1262EA75F003ED125C
:1049050060FD8F82758300D0E01219301265099021
:104915000573F0900A921260F99009D1121C3D12AC
:1049250065295003024B4FE4900A93F0900A9312C5
:1049350064EB4036900A92E0FE12606BE493FD1240
:104945006288126369E4936D701A1266CB12608DEA
:10495500740193FF900A93E01263851260717401EC
:10496500936F60061267B0024931900A931265E8A9
:104975007003A3E06F7003024B4F1261E2124B50BC
:104985001218D86003024B4F1261E2124B5C1218E9
:10499500D87003024B001261E2124B501261E27FA4
:1049A500081250D1900A94121C3D12610C703C9073
:1049B5007E8293F47003024A5A124B811263775038
:1049C5000812617B12635F80F31266451260E8127C
:1049D5004B68126377500A12617B7405126361801C
:1049E500F11260E87F807E7E024A57126106FF75EC
:1049F500F080907B82121C28E493F46058EF14FF3A
:104A050030E0526050C313FF1257A6E4900A92F0AB
:104A1500126377500E12610624FE12617AEE12635C
:104A25006180ED126645900A941260D3122611E456
:104A3500900A92F0126377500D1261061412617A92
:104A4500EE12636180EE12610675F080A424801277
:104A550060E2124B8C12A9E21261067039907E82D7
:104A650093F46032124B81126377500812617B1206
:104A7500635F80F31266451260E8124B6812637734
:104A8500500A12617B740512636180F11260E87F40
:104A9500807E7E124B8C900A941267AA705D900AF4
:104AA50093F0900A93E0FFD390059EE09F1264F483
:104AB5004049E4900A92F0900A9312638312607160
:104AC5001266DF50181265EF12610012632D900A0D
:104AD5009412624DEF12193012636280DA900A93D4
:104AE50012627B12608D1261D9124B751261E2124E
:104AF5004B5C12A9E21267B0024AA7900A931265AD
:104B0500E87003A3E06F6042E4900A92F0900A9384
:104B15001263831260711266DF50201265EF126115
:104B25000012632DFFED2406FDE433FC900A941278
:104B35006255EF12193012636280D2900A931262A5
:0A4B45007B12608D1261D9124B75CE
:104B4F00227F051250D1900A94121C3D227F07122A
:104B5F0050D1900A94121C3D227F007E7E122611A6
:104B6F00E4900A92F0227F091250D1900A94121CFD
:104B7F003D227F021257A6E4900A92F022122611CC
:074B8F00E50E24FF92AF22A6
:014B960022FC
:014B970022FB
:104B9800302A06201203024C519002AEE0900575AF
:104BA800F09002AFE0900576F09002B0E090011628
:104BB800F09002B1E0900113F09002B2E090057716
:104BC800F09002B3E0900578F090B961E493FF901B
:104BD8000116E04F20E203E4801D900575E0FF9088
:104BE800B95FE49375F005A42497F582E4346AF577
:104BF80083E5822F126306900115F0900113E0FF00
:104C0800D394064029EF941150247BFF7AB9795A3E
:104C180090B95AE4932404FD12035E12B99C9001E2
:104C280015E060199005677428F0D23B800F126276
:104C3800237405F0A3041260B3FD12035E900566A9
:104C48007401F0E4900579F02220410302032E124A
:0E4C580062237405F01260B27D0612035E2224
:014C6600222B
:104C6700E4FF900579E0701912614412633FB410B4
:104C7700F79005797401F0900567E06005E4FF801F
:104C8700010FEF60587BFF7A6A79419008C3121CC5
:104C97003D7B017A04795312A387E4FFEFFD740F7C
:104CA70012614874B12FF582E43409126347B410D6
:104CB700EB74111262257403F0E4FF74B12FF582CF
:104CC700E43409F583E01267B7126347B410EC12B6
:0D4CD70060B47D1512035E9005667402F056
:014CE40022AD
:104CE500E490098FF090098FE0FF12614574902FD1
:104CF500F582E43409126512E0B410E97B017A0902
:104D050079909008C3121C3D7A04795312A38790B9
:104D15000579E064016003024DD190098FF0900997
:104D25008FE0FF6410601CE0FE2443F582E4340448
:104D3500F583E0FD74A92E1261F2E06D7005126530
:104D45001680DBEF6410706D9002A9741112622851
:104D55007404F0E490098FF090098FE0FFFDC374AF
:104D65000F9DFDE49400FC74412DF582746A3CF5B9
:104D750083E4931267B7126512E0B410DB1260B4D6
:104D85007D1512035EE490098FF090098FE0FF24F2
:104D950090F582E43409F583E0FE74432FF582E44F
:104DA5003404126512E0B410E19005797402F0E460
:104DB500900114F022D2251262237405F0A3141277
:0C4DC50060B37D0612035EE4900579F0F7
:014DD10022BF
:104DD200D225900582E0B41F0A9002AEE0B4080327
:044DE2001250032246
:0B4DE600E4FF12614412633FB410F7B9
:014DF100229F
:104DF200E4FFEFFDC3740612614974F52FF582E4F6
:104E02003402126347B402EAE4FFEFFDC3740D12E9
:104E1200614974ED2FF582E43402126347B408EA63
:014E2200226D
:104E2300E4FF12614474632FF582E4340412634790
:034E3300B410EFC9
:014E36002259
:104E37009002AEE0600122E490096AF090096AE00E
:104E4700FF24AFF582E43402F583E0FE746D2FF59D
:104E570082E43409F5831267C1B406E0D2379009BA
:104E670072E0FFE4FCFDFEA3121BEB1266EB900958
:104E77007112638C1266EB90097012638C9009783B
:104E87007402F0A3743BF0900978E0C313F0A3E039
:104E970013F0E4A3F0A3F0A37402F0A3743BF0E4CF
:104EA700900977F01265F77802C333CE33CED8F97D
:104EB700126555C3121B78501C1265F7FF90097CC9
:104EC700EEF0FCA3EFF090097A1263A77002EE6C84
:104ED7007037024F2B1265F77802C333CE33CED823
:104EE700F9126555D3121B7840171265F7FFA3EE29
:104EF700F0FCA3EFF0A31263A77002EE6C700A80B8
:104F0700239009777401F0801B90097A1263389017
:104F1700097DE09FFF90097CE09EFED3EF9400EEB1
:104F270094005080900977E07003024FEE1261E21F
:104F37007F051250D11218D86003024FEE1261E2BA
:104F47007F061250D11218D86003024FEE12610C7F
:104F570012625DFCEF6C700890096B7404F0802797
:104F670012634E6C700890096B7444F080191261DB
:104F77000C12642612626CFEEF6E90096B7005745A
:104F870084F0800374C4F0E490096AF090096AE041
:104F9700FF2463F582E434041261771267C1B41009
:104FA700EB12610C1313543F90096CF07F0112252B
:104FB7003DA2AFE433F50FC2AF90096CE0FE900954
:104FC7006BE07C002400FFEC3EFEEF242AFFEE346A
:104FD7007A12664E7410F0122611E50F24FF92AF75
:074FE700E4FF12253DD23466
:014FEE0022A0
:104FEF00E4FF12614474732FF582E43404126347B3
:034FFF00B410EFFC
:01500200228B
:10500300900566E07016126223740BF090B961E4A8
:0D501300939002AE1260B37D0612035E2280
:1050200012647112608D7401935403B401047F0201
:0450300080027F106B
:015034002259
:1050350012647112608DE493FFE4FEEF5455700421
:105045007E028036EF30E60890057AE070027E0831
:10505500EE700BEF30E40712652950027E05EE7005
:1050650019EF30E21590057BE070047E0F800B9000
:0D5075000113E0C3941050027E0CCFEECF6B
:01508200220B
:1050830012647112608DE493FFE4FEEF54AA70047E
:105093007E038036EF30E70890057AE070027E08E1
:1050A300EE700BEF30E50712652950027E05EE70B6
:1050B30019EF30E31590057BE070047E0F800B90B1
:0D50C3000113E0C3941050027E0CCFEECF1D
:0150D00022BD
:0650D100900A52121C3D82
:1050D700A2AFE433F510EF121C5253AC015100029A
:1050E700511C03513B0453110554EC06559C0756BC
:1050F7007D0856FF0900005798E4900A55F012649E
:10510700FB9402502C12586B900A55E0FF1259304D
:1051170012656780E9E4900A55F01264FB94035026
:10512700101257A6900A55E0FF1259821265678040
:10513700E902530A12618D740112191EE4900A558F
:10514700F0900A55E0C3940240030252FFE0FD7558
:10515700F004A4FFAEF0900A58EEF0FAA3EFF0FBCC
:10516700E41264AAED12656E1262EA6B7001EA60DE
:1051770033EFF470030252FF1265FF04F0900A56F2
:105187001262B09440EC9400500B126126B4FF05F4
:1051970012621980E8900A56E07004A3E064406048
:1051A700030252FF12665C1267361262EAFD900A2A
:1051B70059E02401FB126497FAEB6D7001EA603441
:1051C700EFF470030252FF1265FF7441F0900A5624
:1051D7001262B09480EC9400500B126126B4FF0564
:1051E70012621980E8900A56E07004A3E0648060B8
:1051F700030252FF12665C12672E1262EAFD900AE2
:1052070059E02402FB126497FAEB6D7001EA6034EF
:10521700EFF470030252FF1265FF7481F0900A5693
:105227001262B094C0EC9400500B126126B4FF05D3
:1052370012621980E8900A56E07004A3E064C06027
:10524700030252FF12665C1267261262EAFD900A99
:1052570059E02403FB126497FAEB6D7001EA602FA3
:10526700EFF470030252FF1265FF74C1F0900A5603
:105277001262B0EC9401500B126126B4FF05126262
:105287001980EA900A56E064017002A3E070699001
:105297000A56E0FFA3E0A3CFF0A3EFF0900A58125D
:1052A7006338EE9401503FEF243EFFE43E900A56E8
:1052B700F0A3EFF0126490900A561262AF9FEC9E33
:1052C700500B126126B4FF0512621980E712649031
:1052D700FE900A56E06E7003A3E06F7009900A58BB
:1052E7001266F60252A3900A56E0B4010BA3E0B48B
:1052F7000006126567025148900A55E06402600390
:1053070002579812618DE402571312618D126628B5
:105317001264FB9402506912620E1266FDFDF4607E
:105327000B1262FDEDF01267250253771262091224
:10533700642E3EF583E493FDF4600A1262FDEDF0FE
:1053470012672D802B126209126353FDF4600A1253
:1053570062FDEDF012673580171262091266663E2C
:10536700F583E493FDF460121262FDEDF0126571AE
:105377001262EA1265FFEFF08006126567025317A3
:10538700900A58E0FEA3E0FF4E700812618D740486
:10539700025713900A56A3E012618CED12657A90BA
:1053A700000202567912618D1266281264FB94027C
:1053B700400302547812620E1266FDF46042EF2435
:1053C700C2F582747A1261861265021267253EF56C
:1053D70083E4930412657A1264FB74019FFF1258E9
:1053E7006B1264FB74019FFF125930900A581260C8
:1053F700F1900A55E0FF6079C374029FF002547878
:1054070012620912642E3EF583E493F46014126469
:105417002D12618612650212672D1262F174C202A3
:105427005468126209126353F46017EF2442F5823D
:10543700747A1261861265021267351262F17482FC
:10544700801F1262091266663EF583E493F4601BBF
:105457001266651261861265021265711262F17435
:1054670042F01264FB74019FF080061265670253D5
:10547700B2900A58E07002A3E0701312618D7401B4
:10548700126503900A581260F1E4900A55F0126110
:105497008D126272700790000204121930900A553B
:1054A700E012656E3EF583C083C082900A58E0FC27
:1054B700A3E0FDD082D083258212613AF4900A528C
:1054C7006008121C347403025713121C34126272E0
:1054D700126531900A5512649E347ACF2DCF3C1253
:1054E70060E702579512618D1264A6900A56126200
:1054F700B0EC94014003025585900A5212610913DA
:1055070013543F7F00FE126665126134FF12618DEE
:10551700126272FEEF6E705D900A55F0900A55E0C8
:10552700FDC3943A5058900A521261091313543F1D
:105537007F00FEEF2404F582747A3EF583C083C0B2
:1055470082EDFF900A57E02FFF900A56E03400FEE5
:10555700D082D0831262E312618DE92403F9E43A21
:10556700FA900A55E07C0029F9EC3AFAEF12191E75
:1055770012656780A7900A561266F60254F2900ADF
:1055870056E064017002A3E0600302579812618D30
:10559700740502571312618DE412191E900A55F013
:1055A700A3F0A3F0900A561263389406EE940050C5
:1055B7002F12618D126272FD126709FEEF7807C321
:1055C70033CE33CED8F91267116D700F900A56E0BB
:1055D7007002A3E0700A900A5504F012621980C4A1
:1055E700900A55E0B4010EA3E07004A3E0640560DF
:1055F70004E41264AA12666D64064E700812618D87
:105607007404025713126709900A56F0A3EFF012B9
:10561700618D126579900A557405F0900A55E0FD81
:10562700C394805031A3E0FEA3E07807C333CE33A1
:10563700CED8F92400F582747C3EF583E5822D12DD
:105647006306FFF4600A900A55E02F2402F080CB2E
:10565700900A55E014F0900A55E0C3947C40081274
:10566700618D740612191E900A55E0FF12618D9024
:105677000003EF0256F912618D1264A6900A5612C2
:1056870063389406EE94005019126709FEEF780705
:10569700C333CE33CED8F9126711B4FF051262199E
:1056A70080DA12666D64064E70051264AA8012EFE6
:1056B7004E600EC374069F900A57F0E49E900A56F8
:1056C700F012666D12618C900001ED1219301262B2
:1056D70072126531EF7807C333CE33CED8F924027F
:1056E700FFEE347C1260E712579C12618D90000325
:1056F700740412193002579812618DE412191E12A0
:10570700618D1265DFC3947C4008740612191E026E
:105717005798E41264AA12618D9000051218F112CD
:1057270063E7900A56E0FCA3E0FDD39FEC9E501A76
:1057370074042DF582E43CF5831218F1FF74432DB0
:1057470012617EEFF012621980CC900A5212610941
:10575700FF1265DFFD126537EF75F080A42400FFA7
:10576700E5F0347CFE7C00EF2DFFEC3EFEEEC0E062
:1057770012618D9000051218F12402FEEC33900A95
:1057870083F0A3CEF07B017A037943D0E0FE125772
:045797009C12618D72
:0B579B0022122611E51024FF92AF221D
:0357A600900AD690
:1057A90012643BF511E4900AD9F0301E35304714E4
:1057B9001263359406EE9400500280129005E0E0E1
:1057C90024E180241263359404EE9400500C126392
:1057D900C2900AD7F0A3EFF0801C9005E0E024E71F
:1057E90080069005E0E024F0FE9005DFE034FF90AC
:1057F9000AD7F0A3CEF0126580900AD8E09D900AEE
:10580900D7E09C502712A9421299FA12B9DF9005E4
:105819008D12621C900AD912629B900AD81267CB2A
:10582900900AD7E09E5005E4900AD9F0A2AFE4337C
:10583900F511C2AF7F0112253D900AD612649E343C
:105849007CFE12254EE4FF12253DE51124FF92AF9F
:10585900900AD9E0B4010A902062E030E5031266AB
:01586900BE80
:01586A00221B
:03586B00900ADAC6
:10586E0012643BF512E4900ADDF0301E3530471419
:10587E001263359406EE9400500280129005E0E01B
:10588E0024E180241263359404EE9400500C1263CC
:10589E00C2900ADBF0A3EFF0801C9005E0E024E755
:1058AE0080069005E0E024F0FE9005DFE034FF90E6
:1058BE000ADBF0A3CEF0126580900ADCE09D900A20
:1058CE00DBE09C502712A9421299FA12B9DF90051B
:1058DE008D12621C900ADD12629B900ADC1267CB5D
:1058EE00900ADBE09E5005E4900ADDF0A2AFE433AF
:1058FE00F512C2AF7F0112253D900ADA12649E3472
:10590E007AFE12254EE4FF12253DE51224FF92AFDA
:10591E00900ADDE0B4010A902062E030E5031266E1
:01592E00BEBA
:01592F002255
:03593000900AB921
:1059330012643BF513E075F004900ABC126435F56C
:1059430013C2AFE4900ABAF0A3F0900ABA1262B09D
:10595300EC940150231267D5900AB912649E347AED
:10596300CF2DCF3C1260E7122611900ABC12621CA5
:0E597300900ABA1266F680D2E51324FF92AFB6
:015981002203
:03598200900ABECA
:1059850012643BF514E075F002900AC1126435F516
:1059950014C2AFE4900ABFF0A3F0900ABF1262B040
:1059A500EC940150271267D5900ABE12649E347C90
:1059B500CF2DCF3C1260E7122611900AC112621C4E
:1059C500900ABFE475F0801219B980CEE51424FF62
:0259D50092AF8F
:0159D70022AD
:1059D800A2AFE433F5151261E27F051250D1121817
:1059E800D86003025AA61261E27F061250D112183B
:1059F800D86003025AA612610C12625DFCEF6C704B
:105A080008900B117404F0802712634E6C70089094
:105A18000B117444F0801912610C12642612626C26
:105A2800FEEF6E900B1170057484F0800374C4F05F
:105A3800E4FF740D2FF582E43401126177EEF00F64
:105A4800EFB41AEE7F1A74D62FF582E4340512618A
:105A580077EEF00FEFB420EE7F2074232FF582E469
:105A68003405126177EEF00FEFB42AEE12610C13D1
:105A780013543FFFA2AFE433F515C2AFEF12649F92
:105A8800347AFE900B11E07C002FFFEC3E12664E3C
:0E5A9800742AF0122611E51524FF92AFD231C8
:015AA60022DD
:105AA7001265295003025B951261E27F05125B962E
:105AB7006003025B951261E27F07125B96640470D4
:105AC70003025B95900AC47405F0900AC5121C3452
:105AD7001265DFFF900AC4E0FEC39F4003025B9597
:105AE70012610C1263DDE5822E126306F460DBE4BB
:105AF700900AC3F0900AC5126109FF1263DDC083E3
:105B0700C082900AC4E0FED082D083126304FD9065
:105B17000AC3E0FCC39D505175F080EF907C0112E1
:105B27001C28ECFDEE2DFFE4331262E2900AC51249
:105B3700610975F080907BFF121C28C083C082909A
:105B47000AC4E0D082D08312630475F0039079E62B
:105B5700126100900AC3E0F582758300EF121930D5
:105B6700900AC3E004F0025AFB900AC512610912B9
:105B770063DDC083C082900AC4E0FFD082D0831265
:0E5B87006304FEEF2E2402900AC4F0025AD1ED
:0E5B9500221250D1900AC5121C3D1218D822BF
:065BA300900A2D121C3DCA
:105BA900E4900A34F090054FE064036003025D8DD0
:105BB900301003025D85301C03025D85900A3012A6
:105BC90067AA900A36F012610C14FFB4FF06900A16
:105BD90036E014F0D24FE4900A35F0900A35E0FE31
:105BE90012606BE493FD900A36E0FCED6C701012C4
:105BF90066CB1260717401936F7004C24F801012EA
:105C09006749E0FD90059BE07003A3E06D70CC301F
:105C19004F03025D7D900A35126069740593FE2079
:105C2900E403025CC375F003EF90789112610012EE
:105C390018D830E07C900A35E075F00290795C1252
:105C4900607112673DBF01057402F08006900A3742
:105C59007410F0900A33E0FFD394005003025D5DA5
:105C6900126402900A301262551218F1FDEFD39DA9
:105C79004003025D5D741B1266761261B612610CF7
:105C89001265A31267DFFDC39F501A900A2D121CDB
:105C99003412632DFC74122DF582E43405F583EC7E
:105CA90012674880DEEF2407900580F0D210025D6C
:105CB90093900A347416F0025D93EE20E503025DB9
:105CC90075900A35E0FF75F0039078911261001222
:105CD90018D820E103025D6D301703025D6575F088
:105CE90002EF90795C12608D12673DBF0105740265
:105CF900F08006900A377410F0900A33E0FFD394CD
:105D0900004051126402900A301262551218F1FED5
:105D1900EFD39E503F741D1266761261B612610C64
:105D29001265A31267DFFEC39F501C900A2D121C37
:105D3900348E8212632FFD74122EF582E43405F538
:105D490083ED12674880DCEF2407900580F0D217B5
:105D5900D2108036900A34741BF0802E900A347465
:105D69000CF08026900A347417F0801E900A34745F
:105D79000BF08016900A347408F0800E900A34747F
:0F5D89000AF08006900A347415F0900A34E0FF97
:015D980022E8
:095D9900C23E9009D1121C342213
:065DA200900573E0FF22F2
:105DA800E4FF90054FE0B40320204316900582E0FD
:105DB800B41C0FD243E490057EF0900582741DF068
:0B5DC8008009900582E0FF80027F153B
:015DD30022AD
:105DD400900582E0FEB41E14900586E0D39414501E
:0F5DE4000BE004F0C243900582741CF0CFEECFA9
:015DF300228D
:105DF4009002AD7406F0740112622E74FFF0126208
:105E04002E7428F074171261B3FF906AB6E493FEFF
:105E1400EFC39E500CEFA393FE12660EEEF00F80BC
:0F5E2400E91260B47D1B12035E90057E7401F0DD
:015E3300224C
:105E3400126606B41F113043047F23800DD24390B1
:0A5E4400057E740BF08003CFEECF53
:015E4E002231
:105E4F00126606B41F113043047F23800DD2439096
:0A5E5F00057E740CF08003CFEECF37
:015E69002216
:105E6A00900567E0FFC3940C4006EFD394114005F8
:105E7A00EF6406703C90057EE0640B70131261AB10
:105E8A001265B49007757401F09002B0F0E48017BF
:105E9A0090057EE0640C70191261AB1265B4E4904F
:105EAA000775F09002B0F01260B27D0912035EC26B
:025EBA00432281
:105EBC00126606641F701F900717E07008A3E0704D
:105ECC00047F2080143043047F23800DD24390053F
:095EDC007E740DF08003CFEECFBF
:015EE500229A
:105EE600126606641F701F900717E07008A3E07023
:105EF600047F2080143043047F23800DD243900515
:095F06007E740EF08003CFEECF93
:015F0F00226F
:105F1000900567E0FFC3940C4006EFD39411400551
:105F2000EF6406703C90057EE0640D70131261AB67
:105F30001265C590071C7401F09002B0F0E4801760
:105F400090057EE0640E70191261AB1265C5E49095
:105F5000071CF09002B0F01260B27D0912035EC21D
:025F60004322DA
:095F6200C2239009DE121C342256
:065F6B00900583E0FF2217
:035F7100CAEFCAAA
:105F7400E4FE90054FE06403707A900582E0FD64CE
:105F84001F706C90078FE0FC7008A3E070047E2102
:105F94008064202256906B0BE493FBEAD39B50471A
:105FA4009004EF7412F0EA24039004EB1261B690AB
:105FB4000790E09004F0F0A3ECF0E4FFEFC39A50F4
:105FC4001B74922FF582E43407F583E0FC74F22FFE
:105FD400F582E43404F583ECF00F80E0EA240790C2
:105FE400057FF0D222800F7E1B800B7E228007CE9D
:095FF400EDCE80027E15CFEECF48
:015FFD002281
:105FFE0012647112636974019330E20B75F003EF52
:0B600E001260FD12632DFDCFEDCF22CC
:10601900900ADE121BEB900567E0B42811900ADEA6
:10602900121BC390045F121BEBE4900567F0D216B4
:03603900C23B2245
:10603C0030160C900579E0B40103124C67C216229D
:10604C0012647112608D74019330E3037F01227F1F
:02605C00002220
:08605E00C237A234E433FF2233
:10B4B200080C1014181C2024282C30383C40444816
:10B4C2004C5054585C6064686C7074787C808488DA
:10B4D2008C9094989C0434A00000000000000001AD
:10B4E2000418031802180F180000000000000000E2
:1026AD00900A12E0FCA3E0FD25E0FFEC33FE74017F
:1026BD002FF58274783EF583E493FE740193F582D1
:1026CD008E8322E0FF24CBF582E43404F583E0FE13
:1026DD0074852FF582E43420F58322900A9D121C17
:1026ED0034900AA1E0FFF5827583001218F1FE7493
:1026FD00A92FF582E43402F583EEF0900AA1E0FFF4
:10270D0024A9F582E43402F583E0FEE42FF582E49A
:10271D003422F583223CF583E0FE74432FF582E4E9
:10272D003405F583EEF09008E6E004F0223EF583E3
:10273D00EDF0900A69E475F0010219B974C62FF530
:10274D0082E43408F583E0FE74D62FF582E4340874
:10275D00F583E06EFE74A92FF582E43402F5832231
:10276D009002CBE090204EF09002CCE0240490201B
:10277D004DF074869020A5F090006222900A0AE038
:10278D00FFFD7405C39DFDE49400FC2290055DE002
:10279D0033333354F8FE900569E0C454F04EFE9087
:1027AD00055EE025E025E0223CF583E493FE74AE62
:1027BD002FF582E43402F583EEF09009A0E004F0E9
:1027CD00229005C2E0FE9005C1E07C002400FFECE4
:1027DD003E9009C2F0A3EFF09009C2E0FEA3E0FF26
:1027ED007C0B7D72121C78E47B9B7A3BF9F8121AF4
:1027FD00C39009CA121BEBA247B3E4FCFDFE33FFE5
:10280D009009CA121BDF121A389009C2CDEFCDCC38
:10281D00EECCE0FEA3E02290055DE033333354F8B7
:10282D00FF900569E0C454F04FFF90055EE0FE2572
:10283D00E025E04F44029002CBF0900AA0E0900218
:10284D00CCF090204DF09002CBE090204EF022E0A5
:10285D00FF900A12E0FCA3E090788B75F003121C38
:10286D0028EC75F003A42583F583021C46FF900A1E
:10287D000AE0FE900A0DE0FCA3E02EF582E43CF5A3
:10288D0083EFF0900A0AE004F0229005C4E0900571
:10289D00C3FEE07C002400FFEC3E22E0FE90055FCD
:1028AD00E075F020900169121C28E5822FF582E475
:1028BD003583F5832274119002A9F0E4A3F0740618
:1028CD00A3F0E4A3F0A3229002CAE090204DF0748F
:1028DD00049020A5F09000622275F002EF9078012F
:1028ED00121C28E493FC740193F5828C8322900AC8
:1028FD000AE0FFFDC374FF9DFD740294008D82F507
:10290D0083E493FE221218F17E00FF900AD0EEF0C0
:10291D00A3EFF02290054EE0C3940122900A69E0E6
:10292D00FEA3E0FF22F583E0FE74C62FF582E434AA
:10293D0008F583EEF00FEF224EFE9002C9E054032E
:10294D004E900552F090204EF0900567E0FEC39436
:10295D000C22121BC3EF2401FFE43EFEE43DFDE417
:10296D003CFC22131313541F24C7F582E43405F5E0
:10297D00832274F02DF58274053CF583E0FE74D34B
:10298D002FF582E43400F583E022F9E43AFA900859
:10299D00E6E0FF7C0029F9EC3AFA0218D8C245C2EC
:1029AD0029E490054FF0902062F0900056F02290AF
:1029BD00055DE033333354F8FF900569E0C454F0FE
:1029CD004FFF90055EE0FE25E025E04F44039002A9
