:04000000FFFF807707
:0CA0BF00787FE4F6D8FD75812F02A10621
:02FFFE005AA502
:03000B0002030BE2
:03001300020313D2
:03001B0002031BC2
:03002300020323B2
:03002B0002032BA2
:0300330002033392
:03003B0002033B82
:0300430002034372
:03004B0002034B62
:0300530002035352
:03005B0002035B42
:0300630002036332
:03006B0002036B22
:0300730002037312
:10007B0075816075940075A8007B00740031FB7569
:10008B00378975386A51126036D537F9E53860050E
:10009B00D538F280F090FFFEE493B4FF1E74019309
:1000AB00B4FF1875940290FFFEE493B45A0D7401DB
:1000BB0093B4A5077B5A7594008006510B61000120
:1000CB000031F175360375390AD539028041853611
:1000DB0083758200510431CAE536C39480400E7596
:1000EB003202853630753500853633800F75320117
:1000FB0074802536F530753500853633313D70C942
:10010B00E536B4FF06740031FB80B4053680B78644
:10011B00408841858342858243740093F54475453D
:10012B00007546EE75471190FFF874085104319233
:10013B0080FE7D007E108530838D82853294316FF9
:10014B008533838D82853594510431958533838D29
:10015B0082853594317C7009ED2410FDDED8740056
:10016B002274FF2278407F10740093F6A308DFF807
:10017B002278407F10863A740093B53A07A308DFC4
:10018B00F474002274FF22FF8023740131FBE5839A
:10019B00C394034027E5BA54076002800AE5D8549C
:0A01AB0004700A800201C6745AC3F2
:1001B5009B70F87F107840E6B4FF028001F0A30839
:1001C500DFF5510B22740431FBE583C39403401919
:1001D500E5BA54076002800AE5D85404700A800223
:1001E50001C6745AC39B70F8F0510B2275EBAA75C2
:1001F500EB55759B102275EBAA75EB55F59A22E523
:1002050087D2E4F58722E587C2E4F5872290203876
:100215007490F090202B7425F0E020E0FC20E4059C
:0F022500512F740022512F7401227C19DCFE220C
:0303000002A0BF99
:0BAEC000070006000203000110010162
:108000000B02010503021218031900000000000012
:108010000000000000000000000000000000000060
:10802000121109414D4943434F4D5F44656D6F5FE8
:1080300033313600000000000000000000000000A6
:1080400000000001280002001800022803050203B6
:1080500000002A00032A0010414D4943434F4D5F61
:1080600044656D6F5F333136000428030502050057
:10807000012A00052A01020000000628030508075E
:1080800000032A00072A0306000000000000000881
:10809000280305020900022A00092A020100000A39
:1080A000280305020B00042A000B2A040890017023
:1080B0000300009800000C2800020118000D28039E
:1080C00005220E00052A000E2A05040100FFFF000C
:1080D0000F290202000000102800020A18001128CF
:1080E0000305021200252A00122A250430303031FF
:1080F00000132904071900000001000000142803E0
:1081000005021500292A00152A290D414D4943432E
:108110004F4D20456C65632E001629040719000099
:10812000000100000017280305021800232A001888
:108130002A230855AA55AA55AA55AA0019280305A5
:10814000021A00262A001A2A260456302E38001B4E
:1081500029040719000000190000001C280305026B
:108160001D00242A001D2A24064D443831303700D2
:108170001E29040719000000010000001F28030544
:10818000022000272A00202A270355303300212906
:108190000407190000000100000022280305022343
:1081A00000282A00232A28043030303000242904F3
:1081B0000719000000010000002528030502260021
:1081C000502A00262A500701C000000000000027A6
:1081D000280002BAFE002828030514290010FA001E
:1081E00029FA101400000000000000000000000048
:1081F0000000000000000000002A29020200000028
:108200002B2901084F54415F44415441002C28035D
:1082100005282D0011FA002DFA11080000000000B9
:10822000000000002E2902020000002F2901074F44
:1082300054415F434D44003028030510310013FAC8
:108240000031FA130400000000003229020200008D
:108250000033290111444154415F4552524F525F4E
:1082600053544154555300342800020F1800352848
:108270000305123600192A00362A1901640037292D
:10828000020200000038280002F0FF003928030530
:10829000103A00F1FF003AFFF11400000000000066
:1082A0000000000000000000000000000000003B93
:1082B0002902020000003C280305083D00F2FF00EF
:1082C0003DFFF2140000000000000000000000006C
:1082D0000000000000000000003E280305103F00E1
:1082E000F3FF003FFFF31400000000000000000057
:1082F0000000000000000000000000004029020211
:1083000000000041280305084200F4FF0042FFF48A
:108310001400000000000000000000000000000049
:1083200000000000000043280305024400F5FF00A0
:1083300044FFF514000102030405060708090A0BAF
:108340000C0D0E0F101112130001010101010101AA
:10835000010102010101010101010301010101010A
:1083600001010101010101010101010101010201FC
:1083700003010101020103010101000103010101E7
:1083800001010301010103010201010103010201D5
:1083900001018040804280498053806880728079EA
:1083A0008083808E8098809E80A880B580BC80C6A7
:1083B00080CF80D680DD80E780F080FC8106811848
:1083C0008124812E813B8145814E815A8164816F58
:1083D000817B8185818D819981A381AC81B881C2A6
:1083E00081CE81D581DF81F881FF820C82168223C4
:1083F000822A82368240824982508266826D8277EA
:10840000827D8284828B829582AE82B582BF82D841
:1084100082E282FB8302830C8325832FFF8045FF4A
:108420008047FF804E01081FFF806DFF8077FF802F
:108430007E0107BFFF8093FF809DFF80A3FF80AD7B
:10844000FF80BAFF80C101082F010835FF80DBFFE4
:1084500080E2FF80ECFF80F5FF8101FF810BFF814F
:108460001DFF8129FF8133FF8140FF814AFF815336
:10847000FF815FFF8169FF8174FF8180FF818AFF37
:108480008192FF819EFF81A8FF81B1FF81BDFF81A5
:10849000C7FF81D3FF81DA0107A8010833FF8204F7
:1084A000FF82110108150107A6FF822FFF823B0101
:1084B000083B01081DFF8255FF826BFF8272010796
:1084C000BE0107BCFF8289FF82900107C501083702
:1084D000FF82BA0107EDFF82DD0107D9010839FFEC
:1084E0008307010801FF832AFF83348348834A837B
:1084F0004C834E834C8350834C8352834C835483F0
:108500004C8356834A834C8358835A834A834C83D3
:108510005C835E834C8360835E834C8362834C8385
:1085200064835E834C8366835E834C8368835E834F
:108530004C836A835E834C836C834A834C836E8353
:10854000708372834C837483768378834C837A83BD
:108550007C837E834A834C83808382834A834C83DB
:10856000848386834C8388834C838A838C834C8367
:0A8570008E834C8390827D0107BCCE
:10784B0050081F414D4943434F4D5F44656D6F5F7A
:10785B003331364607BF00000000000044082F00FC
:10786B0000000042083500005407A800000000008B
:10787B0000000000000000000000000000000042BB
:10788B00083300004808150000000000000000420B
:10789B0007A6000044083B0000000042081D000042
:1078AB004107BE644207BC00005407C5000000003E
:1078BB0000000000000000000000000000000000BD
:1078CB0042083700005407ED0000000000000000E4
:1078DB000000000000000000000000005407D90069
:1078EB00000000000000000000000000000000008D
:1078FB00000000420839000054080100000000009D
:0F790B000000000000000000000000000000006D
:10A578007580FFE4F5D1F5D275D3FF7590FFF5D955
:10A58800F5DA75DBFF75A0FFF5A1F5A275A3FF75D8
:10A59800B0FFF5E1F5E275E3FF781DF608F6781DE2
:10A5A800E6FE08E6FFC3EE9420500E8F828E83E409
:10A5B800F006E61870E80680E543B901E58754EF30
:10A5C8004401F58775BA079005E1745AF0A374A59C
:01A5D800F092
:01A5D900225F
:08AF2100E4FF900A3A12137CD0
:01AF29002205
:10ADE900E4FF90099512137C90099212137390094C
:04ADF9009512137C20
:01ADFD002233
:030313000231C0F4
:0231C0000032DB
:03031B000231C2EA
:0231C2000032D9
:030323000231C4E0
:0231C4000032D7
:03032B000231C6D6
:0231C6000032D5
:03033B000231C8C4
:0231C8000032D3
:030343000231CABA
:0231CA000032D1
:03034B000231CCB0
:0231CC000032CF
:030353000231CEA6
:1031CE00C0E0C0F0C083C082C0D0E8C0E0E9C0E07B
:1031DE00EAC0E0EBC0E0ECC0E0EDC0E0EEC0E0EF36
:1031EE00C0E0438701759108902062E030E503123C
:1031FE001D6A902028E030E70C900028E044809073
:10320E002028F0D23ED0E0FFD0E0FED0E0FDD0E0AE
:10321E00FCD0E0FBD0E0FAD0E0F9D0E0F8D0D0D08E
:08322E0082D083D0F0D0E03221
:03035B0002323635
:02323600003264
:10675D00E4900950F0A3F0A284B340FB120356124B
:10676D00A578C23F7F3212AD5712AC5A12202F12AC
:10677D0009871275497F0612999C12AF7E7F01120F
:10678D00A893120AB290054FE0702C900948F0A31F
:10679D007480F0A37405F0A374DCF09009467407BF
:1067AD00F0E4A3F090094CF0A3F0A304F0FB7A09F8
:1067BD00794612A1D7807490054FE0FFB40108907F
:1067CD0009527401F08064EF6403705F900952E028
:1067DD0060111209A7EF64016004EFB40205E490A3
:1067ED000952F0303645125D0DCFE9CF900950EAD0
:1067FD00F0A3EFF0125D1690094FEFF0A3E06407E0
:10680D007004A3E064A870067E077FA8801290092B
:10681D0050E064087004A3E06415700F7E087F15C6
:10682D0090094FE0FD120A7E120AB212AB8A02677E
:01683D008FCB
:0802F800FFFF187A938508014D
:0C7FF40000000000000000010000000080
:1021AD000000000000001000800000805F9B34FBE9
:1021BD000000000000000000000000000000000012
:1021CD0043730503E30B0F86C71041F0AEFD9D6908
:1021DD00E2485A7AD8D97C223057FA42DB598B25FE
:1021ED00DEAFBABE0213243546576879677547309E
:1021FD004AF6D91A28DDB5B7E148AC7E3B918AA6DF
:10220D00D71C4533E50BE58BE88D786175A7E34B5E
:10221D000180A0FBF9820000020002000002000212
:10222D000101010001000000000001010200010098
:10223D00000000280010D0002D121E4B0FA4994E47
:10224D00CEB531F405790000280313000000BD1D43
:10225D00A299E625588CD94201630D12BF9F00004B
:10226D00080000000000000000000029020200002C
:10227D000000280313000000D9D9AAFDBD9B2198A9
:10228D00A849E145F3D8D169000014000000000011
:10229D000000000000000000000000000000000031
:1022AD0000280313000000FB7B7CCE6AB344BEB54F
:1022BD004BD624E9C6EA22000014000000000000FD
:1022CD000000000000000000000000000000000001
:1022DD002902020000223C2253226B2276227D220B
:1022ED009522AC22C422DB01070001071E01074E17
:1022FD0001077001077701078F01073601075901A3
:10230D000717000003930000050200000A270000D4
:10231D000A9500000D93000010FA00001124000032
:10232D001451000016CB000017F2000019E3000055
:10233D001B6300001CB300001D4F00001E52000067
:10234D001EC200001F5B00001FF3000021E900000A
:10235D00224100002312000023320000236C0000F4
:10236D0023DF00002436000025000000254B00006F
:10237D0025BC000026080000264A000026B00000FB
:10238D0026BB0000306500003EE1000050E4000077
:10239D0056CD0000617100006D520000886500008F
:1023AD00A0400000B3620000C6100000CDFE00008A
:1023BD00DB700000F4B90000F76F00040CCE0004D0
:1023CD00155200041E64000426650004489A00049A
:1023DD004BED000452F300045453000469F800045B
:1023ED00D3CF0004DB560004E5360004F13E0004B3
:1023FD00F7E4000800070008669800086D41000822
:10240D007045000874020008F4AB000C1539000C7F
:10241D003021000C3E9F000C4DE9000C5101000CC9
:10242D0074C2000C771A000CBC9F000CD74600102C
:10243D001C0C001040F30010417F001093E90010B8
:10244D009ADD0010DDB10014109F00145A05001420
:10245D008FC6001499E20014BD61001820320018D7
:10246D0034510018659000189EFC0018AF610018DB
:10247D00AF8F0018E7F40018EE690018F643001C42
:10248D001AC0001C36BB001C5CF2001C9148001CDD
:10249D009E46001CABA7001CE62B00203CAE002086
:1024AD00768F002078F000207D7400209BCD0020D9
:1024BD00A2E40020AB370020C9D00020EE28002474
:1024CD001EEB0024240E00245BA70024A07400241E
:1024DD00A2E10024AB810024E3140024F094002435
:1024ED00F67700280B5C0028373700285AEB0028B8
:1024FD006AB800286ABA0028A02B0028CFDA002875
:10250D00CFE90028E02C0028E14C0028E7CF002877
:10251D00ED6A0028F076002C1F23002C200B002CD8
:10252D003361002CB43A002CBE08002CF0A2002C14
:10253D00F0EE003010E4003035AD0030636B00304C
:10254D0090AB0030F7C5003408BC0034129800344D
:10255D00159E0034363B003451C90034A395003428
:10256D00AB370034C0590034E2FD00380F4A003853
:10257D00484C003866F0003871DE0038B54D003833
:10258D00C9860038CADA003C0754003C15C2003C2D
:10259D002EF9003C2EFF003CAB8E003CD0F8003CE9
:1025AD00E072004030040040331A00403CFC004013
:1025BD004D7F00406C8F00409C280040A6D9004004
:1025CD00B3950040D32D0044001000442A60004410
:1025DD004C0C0044D8840044FB4200483B38004872
:1025ED00437C00484BAA004860BC0048746E00480C
:1025FD00A1950048BF6B0048D7050048E9F1004C94
:10260D003275004C57CA004C74BF004C7C5F004CB7
:10261D008D79004CB1990050323700507A550050E9
:10262D0082D50050EAD600542696005433CB005480
:10263D004E900054724F00549F130054AE27005417
:10264D00E43A0054EAA800581FAA0058404E00581A
:10265D0055CA00587F570058B0350058E28F005CBE
:10266D005948005C8D4E005C95AE005C969D005CFB
:10267D0097F3005CADCF005CF5DA005CF7E6005C2B
:10268D00F938006003080060334B00606944006056
:10269D00921700609AC10060A37D0060C54700607D
:1026AD00D9C70060F4450060F81D0060FACD0060E8
:1026BD00FB420060FEC50064200C006476BA006425
:1026CD009ABE0064A3CB0064A5C30064B0A60064E9
:1026DD00B9E80064E6820068092700685B35006888
:1026ED00644B0068967B00689C700068A86D00685C
:1026FD00AE200068D93C0068DBCA0068FB7E006C28
:10270D0019C0006C3E6D006C4008006C709F006C31
:10271D0072E7006C8DC1006C94F8006C96CF006C64
:10272D00AB31006CC26B00701124007014A60070E8
:10273D003EAC0070480F007056810070700D007037
:10274D0073CB007081EB0070A2B30070CD60007090
:10275D00DEE20070E72C0070ECE40070F08700748E
:10276D001BB20074811400748D080074E1B60074FE
:10277D00E2F5007831C100783A8400784F43007853
:10278D0067D700786C1C00787B8A00787E610078B2
:10279D00886D00789F700078A3E40078CA390078BE
:1027AD00D75F0078FD94007C0191007C04D0007C03
:1027BD0011BE007C5049007C6D62007C6DF8007C80
:1027CD00C3A1007CC537007CD1C3007CF05F007CC9
:1027DD00FADF0080006E008049710080929F0080BA
:1027ED00B03D0080BE050080D6050080E65000801B
:1027FD00EA960080ED2C00842999008438350084F8
:10280D0041670084788B00848506008489AD00843F
:10281D008E0C0084A1340084B1530084FCAC008480
:10282D00FCFE00881FA100885395008863DF008897
:10283D0066A500886B6E0088C6630088CB8700880C
:10284D00E87F008C006D008C2937008C2DAA008C40
:10285D005877008C7B9D008C7C92008C8590008C31
:10286D008EF2008C8FE9008CFABA009027E400906C
:10287D003C92009060F1009072400090840D0090A9
:10288D008D6C0090B0ED0090B21F0090B9310090AA
:10289D00C1C60090FD61009494260094E96A0094ED
:1028AD00F6A3009800C6009801A7009803D80098D9
:1028BD0010E800985AEB00989E630098B8E30098D2
:1028CD00D6BB0098E0D90098F0AB0098FE94009C20
:1028DD0004EB009C207B009C293F009C35EB009C69
:1028ED004FDA009C84BF009C8BA0009CE33F009CB2
:1028FD00F387009CF48E009CFC0100A0182800A01A
:10290D003BE300A04EA700A0999B00A0D79500A087
:10291D00EDCD00A4313500A45E6000A4670600A4CF
:10292D00B19700A4B80500A4C36100A4D18C00A484
:10293D00D1D200A4E97500A4F1E800A8206600A892
:10294D005B7800A85C2C00A860B600A8667F00A884
:10295D0086DD00A8880800A88E2400A8968A00A805
:10296D00BBCF00A8BE2700A8FAD800AC1F7400ACDE
:10297D00293A00AC3C0B00AC61EA00AC7F3E00ACE8
:10298D0087A300ACBC3200ACCF5C00ACE4B500ACAE
:10299D00FDEC00B019C600B0349500B0481A00B077
:1029AD0065BD00B0702D00B09FBA00B0CA6800B40C
:1029BD0018D100B44BD200B48B1900B49CDF00B415
:1029CD00F0AB00B4F61C00B8098A00B817C200B805
:1029DD0044D900B853AC00B8634D00B8782E00B898
:1029ED008D1200B8C11100B8C75D00B8E85600B827
:1029FD00F6B100B8FF6100BC3BAF00BC4CC400BCDD
:102A0D0052B700BC543600BC677800BC6C2100BCCA
:102A1D00926B00BC9FEF00BCA92000BCEC5D00C018
:102A2D001ADA00C0639400C0847A00C09F4200C0CF
:102A3D00A53E00C0CCF800C0CECD00C0D01200C065
:102A4D00F2FB00C42C0300C4B30100C81EE700C88C
:102A5D002A1400C8334B00C83C8500C869CD00C896
:102A6D006F1D00C8855000C8B5B700C8BCC800C8E8
:102A7D00E0EB00C8F65000CC088D00CC08E000CC8F
:102A8D0020E800CC25EF00CC29F500CC446300CC28
:102A9D00785F00CCC76000D0034B00D023DB00D0A3
:102AAD00259800D0331100D04F7E00D0A63700D02E
:102ABD00C5F300D0D2B000D0E14000D4619D00D468
:102ACD009A2000D4DCCD00D4F46F00D8004D00D88E
:102ADD001D7200D8306200D88F7600D8969500D838
:102AED009E3F00D8A25E00D8BB2C00D8CF9C00D84A
:102AFD00D1CB00DC0C5C00DC2B2A00DC2B6100DC74
:102B0D00371400DC415F00DC86D800DC9B9C00DCC8
:102B1D00A4CA00DCA90400E05F4500E0667800E08F
:102B2D00ACCB00E0B52D00E0B9BA00E0C76700E01E
:102B3D00C97A00E0F5C600E0F84700E425E700E4B7
:102B4D002B3400E48B7F00E498D600E49A7900E4FE
:102B5D009ADC00E4C63D00E4CE8F00E4E4AB00E86F
:102B6D00040B00E8068800E8802E00E88D2800E8B8
:102B7D00B2AC00EC358600EC852F00ECADB800F062
:102B8D00247500F0796000F0989D00F099BF00F079
:102B9D00B0E700F0B47900F0C1F100F0CBA100F086
:102BAD00D1A900F0DBE200F0DBF800F0DCE200F090
:102BBD00F61C00F40F2400F41BA100F431C300F443
:102BCD0037B700F45C8900F4F15A00F4F95100F8BC
:102BDD00037700F81EDF00F8279300F8621400FC5D
:0E2BED00253F00FCD84800FCE99800FCFC489D
:10791A0057070000000000280010D0002D121E4B4F
:10792A000FA4994ECEB531F4057958071E000028E8
:10793A000313000000BD1DA299E625588CD9420107
:10794A00630D12BF9F4B074E0000080000000000A5
:10795A00000000470770000029020200005807775C
:10796A000000280313000000D9D9AAFDBD9B219865
:10797A00A849E145F3D8D16957078F0000140000E0
:10798A0000000000000000000000000000000000ED
:10799A0000005807360000280313000000FB7B7C18
:1079AA00CE6AB344BEB54BD624E9C6EA2257075974
:1079BA0000001400000000000000000000000000A9
:1079CA00000000000000004707170000290202001B
:0179DA0000AC
:105FDA009008A1E0FF90839275F002121367E49390
:105FEA00FC740193F5828C8322F09008A2E004F0FD
:105FFA00EF90839275F002121367E493FE74019393
:10600A00F5828E8322F0A37403F0A37428F0740738
:10601A009002A9F0E4A3F0A37404F0E4A3F07B01D6
:10602A007A0279A922E0FF9022F475F003ED1213A7
:10603A0067EC75F003A42583F583021385121373A5
:10604A0090000112104675F080A42400FFE5F03498
:10605A007BFE7B017A0379439009CBE4F0A37402B7
:10606A00F022A3E075F00390841C121367021385D3
:10607A009009DC121373900001021046EF2402FF0C
:10608A00E433FEE075F002908392121367E49322E0
:10609A009009A4E07F00FEEF2400F582747A3EF5B1
:1060AA0083E5822DF582E5833CF583E49322EFFDB7
:1060BA007414C39DFDE49400FC74A92DF582740246
:1060CA003CF583E0FE229002AD7404F090071FE0D5
:1060DA00FE2402FDE433FCD3ED94FFEC648094804B
:1060EA0022F583E0FE74432FF582E43403F583221C
:1060FA003EF583E49304FD9009A1021373EE240292
:10610A00FE9002AEF090071EE0FD9002AFF0A3EE03
:10611A00F0A3EDF0229002AD7412F074059002A97A
:10612A00F0E4A3F0A37404F0E4A3F02290071FE0C4
:10613A002402FE9002AEF0EF04FFA3F0A3EEF0A358
:10614A00EFF0227404939000051210857B017A0304
:10615A00790322E493FF9008A2E024A9F582E434AB
:10616A0002F583229002ADE0FFA3E0FDA3E0FB90DD
:10617A000956229009A4E0FFC374019FFFEF7F0034
:10618A00FEEF229009A5E475F00102110E74029047
:10619A0002A9F0E4A3F07406A3F0E4A3F0A322900A
:1061AA0008B9E004F0E0FF90059BE0228D82758338
:1061BA00001210469009D6FFED2406FDE433FC12C6
:1061CA0013738D828C83221313543FFD7F00FEEFDD
:1061DA002402F582747A3EF583E493FF900002026A
:1061EA0010469009D5E0FFA3121373900004EF1232
:1061FA00108575F002EF90857522740193FF900265
:10620A00AEE0FEEF227401F090205EE0FEA3E0FD16
:10621A00ED2440FFE43E9005DFFEE0FCA3E0FDC371
:10622A0022FE740193FFF5828E8374029322900AF0
:10623A0045E075F003A424F4F582E43422F58302E0
:10624A001385E493FE9002AFE0FDEE22FEE5822F75
:10625A00F582E5833EF583E493FF223EF583E493DA
:10626A00049000011210859009A7E4F0A322258268
:10627A00F582E43583F583E49322FC7401932FF5C8
:10628A0082EC3EF583E493227401F09002B1E0FFC0
:10629A009002AFE0FE6F228D827583000210469055
:1062AA00058FE0FEA3E0FFC32274432FF582E43496
:1062BA0004F583EEF00FEF22ED7F00FEEF2442F5A6
:1062CA0082747A3EF583E493227404F09009DAE04A
:1062DA0004F022121367E493FA740193F5828A8315
:1062EA00229009DAE0FFC39402229009D5E0FF75F3
:1062FA00F00290857522C8ECC8C9EDC9CAEECACBAE
:10630A00EFCBE0FFE4FCFDFE1212949008DA0213D0
:10631A002AFDE0FAA3E0FBEF2BFFEE3AC313FEEFF0
:10632A0013FF9008DFEEF0A3EFF06D227C007D03EF
:10633A001210A7EF2410FFE43EFEC39005E0E09F91
:10634A00FF9005DFE09E22907C0075F080021367C3
:10635A00EF2402FFE433FE222403FFE433FE90021B
:10636A00A9E0D39FEE6480F87480982290098EE0A9
:10637A002402FDE433FC229002B2E02401FDE4335E
:10638A00FC900703E0FEFBD3ED9B7480F86C982227
:10639A001313543F7F00FEEF2482F582747A22A4FD
:1063AA00FFE5F0F0A3EFF0A2AFE433228F828E83F1
:1063BA00740393FF22FA7401932DF582EA3CF58364
:1063CA00E49322900A44E025E0FF900A43E033FE7A
:1063DA0074E22FF58274223EF5832275F002EF9063
:1063EA0084EB22E0FF24B0F582E43402F583E0FE78
:1063FA0022EEF09009D4E004F0229009A8E02440AB
:10640A00FF9009A7E0340022E0FEE42400FFEE2218
:10641A00E41210739009A5F0A3F0229002A9740661
:10642A00F09002AD7401F09002AF04F0E4A3F0A37F
:10643A0022A3E0FD9002AEE0D39D22740193FF9067
:10644A0002B0E0FEEFD39E22EFF09008A2E004F043
:10645A009008A0E022E0FFFDD390059EE09D900504
:10646A009DE09400229009A4E0FFC322ED9000026F
:10647A00021085D2369002A9E024FD22F583EEF0BF
:10648A009008E5E004F022E493FE9002B1E0FDEE0C
:10649A00D39D22900574E0C3940122900343F0A394
:1064AA00F0A2AFE433F510C2AF221210469002AE4A
:1064BA002402F002102D9009D4E0FFC39402222492
:1064CA000FF58274233EF58312130E9008DA021335
:1064DA001E9009A4E004F0227F00FEEF2400F5825A
:1064EA00747A22EF90000102108590205EE0FEA3EC
:1064FA00E0FDEDFF2440FDE43EFCD322E0FF900ADC
:10650A0043E0FCA3E0FD9022F475F003229005100D
:10651A00F012102D900511F0E490098CF0229007EA
:10652A0071E09002AEF0900770E09002AFF0229016
:10653A000718E09002AEF0900717E09002AFF02241
:10654A00EDF09009FAE004F0229000030210469060
:10655A0009D5E0FF90059DE02275F003EF9085775D
:10656A00229008DFE0FEA3E0229009A5E4F0A3222E
:10657A00E4FF900582E0FE2274B42FF582E434022F
:10658A00F5832290059CE024FFFF90059BE034FFF1
:10659A00FE22E41210739009A7F0A3F09009A4F068
:1065AA0022900582741EF0E490057EF0C23B22A27E
:1065BA00AFE433F50EC2AF22FE7B017A0379439032
:1065CA0009CBE4F0A3229009A4E07F00FEEF22EFBA
:1065DA002402F582747A229009A5E0FEA3E0FF2244
:1065EA0090050FF090098AE0240390050B2274B2FB
:1065FA002EF582E43402F583E0FE22EFF09008BA29
:10660A00E004F09008B8E0227401F0E4A3F02290CC
:10661A00088DE0FE90088CE0FFD39E227B017A026F
:10662A0079B090099202137C74F1F090005674D1FB
:10663A00F07591082275F002EE9083922274049309
:10664A00FE9009D4E0FDC39E22740493FE9009DAF9
:10665A00E0FDC39E229008DA12130278080212EFB4
:10666A00E475F04002110E24C2F582747A3EF58375
:10667A00E49322C374059FFFE49E222402F58274E8
:10668A007C3EF583E49322FF9002AFE024FE22EFE2
:10669A0024C0F582747A22EF2480F582747A22EF7C
:1066AA002440F582747A227401935403FF90098E70
:1066BA00F022F090098CE004F0229008B7E0FF90F5
:1066CA0008B9E0229008B7E0FF9008B6E0229007E8
:1066DA0002E0F99002B3E022F582E43402F583EF96
:1066EA00F022E004F0900572E014FF229002ADF06F
:1066FA009002A97401229008A1E004F022A2AFE45A
:10670A0033F50D228F82758300EE0210859009D52C
:10671A00E004F02212137302102D9009DBE004F05A
:10672A0022FE74AE2FF582E4340222EEF09008D1F4
:10673A00E004F0E022EF9DFFEE9CFEC3E09F22A35F
:10674A00A3E0900343F0A3F02290098AE0FF9009A6
:03675A008CE022AE
:10323800EF121391325500325801325B02325E03AD
:103248003261043264053267060000326A0233755F
:1032580002337602337702337802337902339E12CF
:0332680033D4223A
:10326B00EF12139133150032D00132D30232D60351
:10327B0032D90432DC0532DF0632E20732E508329E
:10328B00E80932EB0A32EE0B32F10C32F40D32F765
:10329B000E32FA0F32FD10330011330312330613C3
:1032AB00331514331515330916330C17330F183325
:1032BB00121933151A33171B33151C331D1D3320ED
:1032CB001E000033230233E3023419023433023479
:1032DB00340235BE0236FE02386A0238C2023BBCEB
:1032EB00023D91023E72023E73023FD3023FD40273
:1032FB003FDD023FDE02434902434A0246E00246FB
:10330B00E10246EA0246EB0246F480030246F5026E
:09331B0033E202477512477622E5
:10332400EF121391335000335301335602335903D0
:10333400335C04335F05336206336507336808334F
:103344006B09336E0A33710B00003374024B0B02AA
:103354004B0C024BDA024BDB024C59024D46024D38
:103364005A024D66024D97024DAB024F63124F77DE
:013374002236
:013375002235
:013376002234
:013377002233
:013378002232
:103379009002ADE0FF54E07009EFD3941E5015029E
:10338900326B9002ADE0242E60072480700602475C
:0533990079124B0A222D
:10339E009002ADE0FFD394135017EF14602724EE84
:1033AE0070099002B1E0900571F022126425F08050
:1033BE00071264257402F0E41260269002A9E0243C
:0533CE0004FD12035E86
:0133D30022D7
:0D33D4009002ADE0FFC3940C5003123324AF
:0133E10022C9
:0133E20022C8
:1033E30090057EE0FFB401028028EFC3940A5025C4
:1033F30090071EE0FF7004A3E060171260D0500531
:103403001261078003126136740512601A7D090286
:06341300035E1265AB220E
:103419009002AD7403F0900572E09002AE12602440
:0A3429009002A9E02404FD02035EF6
:013433002276
:10343400D242126295700912643B500BC24280075B
:10344400EEC39F5002C2429002AEE0FD7006A3E0BC
:103454007002D2423042129002ADE0FF9002AFE01F
:10346400FB90095674010235B9D242E49009FAF08E
:103474009009FA125FDD12624CC39D4016125FFA86
:10348400126204C39E400C9009FAE09009F7F0C25E
:1034940042800D9009FA1261AC7003A3E06F70D002
:1034A40020422B9009FA125FDD1264915020125FC2
:1034B400FA12644550189009FAE09009F8F0126580
:1034C4004C9009FA1261AF7003A3E06F70D53042DB
:1034D400030235B49002AD7405F09009F7E09084CE
:1034E400EB125FFE74019354039002AEF09009FB5B
:1034F400F09009F97402F0A37406F09009F7E0FF64
:103504009084EB125FE27401935403FE9009FBE094
:103514006E60030235A59009F7E0FE125FDF7401C7
:1035240093FD9009FA12616312654A12663F125FB5
:10353400E5E493FE9009FA126163EE12654B124FB3
:1035440094CCEFCC9009FAE02FFE9009F9E02F24F7
:1035540002F00C9009FAE0FFC39E501A9009F7128A
:10356400608D1262E22C12627AFD74A92F126166D8
:1035740012654A1C80DD9009F9E0FF900572E0C3F2
:103584009FFF9009FAE014FEEFC39E40149009F7E0
:10359400E004F0A3E0FF9009F7E0D39F5003023466
:1035A400FF9009F9E0FF12601AEF2404FD02035EA4
:0935B40012616E740AF012ABB74B
:0135BD0022EB
:1035BE00D243E4FDFC126692C394FE401C126031AD
:1035CE001260801266916F702B12102DFF9002B058
:1035DE00E0146F701FC24380261260311260801299
:1035EE0066916F700F12102DFF9002B0E06F700495
:1035FE00C243800B0DBD00010CED64094C70B6305A
:10360E0043030236FD9022FA126034126553FF9086
:10361E0002B1E06F60030236FD1261E6FF9002B266
:10362E00E06F60030236FD9002AFE01264EE90028E
:10363E00B0E0FF9022FA126034EF121073D243E41E
:10364E00FCFD12603112102D702612608070211256
:10365E0061E66429701A126553B402149022EE12B8
:10366E00603412102D70051260806004C243800B0E
:10367E000DBD00010CED64094C70C720435890023B
:10368E00AD7404F09022EE12603412608012635B0F
:10369E00D3EF94FFEE648094809000015012126478
:1036AE00B49002AFF01260809002B01264BA80152E
:1036BE001264B4049002AFF012608024029002B043
:1036CE00F012102D049002B1F09002A97405126050
:1036DE001D7D0902035E900582741FF090057E74B5
:0F36EE000AF0C23B900566E064036003124F7759
:0136FD0022AA
:1036FE009009FC126292700712643B500C8005EE2A
:10370E00C39F5005E49009FCF09002AEE07009A34F
:10371E00E070059009FC04F09009FCE0700E900238
:10372E00B3E0642860069009FC7406F09009FCE092
:10373E0060030237D9740AF09002A9E09009FFB431
:10374E0017057410F080037402F0E4900A00F090F4
:10375E000A0012608D12622BFD9002B3E0FCED6C3C
:10376E00705C1263B69002B2E0FEEF6E7050FF9086
:10377E0009FFE0FEEFC39E501312606C8F8212623F
:10378E00A3FD126582E06D70030F80E3EF6E702E65
:10379E00900A00125FDD12624CC39D4021125FFA47
:1037AE00126204C39E4017900A00E09009FDF0A338
:1037BE00F0E49009FCF0900A00E004F0800D900A0D
:1037CE00001261AC7003A3E06F70849009FCE0708E
:1037DE0034900A0012608D12622BFD9002B3E0FC51
:1037EE00ED6C700C1263B69002B2E0FEEF6E6015D7
:1037FE00900A00E09009FEF0900A001261AD70038D
:10380E00A3E06F70CC9009FCE09002AD703A7407A3
:10381E00F09009FD125FDD7401939002AE125FF914
:10382E00E4939002AFF09009FE125FDD7401939065
:10383E0002B0125FF9E4939002B1F09002A9740500
:10384E0012601D7D0902035EE0FFA3E0FDA3E0FB15
:0B385E009009FCE0900956F012ABB797
:01386900223C
:10386A0090057EE06401704F9002AFE0900700F08F
:10387A009002AEE0900701F09002B1E0900702F0EA
:10388A009002B0E0FF900703F09002AD7408F09048
:10389A000701E09002AEF0900700E09002AFF0A3BB
:1038AA00EFF0900702E09002B112600F7D0B120355
:0838BA005E90057E7402F0220D
:1038C2009008A3126292700712643B500C8005EEBE
:1038D200C39F5005E49008A3F09002AEE07009A3E4
:1038E200E070059008A304F09008A3E07038740A11
:1038F200F0E49008B9F09008B9125FDD12624CC38F
:103902009D4019125FFA126204C39E400F9008B9DB
:10391200E09008A4F0E49008A3F0800A1261A97074
:1039220003A3E06F70D09008A3E0702D740AF090AA
:1039320008B9125FDD126491501F125FFA126445DA
:1039420050179008B9E09008A5F0E49008A3F0128F
:1039520061A97003A3E06F70D69008A3E070229073
:1039620002A9E0FFB407089008B77402F08012EFD2
:10397200B415089008B77410F080069008A3740478
:10398200F09008A3E07074740AF09008A5E0FF902C
:1039920008A4E0D39F5064E49008B9F09008B7E01F
:1039A2009008BAF01266C4FE6F603BA3E014F09078
:1039B20008A4E0125FDFC083C0829008BAE0FF1261
:1039C200637AD082D0831260ABFD1265F86D60021B
:1039D200801474A62FF582E43408F583EEF0900883
:1039E200B9E004F080BE1266C46F70069008A3F0BE
:1039F20080099008A4E004F002398C9008A3E060EA
:103A020003023B5E9008B87402F09008BA7406F0A4
:103A1200E49008B9F09008A5E0FE9008A4E0FDD378
:103A22009E4003023B5E9008B7E0049008B6F0CFD8
:103A3200EDCF124F949008B7E06F70049008B6F083
:103A42001266CEFEC39F50259008A4E0125FDFEEFF
:103A520012637A1260ABFF74A62EF582E43408F585
:103A620083E06F70089008B6E004F080D31266CE4F
:103A72006F6003023B559008A4E0FF124FA9900823
:103A8200A3EFF07018A3E0FF125FC09008A3EFF05D
:103A9200600B12606C12AF219008A3EFF09008A3A4
:103AA200E06003023B5E9008A4E0FF124F94EF1225
:103AB200637A9008A4E0FF12608E1263BF2402FEB4
:103AC200FD125F72CEEFCE900572E0FF2405FD90ED
:103AD20008BAE0FCC3ED9CFDEEC39D50069008B60B
:103AE200EE800BEC64067074EF24FE9008B6F09042
:103AF20008A4E09008B9F09008B9E060569008A4D4
:103B0200125FDD740193FE9008BA126163EEF090C9
:103B120008BA125FF7E493FF9008BA126163126663
:103B2200052402F09008B6E024FEF0E4FE9008B608
:103B3200E060209008A412606D8E821262A3FF9052
:103B420008BA12616312660504F00E9008B6E0141A
:103B5200F080DA9008A4E004F0023A179008A3E09B
:103B620070419008B8E0126127A37409F09008B977
:103B7200E0FF124F949008B9126086126284240208
:103B8200FF9002AEF0900572E024FEFEEFD39E405D
:103B9200059002AEEEF01260289008B8E02404FD11
:103BA20002035E9002ADE0FFA3E0FDA3E0FB9008FC
:093BB200A3E0900956F012ABB734
:013BBB0022E7
:103BBC0090057EE0FF6402600DEF64036008EF6423
:103BCC00046003023D90D244E4900A43F0A3F01247
:103BDC0063CDE49312622B642870397403936403ED
:103BEC007032FDFC1263CD126004ED2408FFE43C3E
:103BFC0012625674B42D126585E0FEEF6E700B0DDB
:103C0C00BD00010CED64104C70DAED64104C7004C6
:103C1C00C2448012900A43126190900A43E07004EF
:103C2C00A3E0640970A9304403023D129002AF1264
:103C3C0065061260381264ED9002B012602FEF121C
:103C4C0010739002B1126506126038900005EF12E5
:103C5C0010859002B212602F900007EF1210859021
:103C6C0002B3E0FE126031900006EE121085902235
:103C7C00F71260341264ED9002B3E0FF9022F71259
:103C8C006034EF12107390057EE004F0E0D39404DE
:103C9C00504B1266D89950271263815003023D1E77
:103CAC0090071EE0FF7007A3E07003023D8D1260C9
:103CBC00D05006126107023D5A126136023D5A90ED
:103CCC00071EE0FF7004A3E060101260D0500512D4
:103CDC0061078003126136023D5A023D8D90057ECC
:103CEC00E064056003023D9090071EE0FF7007A39F
:103CFC00E07003023D901260D05005126107800302
:103D0C00126136023D5A1266D8D399504F12638114
:103D1C0050249002AD7408F09002B2E0049002AE10
:103D2C00F09002B3E09002AFF0A3EEF0A3E91260C2
:103D3C000F7D0B023D8A90071EE0FF7004A3E0602C
:103D4C00191260D05005126107800312613690027F
:103D5C00A9740512601D7D098024802590071EE042
:103D6C00FF7004A3E0601A1260D050051261078046
:103D7C00031261369002A9740512601D7D090203BD
:043D8C005E1265ABB3
:013D90002210
:103D9100900A1A126612900A1B125FDD12624C6DB4
:103DA100700F125FFA1262046E7006900A1AF080A8
:103DB1000D900A1B1261AC7003A3E06F70D8900ADA
:103DC1001AE0700BA3E0FF124FA9900A1AEFF090CE
:103DD1000A1AE07018A3E0FF125FC0900A1AEFF010
:103DE100600B12606C12AF21900A1AEFF0900A1A60
:103DF100E0FE600812616EEEF002ABB7E4900A1CBF
:103E0100F0A304F0900A1BE0FF124F94EF12637AC3
:103E1100900A1BE0FF12608E1263BFFE900A1AF037
:103E2100FD125F72900A1AEFF0900A1AE0FF900AF1
:103E31001CE0FEC39F5024900A1B12606D8E8212FB
:103E410062A3FF74AE2E1266E2900A1CE004F0A396
:103E51001266EC900A1DE0D39F40CE9002AD740B28
:103E6100F0900A1DE0FF12601AEF2404FD12035EB8
:013E7100222E
:013E7200222D
:103E7300C2459009CD1266129009CE125FDD12621F
:103E83004C6D700F125FFA1262046E70069009CDCA
:103E9300F0800D9009CE1261AC7003A3E06F70D86F
:103EA3009009CDE0700BA3E0FF124FA99009CDEF6D
:103EB300F09009CDE07018A3E0FF125FC09009CD28
:103EC300EFF0600B12606C12AF219009CDEFF09010
:103ED30009CDE0703BA3E0FF124F94EF12637A9099
:103EE30009CEE0FF12608E1263BFFE9009D0F0FD91
:103EF300125F729009D0EFF0900572E024FDFEEF9F
:103F0300D39E500C9002B0E060069009CD740BF084
:103F13009009CDE070359009D0E02401FFE433FE31
:103F23009002B0E0FD7C0012636C40089009CD74F0
:103F330007F08017ED6F7002EC6E700F740D126650
:103F4300F612601D7D0512035ED245304503023F24
:103F5300D29009CDE0FE600812616EEEF002ABB7BD
:103F6300E49009CFF09009D104F09002B0E09009F9
:103F7300D2F09009CFE0FF9009D2E02FFFE433FEA7
:103F83009009D0E0FDC3EF9D7480F86E98502B909C
:103F930009CE12606D8F828E83121046FF9009CF77
:103FA300E024AE1266E29009CFE004F09009D1124A
:103FB30066EC9009D1E0D39F40B89002AD740DF048
:0F3FC3009009D1E0FF12601AEF2404FD12035E93
:013FD20022CC
:013FD30022CB
:093FD40012616E7406F002ABB735
:013FDD0022C1
:103FDE0090088A126292700712643B500C8005EEB4
:103FEE00C39F5005E490088AF09002AEE07009A3DA
:103FFE00E0700590088A04F090088AE0706A740AEE
:10400E00F0E49008A1F0125FDA12624CC39D4014E6
:10401E00125FFA126204C39E400A9008A1E0900853
:10402E008CF0800D9008A11261AC7003A3E06F704C
:10403E00D59008A11261AF7003A3E06F602A125FE2
:10404E00DA1264915022125FFA126445501A9008E7
:10405E00A1E090088DF0E490088AF09008A112611A
:10406E00AC7003A3E06F70D690088AE070229002C5
:10407E00A9E0FFB4070890089F7402F08012EFB415
:10408E00150890089F7410F0800690088A7404F04A
:10409E0090088AE060030241557410F0E49008A184
:1040AE00F090089FE09008A2F090089FE0FF900823
:1040BE00A1E0FE6F601BA3E014F01265F89008A259
:1040CE00E0248EF582E43408F583EEF0126700806A
:1040DE00D8EFB4021690088EE06428706AA3E0D37D
:1040EE0094015063E490088AF0805C900890E0643C
:1040FE00287054A3E0D39401504D90088EE0704781
:10410E00A3E070439008A17404F09008A1E0FFC3EF
:10411E009410501AE0FE9021AD93FD748E2EF58210
:10412E00E43408F583E06D700512670080DCEFB4AF
:10413E001015E490088AF0900890E090088EF090A8
:10414E000891E090088FF090088AE07038740AF0B9
:10415E001266195030124F94EF6402702090088C42
:10416E0012608D12622BFD90088EE06D700F12633F
:10417E00B690088FE06F700512433B800890088C54
:10418E00E004F080CB90088AE0FE600812616EEECB
:10419E00F002ABB79008A07402F09008A27406F07B
:1041AE00126619400302430E124F94EF640260032D
:1041BE0002430590088C12608D12622BFD90088EC2
:1041CE00E0FCED6C60030243051263B690088FE0CD
:1041DE00FEEF6E600302430512433B600302430E83
:1041EE0090088CE0FF124F9412635A90088CE0F9FD
:1041FE0012608EFC740193FD1262882404FF9008F5
:10420E008BF0900572E02404C39FFF9008A2E0FE9D
:10421E00C39F400302430E90088BE090089EF090DF
:10422E00088CE0FF8D828C83740193FD74A92E128D
:10423E006166ED125FF312615D1264522402F01298
:10424E00658DE96F7001EE604490088CE004900873
:10425E00A1F012658D9008A1E0FDC39FE49E50353C
:10426E0075F002ED12609112622BFD90088EE0FC4B
:10427E00ED6C70141263B690088FE0FEEF6E70084E
:10428E009008A1E014F0800D12670080C590088C94
:10429E00E09008A1F0125FDA740193FE126160EEF5
:1042AE00125FF312615D1264522402F090089EE0D8
:1042BE0024FCF0E490088BF090089EE060259008B6
:1042CE008C12606D90088BE0F5821262A312615F12
:1042DE0012645204F090088BE004F090089EE014F3
:1042EE00F080D59008A1E0FF90088BF0A3E0900835
:1042FE00A1F090088CEFF090088CE004F00241AE33
:10430E009002AD7411F09008A1E0FF124F94900846
:10431E00A112608612628424049002AEF09008A06E
:0C432E00E0FF12601AEF2404FD12035E91
:0F433A002290088CE0FF124FA990088AEFF02222
:014349002251
:10434A001267079009D31266129009D4125FDD1220
:10435A00624C6D700F125FFA1262046E7006900959
:10436A00D3F0800D9009D41261AC7003A3E06F7092
:10437A00D89009D3E0700BA3E0FF124FF79009D34E
:10438A00EFF09009D3E0701DA3E0FF124F9412637F
:10439A005A9009D412608D126284126362400690A8
:1043AA0009D3740DF09009D3E07051A3125FDD7444
:1043BA000393645570461263E5126001E493FF6447
:1043CA00206005EF640270349009D4E0FF75F002B2
:1043DA00908394125FE5740393B4022075F003EF9F
:1043EA0090841F12607412102D70089009D3748182
:1043FA00F08009300F069009D37480F09009D3E059
:10440A00702DA3E0FF125FC09009D3EFF060201275
:10441A00606CEBC0E0EAC0E0E9C0E0126626D0E0DA
:10442A00F9D0E0FAD0E0FB12ADE99009D3EFF090B1
:10443A0009D3E0FE600812616EEEF002ABB7E490B9
:10444A0009D5F012647FFF9009D5E0C39F5011127D
:10445A0063ED9009D412606D12670E12671780E33C
:10446A009009D4E0FF75F0029084EB125FE57401C5
:10447A009330E2329009D5E0FEEEC0E0124F94127A
:10448A00635A9009D4E0FD12608EFA7401932FF5F5
:10449A0082EA12625E75F003ED1260718F82758393
:1044AA0000D0E012108512647D900573F09009D453
:1044BA0012606D90092712137C74131266F612604B
:1044CA001D7D0512035E12649D50030246BBE490F3
:1044DA0009D5F09009D512645F40349009D4E0FE02
:1044EA00125FDFE493FD1261FC1262DDE4936D70EA
:1044FA0018EE125FFB740193FF9009D5E01262F97E
:10450A00125FE57401936F60061267170244DD12A9
:10451A0065597003A3E06F70030246BB126156121D
:10452A0046BC12102D60030246BB1261561246C8E1
:10453A0012102D70030246801261561246BC126197
:10454A00567F081250459009D612137C126080706B
:10455A0050907E8293F470030246247F0212571A07
:10456A00E49009D4F01264C0500A1260EF74041285
:10457A0063FC80F1126707C2AF12605C7F007E7E27
:10458A00122111E49009D4F01264C0500A1260EFAB
:10459A0074051263FC80F112605C7F807E7E0246A5
:1045AA001B9009D612607DFF907B82126354E493BC
:1045BA00F46067EF14FF30E061605FC313FF1257C6
:1045CA001AE49009D4F01264C050109009D612600F
:1045DA007D24FE1260EE1263FB80EB126707C2AF06
:1045EA009009D6126047122111E49009D4F012649E
:1045FA00C0500F9009D612607D141260EE1263FB50
:10460A0080EC9009D612607D75F080A42480126037
:10461A0056122111E50D24FF92AF129F999009D6E7
:10462A0012671E70519009D5F09009D5E0FFD3901A
:10463A00059EE09F126468403DE49009D4F012623E
:10464A00F4125FE512664750121265631260741223
:10465A0061B6EF1210851263FD80E31261EC1260FD
:10466A000112614D1246D41261561246C8129F9920
:10467A001267170246331265597003A3E06F60315F
:10468A00E49009D4F01262F4125FE5126647501200
:10469A001265631260741261B6EF1210851263FD1F
:1046AA0080E31261EC12600112614D1246D4129F2E
:0146BA009966
:1046BB00227F051250459009D612137C227F0712D8
:1046CB0050459009D612137C227F09125045900950
:0546DB00D612137C2241
:0146E00022B7
:0946E10012616E7406F002ABB721
:0146EA0022AD
:0946EB0012616E7480F002ABB79D
:0146F40022A3
:1046F500D246900A457401F0900A45E0FF12623CEB
:1047050012102DFE9002AFE06E7013EF12623C1294
:104715006080FF9002AEE06F7004C246800A900A86
:1047250045E004F0E0B409D0204644E4900A46F0A0
:1047350012647FFF900A46E0C39F50211263ED1279
:104745006238E92403F9E43AFAEF7C0029F9EC3AF6
:10475500FAEE121073900A46E004F080D3D21B12D1
:0F476500647F900583F012623890093412137C40
:014774002222
:014775002221
:03477600C20F224D
:10477900A2AFE433F50E9009D91266129009DA1244
:104789005FDD12624C6D700F125FFA1262046E7077
:10479900069009D9F0800D9009DA1261AC7003A373
:1047A900E06F70D89009D9E0700BA3E0FF124FF7C2
:1047B9009009D9EFF09009D9E0701DA3E0FF124FDD
:1047C9009412635A9009DA12608D1262841263623C
:1047D90040069009D9740DF09009D9E0702DA3E035
:1047E900FF125FC09009D9EFF0602012606CEBC036
:1047F900E0EAC0E0E9C0E0126626D0E0F9D0E0FACC
:10480900D0E0FB12ADE99009D9EFF09009D9E06049
:1048190003024AC3E49009DBF012647FFF9009DBCD
:10482900E0C39F50111263ED9009DA12606D1267AF
:104839000E12672480E39009DAE0FF75F002908494
:10484900EB125FE574019330E2329009DBE0FEEE92
:10485900C0E0124F9412635A9009DAE0FD12608E9B
:10486900FA7401932FF582EA12625E75F003ED1274
:1048790060718F82758300D0E012108512647D907B
:104889000573F09009DA12606D90092712137C12F2
:10489900649D5003024AC3E49009DBF09009DB12DE
:1048A900645F40369009DAE0FE125FDFE493FD129F
:1048B90061FC1262DDE4936D701A12663F126001A9
:1048C900740193FF9009DBE01262F9125FE574014C
:1048D900936F60061267240248A59009DB12655C94
:1048E9007003A3E06F7003024AC3126156124AC4EF
:1048F90012102D6003024AC3126156124AD01210D7
:104909002D7003024A74126156124AC41261567F0D
:10491900081250459009DC12137C126080703C909B
:104929007E8293F470030249CE124AF51262EB506B
:10493900081260EF1262D380F31265B912605C123B
:104949004ADC1262EB500A1260EF74051262D580DC
:10495900F112605C7F807E7E0249CB12607AFF751E
:10496900F080907B82121367E493F46058EF14FF90
:1049790030E0526050C313FF12571AE49009DAF07D
:104989001262EB500E12607A24FE1260EEEE126291
:10499900D580ED1265B99009DC126047122111E446
:1049A9009009DAF01262EB500D12607A141260EE7F
:1049B900EE1262D580EE12607A75F080A42480121E
:1049C9006056124B00129F9912607A7039907E825C
:1049D90093F46032124AF51262EB50081260EF123A
:1049E90062D380F31265B912605C124ADC1262EB81
:1049F900500A1260EF74051262D580F112605C7F73
:104A0900807E7E124B009009DC12671E705D900952
:104A1900DBF09009DBE0FFD390059EE09F1264680C
:104A29004049E49009DAF09009DB1262F7125FE578
:104A390012665350181265631260741262A19009CC
:104A4900DC1261C1EF1210851262D680DA9009DB9F
:104A59001261EF12600112614D124AE91261561298
:104A69004AD0129F99126724024A1B9009DB1265EA
:104A79005C7003A3E06F6042E49009DAF09009DB0F
:104A89001262F7125FE512665350201265631260D5
:104A9900741262A1FFED2406FDE433FC9009DC12D7
:104AA90061C9EF1210851262D680D29009DB1261BA
:0A4AB900EF12600112614D124AE98C
:104AC300227F051250459009DC12137C227F0712C6
:104AD30050459009DC12137C227F007E7E12211147
:104AE300E49009DAF0227F091250459009DC121391
:104AF3007C227F0212571AE49009DAF02212211164
:074B0300E50E24FF92AF2232
:014B0A002288
:014B0B002287
:104B0C00302206200A03024BC59002AEE0900575D8
:104B1C00F09002AFE0900576F09002B0E0900116B4
:104B2C00F09002B1E0900113F09002B2E0900577A2
:104B3C00F09002B3E0900578F090AEC7E493FF904C
:104B4C000116E04F20E203E4801D900575E0FF9014
:104B5C00AEC5E49375F005A42423F582E43422F564
:104B6C0083E5822F12627A900115F0900113E0FF19
:104B7C00D394064029EF941150247BFF7AAE79C070
:104B8C0090AEC0E4932404FD12035E12AF029001B8
:104B9C0015E060199005677428F0D233800F12610C
:104BAC00977405F0A304126027FD12035E9005664E
:104BBC007401F0E4900579F02220390302032E12DF
:0E4BCC0061977405F01260267D0612035E22CA
:014BDA0022B8
:104BDB00E4FF900579E070191260B81262B3B4105B
:104BEB00F79005797401F0900567E06005E4FF80AC
:104BFB00010FEF60587BFF7A2179CD900842121399
:104C0B007C7B017A047953129874E4FFEFFD740FE7
:104C1B001260BC74072FF582E434091262BBB41026
:104C2B00EB74111261997403F0E4FF74072FF58292
:104C3B00E43409F583E012672B1262BBB410EC125B
:0D4C4B0060287D1512035E9005667402F06E
:014C58002239
:104C5900E49008E5F09008E5E0FF1260B974E62FEA
:104C6900F582E43408126486E0B410E97B017A081D
:104C790079E690084212137C7A0479531298749059
:104C89000579E064016003024D459008E5F090085C
:104C9900E5E0FF6410601CE0FE2443F582E434047F
:104CA900F583E0FD74A92E126166E06D700512644A
:104CB9008A80DBEF6410706D9002A9741112619CF7
:104CC9007404F0E49008E5F09008E5E0FFFDC37492
:104CD9000F9DFDE49400FC74CD2DF58274213CF503
:104CE90083E49312672B126486E0B410DB12602808
:104CF9007D1512035EE49008E5F09008E5E0FF24D5
:104D0900E6F582E43408F583E0FE74432FF582E486
:104D19003404126486E0B410E19005797402F0E479
:104D2900900114F022D21D1261977405F0A3141298
:0C4D390060277D0612035EE4900579F00F
:014D4500224B
:104D4600D21D900582E0B41F0A9002AEE0B40803BB
:044D5600124F77225F
:0B4D5A00E4FF1260B81262B3B410F75F
:014D6500222B
:104D6600E4FFEFFDC374061260BD74F52FF582E40F
:104D760034021262BBB402EAE4FFEFFDC3740D1203
:104D860060BD74ED2FF582E434021262BBB408EA0A
:014D960022FA
:104D9700E4FF1260B874632FF582E434041262BB37
:034DA700B410EF56
:014DAA0022E6
:104DAB009002AEE0600122E49008D1F09008D1E0CF
:104DBB00FF24AFF582E43402F583E0FE74D42FF5C3
:104DCB0082E43408F583126735B406E0D22F9008DD
:104DDB00D9E0FFE4FCFDFEA312132A12665F9008D4
:104DEB00D812630012665F9008D71263009008DF39
:104DFB007402F0A3743BF09008DFE0C313F0A3E060
:104E0B0013F0E4A3F0A3F0A37402F0A3743BF0E45B
:104E1B009008DEF012656B7802C333CE33CED8F92F
:104E2B001264C9C31212B7501C12656BFF9008E3D2
:104E3B00EEF0FCA3EFF09008E112631B7002EE6C36
:104E4B007037024E9F12656B7802C333CE33CED8C8
:104E5B00F91264C9D31212B7401712656BFFA3EE98
:104E6B00F0FCA3EFF0A312631B7002EE6C700A80D0
:104E7B00239008DE7401F0801B9008E11262AC9065
:104E8B0008E4E09FFF9008E3E09EFED3EF9400EE72
:104E9B00940050809008DEE07003024F621261565E
:104EAB007F0512504512102D6003024F621261569E
:104EBB007F0612504512102D6003024F6212608064
:104ECB001261D1FCEF6C70089008D27404F080274B
:104EDB001262C26C70089008D27444F08019126090
:104EEB008012639A1261E0FEEF6E9008D270057427
:104EFB0084F0800374C4F0E49008D1F09008D1E002
:104F0B00FF2463F582E434041260EB126735B410AE
:104F1B00EB1260801313543F9008D3F07F011220E3
:104F2B003DA2AFE433F50FC2AF9008D3E0FE90087B
:104F3B00D2E07C002400FFEC3EFEEF242AFFEE348F
:104F4B007A1265C27410F0122111E50F24FF92AF93
:074F5B00E4FF12203DD22CFF
:014F6200222C
:104F6300E4FF1260B874732FF582E434041262BB59
:034F7300B410EF88
:014F76002218
:104F7700900566E07016126197740BF090AEC7E467
:0D4F8700939002AE1260277D0612035E2299
:104F94001263E51260017401935403B401047F02A7
:044FA40080027F10F8
:014FA80022E6
:104FA9001263E5126001E493FFE4FEEF54557004C7
:104FB9007E028036EF30E60890057AE070027E08BE
:104FC900EE700BEF30E40712649D50027E05EE701F
:104FD90019EF30E21590057BE070047E0F800B908D
:0D4FE9000113E0C3941050027E0CCFEECFF8
:014FF6002298
:104FF7001263E5126001E493FFE4FEEF54AA700424
:105007007E038036EF30E70890057AE070027E086D
:10501700EE700BEF30E50712649D50027E05EE70CF
:1050270019EF30E31590057BE070047E0F800B903D
:0D5037000113E0C3941050027E0CCFEECFA9
:015044002249
:065045009009A112137C8A
:10504B00A2AFE433F510EF12139153200150740209
:10505B0050900350AF045285055460065510075508
:10506B00F1085673090000570CE49009A4F0126480
:10507B006F9402502C1257DF9009A4E0FF1258A432
:10508B001264DB80E9E49009A4F012646F9403507E
:10509B001012571A9009A4E0FF1258F61264DB8025
:1050AB00E902527E1261017401121073E49009A49B
:1050BB00F09009A4E0C394024003025273E0FD7523
:1050CB00F004A4FFAEF09009A7EEF0FAA3EFF0FB0B
:1050DB00E412641EED1264E212625E6B7001EA6010
:1050EB0033EFF4700302527312657304F09009A549
:1050FB001262249440EC9400500B12609AB4FF059A
:10510B0012618D80E89009A5E07004A3E064406013
:10511B00030252731265D01266AA12625EFD9009E9
:10512B00A8E02401FB12640BFAEB6D7001EA60340A
:10513B00EFF470030252731265737441F09009A57A
:10514B001262249480EC9400500B12609AB4FF0509
:10515B0012618D80E89009A5E07004A3E064806083
:10516B00030252731265D01266A212625EFD9009A1
:10517B00A8E02402FB12640BFAEB6D7001EA6034B9
:10518B00EFF470030252731265737481F09009A5EA
:10519B0012622494C0EC9400500B12609AB4FF0579
:1051AB0012618D80E89009A5E07004A3E064C060F3
:1051BB00030252731265D012669A12625EFD900959
:1051CB00A8E02403FB12640BFAEB6D7001EA602F6D
:1051DB00EFF4700302527312657374C1F09009A55A
:1051EB00126224EC9401500B12609AB4FF05126109
:1051FB008D80EA9009A5E064017002A3E0706990CC
:10520B0009A5E0FFA3E0A3CFF0A3EFF09009A7124D
:10521B0062ACEE9401503FEF243EFFE43E9009A5B3
:10522B00F0A3EFF01264049009A51262239FEC9E89
:10523B00500B12609AB4FF0512618D80E712640463
:10524B00FE9009A5E06E7003A3E06F70099009A7AB
:10525B0012666A0252179009A5E0B4010BA3E0B4E1
:10526B0000061264DB0250BC9009A4E064026003E8
:10527B0002570C126101E402568712610112659C00
:10528B0012646F94025069126182126671FDF460B0
:10529B000B126271EDF01266990252EB12617D12E4
:1052AB0063A23EF583E493FDF4600A126271EDF0A4
:1052BB001266A1802B12617D1262C7FDF4600A1287
:1052CB006271EDF01266A9801712617D1265DA3EEC
:1052DB00F583E493FDF46012126271EDF01264E554
:1052EB0012625E126573EFF080061264DB02528B62
:1052FB009009A7E0FEA3E0FF4E7008126101740451
:10530B000256879009A5A3E0126100ED1264EE909E
:10531B0000020255ED12610112659C12646F94023A
:10532B0040030253EC126182126671F46042EF2467
:10533B00C2F582747A1260FA1264761266993EF59F
:10534B0083E493041264EE12646F74019FFF12578F
:10535B00DF12646F74019FFF1258A49009A71260AB
:10536B00659009A4E0FF6079C374029FF00253ECCF
:10537B0012617D1263A23EF583E493F46014126311
:10538B00A11260FA1264761266A112626574C202EF
:10539B0053DC12617D1262C7F46017EF2442F58271
:1053AB00747A1260FA1264761266A91262657482BC
:1053BB00801F12617D1265DA3EF583E493F4601B66
:1053CB001265D91260FA1264761264E51262657482
:1053DB0042F012646F74019FF080061264DB02537B
:1053EB00269009A7E07002A3E0701312610174010B
:1053FB001264779009A7126065E49009A4F012611A
:10540B00011261E67007900002041210859009A446
:10541B00E01264E23EF583C083C0829009A7E0FCF2
:10542B00A3E0FDD082D08325821260AEF49009A157
:10543B00600812137374030256871213731261E61A
:10544B001264A59009A4126412347ACF2DCF3C12AA
:10545B00605B02570912610112641A9009A512626E
:10546B0024EC940140030254F99009A112607D13BE
:10547B0013543F7F00FE1265D91260A8FF12610121
:10548B001261E6FEEF6E705D9009A4F09009A4E046
:10549B00FDC3943A50589009A112607D1313543FE9
:1054AB007F00FEEF2404F582747A3EF583C083C03F
:1054BB0082EDFF9009A6E02FFF9009A5E03400FED6
:1054CB00D082D083126257126101E92403F9E43AC6
:1054DB00FA9009A4E07C0029F9EC3AFAEF12107368
:1054EB001264DB80A79009A512666A0254669009C4
:1054FB00A5E064017002A3E0600302570C12610186
:10550B007405025687126101E41210739009A4F01E
:10551B00A3F0A3F09009A51262AC9406EE94005090
:10552B002F1261011261E6FD12667DFEEF7807C353
:10553B0033CE33CED8F91266856D700F9009A5E086
:10554B007002A3E0700A9009A404F012618D80C46C
:10555B009009A4E0B4010EA3E07004A3E06405601D
:10556B0004E412641E1265E164064E7008126101B8
:10557B00740402568712667D9009A5F0A3EFF01212
:10558B0061011264ED9009A47405F09009A4E0FD8B
:10559B00C394805031A3E0FEA3E07807C333CE332E
:1055AB00CED8F92400F582747C3EF583E5822D126A
:1055BB00627AFFF4600A9009A4E02F2402F080CBFA
:1055CB009009A4E014F09009A4E0C3947C40081265
:1055DB00610174061210739009A4E0FF126101902F
:1055EB000003EF02566D12610112641A9009A512A5
:1055FB0062AC9406EE9400501912667DFEEF7807AC
:10560B00C333CE33CED8F9126685B4FF0512618D44
:10561B0080DA1265E164064E700512641E8012EF8B
:10562B004E600EC374069F9009A6F0E49E9009A5E8
:10563B00F01265E1126100900001ED12108512610C
:10564B00E61264A5EF7807C333CE33CED8F9240224
:10565B00FFEE347C12605B12571012610190000355
:10566B00740412108502570C126101E412107312AC
:10567B006101126553C3947C4008740612107302C7
:10568B00570CE412641E12610190000512104612B1
:10569B00635B9009A5E0FCA3E0FDD39FEC9E501A41
:1056AB0074042DF582E43CF583121046FF74432DF0
:1056BB001260F2EFF012618D80CC9009A112607D27
:1056CB00FF126553FD1264ABEF75F080A42400FF4D
:1056DB00E5F0347CFE7C00EF2DFFEC3EFEEEC0E0EF
:1056EB001261019000051210462402FEEC33900962
:1056FB00CBF0A3CEF07B017A037943D0E0FE1257B7
:04570B001012610116
:0B570F0022122111E51024FF92AF22AE
:03571A00900A1ED4
:10571D001263AFF511E4900A21F0301635303F14C5
:10572D001262A99406EE9400500280129005E0E0FA
:10573D0024E180241262A99404EE9400500C1263AB
:10574D0036900A1FF0A3EFF0801C9005E0E024E7EF
:10575D0080069005E0E024F0FE9005DFE034FF9038
:10576D000A1FF0A3CEF01264F4900A20E09D900A77
:10577D001FE09C5027129EF9128EE712AF4590053F
:10578D008D126190900A2112620F900A2012673FCC
:10579D00900A1FE09E5005E4900A21F0A2AFE43379
:1057AD00F511C2AF7F0112203D900A1E1264123412
:1057BD007CFE12204EE4FF12203DE51124FF92AF36
:1057CD00900A21E0B4010A902062E030E5031266F0
:0157DD003299
:0157DE0022A8
:0357DF00900A220B
:1057E2001263AFF512E4900A25F0301635303F14FB
:1057F2001262A99406EE9400500280129005E0E035
:1058020024E180241262A99404EE9400500C1263E5
:1058120036900A23F0A3EFF0801C9005E0E024E725
:1058220080069005E0E024F0FE9005DFE034FF9072
:105832000A23F0A3CEF01264F4900A24E09D900AA9
:1058420023E09C5027129EF9128EE712AF45900575
:105852008D126190900A2512620F900A2412673FFE
:10586200900A23E09E5005E4900A25F0A2AFE433AB
:10587200F512C2AF7F0112203D900A221264123447
:105882007AFE12204EE4FF12203DE51224FF92AF71
:10589200900A25E0B4010A902062E030E503126626
:0158A20032D3
:0158A30022E2
:0358A400900A0166
:1058A7001263AFF513E075F004900A041263A9F5CB
:1058B70013C2AFE4900A02F0A3F0900A0212622426
:1058C700EC94015023126749900A01126412347A4A
:1058D700CF2DCF3C12605B122111900A0412619008
:0E58E700900A0212666A80D2E51324FF92AF87
:0158F5002290
:0358F600900A060F
:1058F9001263AFF514E075F002900A091263A9F575
:1059090014C2AFE4900A07F0A3F0900A07126224C8
:10591900EC94015027126749900A06126412347CEC
:10592900CF2DCF3C12605B122111900A09126190B0
:10593900900A07E475F08012110E80CEE51424FF59
:0259490092AF1B
:01594B002239
:10594C00A2AFE433F5151261567F051250451210C3
:10595C002D6003025A1A1261567F0612504512101E
:10596C002D6003025A1A1260801261D1FCEF6C7028
:10597C0008900A4D7404F080271262C26C70089073
:10598C000A4D7444F0801912608012639A1261E01F
:10599C00FEEF6E900A4D70057484F0800374C4F0B1
:1059AC00E4FF740D2FF582E434011260EBEEF00F7E
:1059BC00EFB41AEE7F1A74D62FF582E43405126018
:1059CC00EBEEF00FEFB420EE7F2074232FF582E482
:1059DC0034051260EBEEF00FEFB42AEE1260801378
:1059EC0013543FFFA2AFE433F515C2AFEF126413AB
:1059FC00347AFE900A4DE07C002FFFEC3E1265C21B
:0E5A0C00742AF0122111E51524FF92AFD22961
:015A1A002269
:105A1B0012649D5003025B091261567F05125B0AEB
:105A2B006003025B091261567F07125B0A64047004
:105A3B0003025B09900A0C7405F0900A0D121373A4
:105A4B00126553FF900A0CE0FEC39F4003025B09F3
:105A5B00126080126351E5822E12627AF460DBE4ED
:105A6B00900A0BF0900A0D12607DFF126351C083F8
:105A7B00C082900A0CE0FED082D083126278FD9037
:105A8B000A0BE0FCC39D505175F080EF907C011226
:105A9B001367ECFDEE2DFFE433126256900A0D12E4
:105AAB00607D75F080907BFF121367C083C082907E
:105ABB000A0CE0D082D08312627875F00390857760
:105ACB00126074900A0BE0F582758300EF1210855B
:105ADB00900A0BE004F0025A6F900A0D12607D12CF
:105AEB006351C083C082900A0CE0FFD082D0831236
:0E5AFB006278FEEF2E2402900A0CF0025A454B
:0E5B090022125045900A0D12137C12102D220C
:065B170090098412137CCA
:105B1D00E490098BF090054FE064036003025D0192
:105B2D00300803025CF9301403025CF99009871206
:105B3D00671E90098DF012608014FFB4FF06900966
:105B4D008DE014F0D247E490098CF090098CE0FEC2
:105B5D00125FDFE493FD90098DE0FCED6C70101287
:105B6D00663F125FE57401936F7004C24780101297
:105B7D0066BDE0FD90059BE07003A3E06D70CC3039
:105B8D004703025CF190098C125FDD740593FE20D2
:105B9D00E403025C3775F003EF90842212607412F7
:105BAD00102D30E07C90098CE075F0029084ED12A0
:105BBD005FE51266B1BF01057402F0800690098E93
:105BCD007410F090098AE0FFD394005003025CD169
:105BDD001263769009871261C9121046FDEFD39DAD
:105BED004003025CD1741B1265EA12612A126080B7
:105BFD00126517126753FDC39F501A900984121333
:105C0D00731262A1FC74122DF582E43405F583EC58
:105C1D001266BC80DEEF2407900580F0D208025D8D
:105C2D000790098B7416F0025D07EE20E503025C08
:105C3D00E990098CE0FF75F00390842212607412D4
:105C4D00102D20E103025CE1300F03025CD975F0E9
:105C5D0002EF9084ED1260011266B1BF010574026E
:105C6D00F0800690098E7410F090098AE0FFD394AD
:105C7D000040511263769009871261C9121046FED9
:105C8D00EFD39E503F741D1265EA12612A12608097
:105C9D00126517126753FEC39F501C90098412138F
:105CAD00738E821262A3FD74122EF582E43405F513
:105CBD0083ED1266BC80DCEF2407900580F0D20FD7
:105CCD00D208803690098B741BF0802E90098B744E
:105CDD000CF0802690098B7417F0801E90098B7440
:105CED000BF0801690098B7408F0800E90098B7460
:0F5CFD000AF0800690098B7415F090098BE0FF78
:015D0C002274
:095D0D00C236900927121373221B
:065D1600900573E0FF227E
:105D1C00E4FF90054FE0B40320203B16900582E091
:105D2C00B41C0FD23BE490057EF0900582741DF0FC
:0B5D3C008009900582E0FF80027F15C7
:015D47002239
:105D4800900582E0FEB41E14900586E0D3941450AA
:0F5D58000BE004F0C23B900582741CF0CFEECF3D
:015D67002219
:105D68009002AD7406F074011261A274FFF0126122
:105D7800A27428F07417126127FF902242E493FE60
:105D8800EFC39E500CEFA393FE126582EEF00F80D6
:0F5D9800E91260287D1B12035E90057E7401F0F6
:015DA70022D9
:105DA80012657AB41F11303B047F23800DD23B90DB
:0A5DB800057E740BF08003CFEECFE0
:015DC20022BE
:105DC30012657AB41F11303B047F23800DD23B90C0
:0A5DD300057E740CF08003CFEECFC4
:015DDD0022A3
:105DDE00900567E0FFC3940C4006EFD39411400585
:105DEE00EF6406703C90057EE0640B701312611F29
:105DFE001265289007757401F09002B0F0E48017D8
:105E0E0090057EE0640C701912611F126528E490F3
:105E1E000775F09002B0F01260267D0912035EC283
:025E2E003B2215
:105E300012657A641F701F900717E07008A3E07066
:105E4000047F208014303B047F23800DD23B9005DB
:095E50007E740DF08003CFEECF4B
:015E59002226
:105E5A0012657A641F701F900717E07008A3E0703C
:105E6A00047F208014303B047F23800DD23B9005B1
:095E7A007E740EF08003CFEECF20
:015E830022FC
:105E8400900567E0FFC3940C4006EFD394114005DE
:105E9400EF6406703C90057EE0640D701312611F80
:105EA40012653990071C7401F09002B0F0E4801779
:105EB40090057EE0640E701912611F126539E4903A
:105EC400071CF09002B0F01260267D0912035EC236
:025ED4003B226F
:095ED600C21B900934121373225F
:065EDF00900583E0FF22A4
:035EE500CAEFCA37
:105EE800E4FE90054FE06403707A900582E0FD645B
:105EF8001F706C90078FE0FC7008A3E070047E218F
:105F08008064201A56902297E493FBEAD39B50476B
:105F18009004EF7412F0EA24039004EB12612A90C3
:105F28000790E09004F0F0A3ECF0E4FFEFC39A5080
:105F38001B74922FF582E43407F583E0FC74F22F8A
:105F4800F582E43404F583ECF00F80E0EA2407904E
:105F5800057FF0D21A800F7E1B800B7E228007CE31
:095F6800EDCE80027E15CFEECFD4
:015F7100220D
:105F72001263E51262DD74019330E20B75F003EFF8
:0B5F82001260711262A1FDCFEDCF2272
:105F8D00900A2612132A900567E0B42811900A266C
:105F9D0012130290045F12132AE4900567F0D20EDB
:035FAD00C23322DA
:105FB000300E0C900579E0B40103124BDBC20E22C7
:105FC0001263E512600174019330E3037F01227FC5
:025FD0000022AD
:085FD200C22FA22CE433FF22D0
:10A9FA00080C1014181C2024282C30383C404448D9
:10AA0A004C5054585C6064686C7074787C8084889C
:10AA1A008C9094989C0434A000000000000000016F
:10AA2A000418031802180F180000000000000000A4
:1015BA00900969E0FCA3E0FD25E0FFEC33FE74929C
:1015CA002FF58274833EF583E493FE740193F582CA
:1015DA008E8322E0FF24CBF582E43404F583E0FE17
:1015EA0074852FF582E43420F583229009E51213DD
:1015FA00739009E9E0FFF582758300121046FE74C4
:10160A00A92FF582E43402F583EEF09009E9E0FFB0
:10161A0024A9F582E43402F583E0FEE42FF582E49E
:10162A003422F583223CF583E0FE74432FF582E4ED
:10163A003405F583EEF0900865E004F0223EF58368
:10164A00EDF09009B1E475F00102110E74452FF521
:10165A0082E43408F583E0FE74552FF582E43408F9
:10166A00F583E06EFE74A92FF582E43402F5832235
:10167A009002CBE090204EF09002CCE0240490201F
:10168A004DF074869020A5F090006222900961E0E6
:10169A00FFFD7405C39DFDE49400FC2290055DE006
:1016AA0033333354F8FE900569E0C454F04EFE908B
:1016BA00055EE025E025E0223CF583E493FE74AE66
:1016CA002FF582E43402F583EEF09008F6E004F098
:1016DA00229005C2E0FE9005C1E07C002400FFECE8
:1016EA003E900918F0A3EFF0900918E0FEA3E0FF7E
:1016FA007C0B7D721213B7E47B9B7A3BF9F81212CA
:10170A000290092012132AA23FB3E4FCFDFE33FF24
:10171A0090092012131E121177900918CDEFCDCC23
:10172A00EECCE0FEA3E02290055DE033333354F8BB
:10173A00FF900569E0C454F04FFF90055EE0FE2576
:10174A00E025E04F44029002CBF09009E8E09002D5
:10175A00CCF090204DF09002CBE090204EF022E0A9
:10176A00FF900969E0FCA3E090841C75F003121352
:10177A0067EC75F003A42583F583021385FF9009AE
:10178A0061E0FE900964E0FCA3E02EF582E43CF5FA
:10179A0083EFF0900961E004F0229005C4E090051F
:1017AA00C3FEE07C002400FFEC3E22E0FE90055FD1
:1017BA00E075F020900169121367E5822FF582E443
:1017CA003583F5832274119002A9F0E4A3F074061C
:1017DA00A3F0E4A3F0A3229002CAE090204DF07493
:1017EA00049020A5F09000622275F002EF90839297
:1017FA00121367E493FC740193F5828C8322900997
:10180A0061E0FFFDC374FF9DFD740294008D82F5B3
:10181A0083E493FE221210467E00FF900A18EEF02F
:10182A00A3EFF02290054EE0C39401229009B1E0A3
:10183A00FEA3E0FF22F583E0FE74452FF582E4342F
:10184A0008F583EEF00FEF224EFE9002C9E0540332
:10185A004E900552F090204EF0900567E0FEC3943A
:10186A000C22121302EF2401FFE43EFEE43DFDE4E4
:10187A003CFC22131313541F24C7F582E43405F5E4
:10188A00832274F02DF58274053CF583E0FE74D34F
:10189A002FF582E43400F583E022F9E43AFA90085D
:1018AA0065E0FF7C0029F9EC3AFA02102DC23DC22C
:1018BA0021E490054FF0902062F0900056F02290BB
:1018CA00055DE033333354F8FF900569E0C454F002
:1018DA004FFF90055EE0FE25E025E04F44039002AD
:1018EA00CBF09009EE22E0FE74CB2FF582E43404AB
:1018FA00F583EEF022E49009B1F0A3F0229009EB0F
:10190A001213739009EFE0FFF58275830002104607
:10191A00A3F07B017A0279A9227410902061F090D9
:10192A000055F0229002CAE0240490204DF0229043
:10193A0020A5E054C0900568F022E0FE74332FF52C
:10194A0082E43405F58322902000E0540322E0FE6D
:10195A0074CD2FF582E434022274A92DF582740223
:10196A003CF583E0FE2274269020A5F090006222C6
:10197A00900865E0FF2483F582E43404229002CAC9
:10198A00E0FEEFC39E22900A14E025E0FF900A13BE
:10199A00E0223EF583E493FD2290058FE0FEA3E06A
:1019AA00FFC3224E4401900552F090204EF0902041
:1019BA004DE4229020A57401F02274F1902062F087
:1019CA0090005622C22EE4900569F090055CF02240
:1019DA00EEF0900A32E004F02290059BE0FEA3E0CC
:1019EA00FF900969E06E22900560E004F090055FBF
:1019FA00E004F0E02290055DE0FFA3E0FD229008FC
:101A0A0065E0FFFDC322900A2EFDE02FF582E43E39
:101A1A00F583EDF022900919E02FFF900918E03EB6
:101A2A00FE0213B7D23A90091EE0FFA3E0CF900559
:101A3A00E4F0A3EFF02274A290204CF0900048F05A
:101A4A0022741290201AF090001AF0227406902044
:101A5A00A5F0900062F022E5822FF582E5833EF53B
:101A6A0083E493FF90841C75F00322900961E0FFE0
:101A7A0024BBF582E43405F583E0FEEFFDC322FEC4
:101A8A00740D2FF582E4340122E0FE75F003EF9025
:101A9A00841C121367121385EE02107325E0245575
:101AAA00F582E43401F5832225E02456F582E434F4
:101ABA0001F5832290058EE02401FF90058DE03424
:101ACA0000FE900599E06E227A002400FFEA3EF0BB
:101ADA00A3EFF022F583EEF0900865E0FF2290AEC6
:101AEA00CAE493FF900578E05F22E4900A13F0A31A
:101AFA00F022900A13E0FEA3E0FF2274F02FF58291
:101B0A00E4340522900A15021373900961E0FF2458
:101B1A00CDF582E43400F58322902069F090005DCF
:101B2A00F0227406F09020007408F0229020A5E0BC
:101B3A00540122EF2408FDE433FC1213738D828CC6
:101B4A0083121046FE229008F6E0FFFDC3740F22AE
:101B5A00EFF09005A5021302EFF09005A902130217
:101B6A00E0FE74832FF582E4340422EFF09005AD91
:101B7A000213027B017A0379032290054FE0640283
:101B8A002290206274C1F022900961E0FF75F0068C
:101B9A00A42290206274D1F022900566E0640322A8
:101BAA0024FFFFEE34FFFEEF2DFFEE3C229009E802
:101BBA00E0FFA3E0C39F22E0FF2443F582E434055B
:101BCA00F58322900865E0FF24A922F0E49008F644
:101BDA00F022E4FEFDFC9005A112131EC30212B707
:101BEA0074E62FF582E43405F583229002CAE09068
:101BFA00204DF0E4FF227B01A312137CE422B3E41C
:101C0A00FCFDFE33FF12131E02117790058DE0FED4
:101C1A00A3E0FF22EEF0900A50E004F022900113B4
:101C2A00E0FFD39410227405F0E4A3F0A322C3EFDB
:101C3A009DFFEE9CC313FEEF13FF22902020741425
:101C4A00F0229020207494F0229DFD742094008D3F
:101C5A0082F583EEF0229020A5E054C02290086518
:101C6A00E0FFC322900865E0FF9021DD9322E49013
:101C7A000969F0A3F022902049F0900045F09020E5
:101C8A003522FEE02400FFEC3E2290058FF0A3F0FF
:101C9A00A3F022C22A900597F0A3F022900567E0EC
:101CAA00FE640B2290055AE0FF900A50E0C39F227F
:101CBA0090058EE02FFF90058DE03E229008671276
:101CCA001373E922E05403FEEF2E9021F193FE22D2
:101CDA00FF93FE74A92FF582E434022274B12FF522
:101CEA0082E43405F58322E47B9B7A3BF9F80212FD
:101CFA000290205EE0FEA3E0FDEDFF222417F582AC
:101D0A00E43401F583E02274C12FF582E43408F546
:101D1A00832212137C02102D90054FE0640122E009
:101D2A00FF900961E0FEC39F22F0E4900961F0226E
:101D3A009005BFE064012212AF4590058D229009FB
:101D4A0017E004F022FE90091EF0A3EFF04E223CA9
:101D5A00F583E493FE22FE74552FF582E4340822BB
:10A03200EF121391A07C00A07F01A08202A08503F1
:10A04200A08804A08B05A08E06A09107A09408A06A
:10A052009709A09A0AA09D0BA0A00CA0A30DA0A6F0
:10A062000EA0A90FA0AC10A0AF11A0B212A0B51300
:10A07200A0B814A0BB150000A0BE02A14B02A512FD
:10A08200020316026FB802031902A8DE0292A302AB
:10A09200031A02AB5702032102A2E302ABE202ACB3
:10A0A2000C02032202032902032A02034102034291
:0DA0B20002034902034A0203511203522225
:107549007E847F1C7C837D92121C3890059BEEF013
:10755900A3EFF07E857F777C857D75121C38A3EEBD
:10756900F0A3EFF0C241C23EA23F924B12A4AB126C
:107579009C4412AEA8C221C23DE490054FF0A37409
:1075890002F0A3F0C220E490059FF0A3F090057CDF
:10759900F0900587F0A3F0D20DC219128A8D7F04ED
:1075A90012782B12102DB4010A7F0212782B7F0357
:1075B90012783B121AF4121AFCD39420EE9400505C
:1075C9002FCDEFCDED90800093FC746F2DF582E403
:1075D9003400F583ECF0EF90802093FE748F2FF543
:1075E90082E43400F583EEF0900A1312164F80C638
:1075F9007F0512783B12102D704D121B7D7F0612EC
:107609005045900A10121D1C60030276EC121AF5FF
:10761900900A10121373E9241DF9E43AFA121AFCBC
:1076290029F9EA3EFA12102DFD121B05F583EDF03A
:10763900900A1312164F900A13E07004A3E064062F
:1076490070CED2290276ECC2299002FDE4939020F3
:1076590085F09002FEE493902086F09002FFE49377
:10766900902087F09002FDE493902088F09002FE2C
:10767900E493902089F09002FFE49390208AF0121D
:107689001AF4121AFC9021CD93FD74952FF582748A
:10769900203EF583EDF0900A1312164F900A13E07D
:1076A9007004A3E0641070DA1219BD9020A5E020DF
:1076B900E0F9121AF4121AFC2499F58274203EF5A5
:1076C90083E0FD121B05F583EDF0900A1312164FA6
:1076D900900A13E07004A3E0640670D99005F0E005
:1076E90044C0F090092A7407F0E4A3F0A3F0A3744E
:1076F90030F0A37427F074101217DAF0A3F0A3F096
:1077090090057DF0FD121AF41219901215C6740233
:1077190093642860030277DD74039360030277DDC5
:1077290012199033FE74922FF58274833EF583E427
:1077390093FE740193FFF5828E83740593FCED2506
:10774900E0242AF582E434AAF583E493FBEC6B6028
:10775900030277DD8F828E83740693FFED25E02483
:107769002BF582E434AAF583E493FEEF6E706590FD
:10777900057DE0FF7401C8EDC8088002C333D8FC59
:107789004F90057DF01219901215C6E493FC121959
:10779900901215C6740193FF2402FBE433FAD3EB6C
:1077A90094FFEA64809480400BCEECCE0CCCEECCF6
:1077B9000F0F80020F0FED25E024DBF582E434047E
:1077C900F583ECF0ED25E024DCF582E43404F5835F
:1077D900EFF0801D900A1312164F90059BE0FEA34F
:1077E900E0FF900A13E06E7003A3E06F6003027775
:1077F900110DED6404600302770E1203267F8012D7
:10780900AF72C222C20AD2349002FFE493FF9002FF
:10781900FEE4932F9005EEF0E4A3F0C239C23CC216
:017829001D41
:10782A00227B017A037903125045900A1012137CC5
:10783A00227B017A037903125045900A1012137CB5
:01784A00221B
:03A1D700900A15D6
:10A1DA00121D1C12182212AD8DEF707B121B0E90ED
:10A1EA00000112181F12ACA1EF706C121B0E900026
:10A1FA0002121124AEF012182412AAEAEF705812B1
:10A20A001B0E900004121124FFAEF012182512A999
:10A21A00B7EF7043121B0E90000612181F12ADA45E
:10A22A00EF7034121B0E90000712181F12ADBB12EA
:10A23A001B0E900009121046FE7006900933F0803A
:10A24A000AEEB401069009337401F0EF7009900028
:07A25A000812181F129B8679
:01A2610022DA
:10AD8D00E4FEEF6005D3940840047E018005900930
:06AD9D002AEFF0CFEECF1B
:01ADA300228D
:10ACA100E4FEEF60126401600EEF64026009EF647C
:0FACB1000660047E02800590092BEFF0CFEECFF6
:01ACC0002271
:10AAEA00E4FDD3EF945FEE943E40047D038026900C
:10AAFA00092BE0B40109A3E4F0A37430F08016EF47
:10AB0A007802C333CE33CED8F92480FFE43E9009CD
:08AB1A002CF0A3EFF0CFEDCF0A
:01AB22002210
:08A9B700900A3DEEF0A3EFF061
:10A9BF00E4A3F0EF4E6017900A3DE0FEA3E0FFE442
:10A9CF00FCFD7B607AEAF9F8C31212A15008900AD5
:10A9DF003F7404F0800F900A3DE0FFA3E090092E32
:0AA9EF00CFF0A3EFF0900A3FE0FF65
:01A9F900223B
:10ADA400E4FEEF64016007EF60047E05800590090E
:06ADB40030EFF0CFEECFFE
:01ADBA002276
:10ADBB00E4FEEF64016007EF60047E0680059009F6
:06ADCB0031EFF0CFEECFE6
:01ADD100225F
:059B8600900A47EFF01A
:109B8B00E4A3F0EF64016009900A47E06003029CD4
:109B9B000790054FE07054900A47E06401704A1239
:109BAB008A8D900A47E0900932F0E4900589F0A382
:109BBB00F090054F04F0D221E412192590A2949352
:109BCB0090202EF090092CE0FCA3E0FDEC90205EA1
:109BDB00F0A3EDF074E1129C3A7480129C3A74C1BC
:109BEB001219C6F043E8088040803890054FE0FF1B
:109BFB0064017023900A47E0FEB40103A380279011
:109C0B000932EEF0E490054FF0C221902061F09004
:109C1B0000551218BF8012EF6402600790054FE0E9
:0E9C2B00B40306900A487407F0900A48E0FF60
:0B9C390022902062F07F0F12AD72221B
:108A8D00D21990059CE024FFFE90059BE034FF90E9
:108A9D0009B1F0A3CEF01218364E7003028B94EF8D
:108AAD0025E0FFEE33FE74EB2FF58274843EF583E3
:108ABD001217FD7401939009B7F05403FDBD011019
:108ACD001215C87404939009B5F0A37405F08019BC
:108ADD009009B2E025E0FF9009B1E01215C67412BD
